:020000040000FA
:0408000010EF04F001
:080808000001E9502C6EEA50DA
:100810002D6E00011650266E1750276E65EF14F0EE
:1008200055EF06F00000000000000000080808086E
:10083000080808080A0A0A0A0A0A0A0A0A0A0A0A20
:100840000A0A0A0A02020202020202020000000070
:10085000000000000C110C120C131C133C131C1391
:100860000C130C120C113C0D2C0A3C080C071C0537
:100870003C032C013C180C173C141C132C113C0F8E
:100880000C0E3C0A2C072C062C051C053C041C05F0
:100890002C052C062C073C0A0C0E3C0F2C111C13AB
:1008A0003C140C170C002C013C031C050C073C08E5
:1008B0002C0A3C0D0C113C0D2C0A3C080C071C05A5
:1008C0003C032C013C180C173C141C132C113C0F3E
:1008D0000C0E3C0A2C072C062C051C053C041C05A0
:1008E0002C052C062C073C0A0C0E3C0F2C111C135B
:1008F0003C140C170C002C013C031C050C073C0895
:100900002C0A3C0D0C110C120C131C133C131C1361
:100910000C130C1216501902F3501F6EF450206E77
:10092000216A226A236A246A16501A02F35020268A
:10093000F4502122000E006E22220050232200508B
:10094000242216501B02F3502126F4502222000EBE
:10095000006E23220050242216501C02F35022263F
:10096000F4502322000E006E242216501D02F35074
:100970002326F450242216501E02F350242617502A
:100980001902F3502026F4502122000E006E22227C
:10099000005023220050242217501A02F35021261F
:1009A000F4502222000E006E232200502422175001
:1009B0001B02F3502226F4502322000E006E242244
:1009C00017501C02F3502326F450242217501D0206
:1009D000F350242618501902F3502126F4502222F5
:1009E000000E006E23220050242218501A02F350E9
:1009F0002226F4502322000E006E242218501B02DF
:100A0000F3502326F450242218501C02F3502426BD
:100A10001200200E2A6E1A6A1B6A1C6A1D6AD89080
:100A20002236233624362536D89016361736183611
:100A300019361A361B361C361D361D50215CD8A4BB
:100A40002EEF05F01C50205CD8A42EEF05F01B50B3
:100A50001F5CD8A42EEF05F01A501E5CD8B434EFFA
:100A600005F0D8B042EF05F0D8801A501E541A6E27
:100A70001B501F541B6E1C5020541C6E1D502154C3
:100A80001D6E22802A2E0FEF05F01200800E361AFE
:100A900030343134FF0BD8A457EF05F033502E6EAD
:100AA00034502F6E3550306E3650316E1200326E2B
:100AB00035343634FF0BD8B41200376E325CD8B4FC
:100AC00093EF05F0D8A076EF05F0E90FD8B012004B
:100AD000308E358E170FD890353234323332372A74
:100AE000FF0FD8A46BEF05F095EF05F03250375C9F
:100AF000E90FD8A085EF05F033502E6E34502F6EDD
:100B00003550306E3650316E1200308E358E170FE4
:100B1000D89030322F322E32322AFF0FD8A488EFED
:100B200005F095EF05F0308E358E31503618800B7C
:100B3000D8B4A3EF05F0331E341E351E332AD8B4C3
:100B4000342AD8B4352A33502E2634502F2235502B
:100B5000302231503618800BD8B4C1EF05F0D8B030
:100B6000C8EF05F02E1E2F1E301E2E2AD8B42F2AB5
:100B7000D8B4302A3150318E800BD8A4319EC8EFC2
:100B800005F0D8A0C8EF05F030322F322E32322ACD
:100B90002E502F103010D8A4D0EF05F0316A12007B
:100BA000D7EF05F0D8902E362F363036320630AEDD
:100BB000D2EF05F0309E800E3116D89032303112CF
:100BC000D8B0308E120030343134FF0BD8B412005C
:100BD000326E35343634FF0BD8A4F4EF05F02E6AAC
:100BE0002F6A306A316A1200810F3226365031186E
:100BF000800B316E308E358E2E50166E2F50176E44
:100C00003050186E3350196E34501A6E35501B6EBA
:100C10001C6A1D6A1E6A8AEC04F024AE13EF06F00B
:100C2000322A1FEF06F03206D890322A1F362036BD
:100C3000213622362336243624AE14EF06F0225015
:100C40002E6E23502F6E24507F0B306ED890323092
:100C5000D8B0308E31121200386A396A3A6A3B6A6B
:100C600030343134FF0BD8B41200820FD8A01200F8
:100C7000D8B41200308E326ED8902E362F363036E1
:100C8000383639363A363B36322E3CEF06F031AE46
:100C90001200381E391E3A1E3B1E382AD8B4392A93
:100CA000D8B43A2AD8B43B2A12005E6A5F6A8AEF47
:100CB00006F0A39AA398260EBA6E900EA66E190E91
:100CC0007B6E7C6A12000001E86FA4A865EF06F055
:100CD000E851796E00001200A4AA6CEF06F0A49A05
:100CE000A6A275EF06F0A698A6887A501200D06AE0
:100CF000A00EF26E040EF16EF06AD10ED76E200EC9
:100D0000D66E880ED56E1200D10ED76E200ED66E1E
:100D1000F2941200180ECB6E070ECA6E0F015D6BB7
:100D20005C6BC26AC16A926A5B0E936E130E5B6F54
:100D3000946A896A080E8A6E8B6A400E9B6E000167
:100D4000606B616B626B636B646B656B666B676B2F
:100D5000686B010E8114696F000E81B2010E6A6F1B
:100D6000A0EF13F000016151655D166E6251665D82
:100D700016126351675D16126451685D1610D8B47F
:100D800097EF07F0300E1E6E1F6A206A216A6151CC
:100D9000166E6251176E6351186E6451196E09EC2C
:100DA00005F01A500001606F240EF66E080EF76E03
:100DB000000EF86E6051F626000E006EF72200500D
:100DC000F8220900F550896ED8906035C56FB40ED1
:100DD000F66E080EF76E000EF86EC551F626000E80
:100DE000006EF7220050F8220900F550186E090035
:100DF000F550196E166E176A16500F014E6FD89087
:100E000000016035C56F540EF66E080EF76E000EC9
:100E1000F86EC551F626000E006EF7220050F8223B
:100E20000900F550186E0900F550196E166E176A14
:100E300016500F014B6FD89000016035C56FB40E8E
:100E4000F66E080EF76E000EF86EC551F626000E0F
:100E5000006EF7220050F8220900F550166E0900C6
:100E6000F550176E16500F014D6FD8900001603588
:100E7000C56F540EF66E080EF76E000EF86EC55173
:100E8000F626000E006EF7220050F8220900F550F9
:100E9000166E0900F550176E16500F014A6F0001CB
:100EA0006451685DD8A461EF07F06351675DD8A411
:100EB00061EF07F06251665DD8A461EF07F0615100
:100EC000655DD8B470EF07F0D8A070EF07F0612B24
:100ED000D8B4622BD8B4632BD8B4642B8FEF07F04F
:100EE0006451685DD8A481EF07F06351675DD8A4B1
:100EF00081EF07F06251665DD8A481EF07F0615180
:100F0000655DD8B48FEF07F0D8B08FEF07F0010E12
:100F1000615FD8A0625FD8A0635FD8A0645F000162
:100F20004F0E166E162E92EF07F0B2EF06F012007B
:100F300081B8D2EF07F0010E81140001B86F695D2E
:100F4000D8B4CEEF07F0000E81B2010EC36F6A5D18
:100F5000D8B4CCEF07F0B8516A19C46FC451D8A403
:100F6000BDEF07F0300E616F626B636B646B656B96
:100F7000666B676B686BCAEF07F0C405D8A4CAEF4D
:100F800007F0616B626B636B646B300E656F666B51
:100F9000676B686BC3516A6FB851696FB2EC06F04A
:100FA00098EF07F01200800E6F6E6E38166E1632D4
:100FB000070E1616040E165CD8A4D5EF07F0500ED7
:100FC000726E0E017D6B020E436FAC0E446F030E0A
:100FD000456FFA6BFB6BFF0EF86FE00EF96F796BE4
:100FE0007A6B7B6B7C6B466B476BFF0E716FFF0EF2
:100FF000726FFF0E736FFF0E746FFF0E756FFF0E33
:10100000766FFF0E776FFF0E786F12000E0146515C
:10101000D8A42EEF08F00001B8516B6FB9516C6F76
:101020000E01E26BE36BD89000016C31176E6B31EF
:10103000166ED89017321632D890173216321650D4
:101040000E01E06F00016B39F00B0E01E16FD890DB
:10105000E137F00E716F010E466F12004605D8A4FD
:1010600055EF08F00001B8516D6FB9516E6F0E0168
:10107000E66BE76BD89000016E31176E6D31166E1E
:10108000D89017321632D8901732163216500E01F9
:10109000E46F00016D39F00B0E01E56FD890E53774
:1010A000100E716F030E466F1200030E465DD8A43A
:1010B0007DEF08F00001B8516F6FB951706F0E01EC
:1010C000EA6BEB6BD89000017031176E6F31166EC2
:1010D000D89017321632D8901732163216500E01A9
:1010E000E86F00016F39F00B0E01E96FD890E93716
:1010F000F20E726F070E466F1200070E465DD8A4FF
:10110000A5EF08F00001B851716FB951726F0E016F
:10111000EE6BEF6BD89000017231176E7131166E65
:10112000D89017321632D8901732163216500E0158
:10113000EC6F00017139F00B0E01ED6FD890ED37B7
:10114000320E726F0F0E466F12000F0E465DD8A45E
:10115000CDEF08F00001B851736FB951746F0E01F3
:10116000F26BF36BD89000017431176E7331166E09
:10117000D89017321632D8901732163216500E0108
:10118000F06F00017339F00B0E01F16FD890F13759
:10119000F40E736F1F0E466F12001F0E465DD8A42B
:1011A000F5EF08F00001B851756FB951766F0E0177
:1011B000F66BF76BD89000017631176E7531166EAD
:1011C000D89017321632D8901732163216500E01B8
:1011D000F46F00017539F00B0E01F56FD890F537FB
:1011E000540E736F3F0E466F12003F0E465DD8A43B
:1011F0001DEF09F00001B851776FB951786F0E01FA
:101200004A6B4B6BD89000017831176E7731166EB0
:10121000D89017321632D8901732163216500E0167
:10122000486F00017739F00B0E01496FD8904937AC
:10123000F60E746F7F0E466F12007F0E465DD8A4C7
:1012400045EF09F00001B851796FB9517A6F0E017D
:101250004E6B4F6BD89000017A31176E7931166E54
:10126000D89017321632D8901732163216500E0117
:101270004C6F00017939F00B0E014D6FD8904D374E
:10128000760E746FFF0E466F12004751D8A46CEFB4
:1012900009F00001B8517B6FB9517C6F0E01526BA0
:1012A000536BD89000017C31176E7B31166ED8904D
:1012B00017321632D8901732163216500E01506F70
:1012C00000017B39F00B0E01516FD8905137F00EB1
:1012D000756F010E476F12004705D8A493EF09F010
:1012E0000001B8517D6FB9517E6F0E01566B576B7F
:1012F000D89000017E31176E7D31166ED89017326E
:101300001632D8901732163216500E01546F000163
:101310007D39F00B0E01556FD8905537100E756F53
:10132000030E476F1200030E475DD8A4BBEF09F010
:101330000001B8517F6FB951806F0E015A6B5B6B22
:10134000D89000018031176E7F31166ED890173219
:101350001632D8901732163216500E01586F00010F
:101360007F39F00B0E01596FD8905937F20E766F16
:10137000070E476F1200070E475DD8A4E3EF09F090
:101380000001B851816FB951826F0E015E6B5F6BC6
:10139000D89000018231176E8131166ED8901732C5
:1013A0001632D8901732163216500E015C6F0001BB
:1013B0008139F00B0E015D6FD8905D37320E766F7C
:1013C0000F0E476F12000F0E475DD8A40BEF0AF007
:1013D0000001B851836FB951846F0E01626B636B6A
:1013E000D89000018431176E8331166ED890173271
:1013F0001632D8901732163216500E01606F000167
:101400008339F00B0E01616FD8906137F40E776F5E
:101410001F0E476F12001F0E475DD8A433EF0AF06E
:101420000001B851856FB951866F0E01666B676B0D
:10143000D89000018631176E8531166ED89017321C
:101440001632D8901732163216500E01646F000112
:101450008539F00B0E01656FD8906537540E776FA4
:101460003F0E476F12003F0E475DD8A45BEF0AF0B6
:101470000001B851876FB951886F0E016A6B6B6BB1
:10148000D89000018831176E8731166ED8901732C8
:101490001632D8901732163216500E01686F0001BE
:1014A0008739F00B0E01696FD8906937F60E786FA7
:1014B0007F0E476F12007F0E475DD8A482EF0AF0BF
:1014C0000001B851896FB9518A6F0E016E6B6F6B55
:1014D000D89000018A31176E8931166ED890173274
:1014E0001632D8901732163216500E016C6F00016A
:1014F0008939F00B0E016D6FD8906D37760E786FCD
:10150000FF0E476F1200606A0F01306B0E01806B97
:10151000906BA06BB06BC06BD06B200E706E6F6A5F
:101520006E38166E1632070E16161650D8A490EFA7
:101530000AF01200D8905430176E5330166ED890BF
:1015400017321632D8901732163216500F01216F0B
:101550005338F00B226FD89022375550256F5650D4
:10156000266F5750276F5850286F5950296F5A507F
:101570002A6F5B502B6F5C502C6F5D502D6F208756
:1015800020B7C0EF0AF01200416E3F50466E405047
:10159000476E080E486E496A0B0E4A6E41504B6EFC
:1015A0005E504C6E45504D6E44504E6E43504F6EE3
:1015B0004250506E4650536E4750546E4850556ED0
:1015C0004950566E4A50576E4B50586E4C50596E9B
:1015D0004D505A6E4E505B6E4F505C6E50505D6E6B
:1015E0009AEC0AF0010E5E24516E000ED8B0010E86
:1015F0005F24526E51505E6E5F6A1200EB6BEC6BB3
:10160000ED6BEE6BEF6BF06BF16BF26BF36BF46BFE
:10161000F56B61500101006F016BD8900035026FCE
:101620000135036FD89002370337D890023703375C
:101630006250046F056BD8900531076F0431066F57
:10164000040E166ED89007330633162E22EF0BF0D9
:1016500006510211086F07510311096F0001E9518A
:101660000101085D166E0001EA510101095D1610C5
:101670000001F691D8B4F681F68360BEF6A1F69328
:10168000F6A380EF0BF0615001010A6F0B6BD8904D
:101690000A350C6F0B350D6FD8900C370D37D8907D
:1016A0000C370D3762500E6F0F6BD8900F31116FE2
:1016B0000E31106F040E166ED89011331033162EA3
:1016C0005CEF0BF010510C110001EB6F0101115197
:1016D0000D110001EC6F6550ED6F6650EE6F6750B5
:1016E000EF6F6850F06F6950F16F6A50F26F6B5096
:1016F000F36F6C50F46F6D50F56F609E91EF0FF0CB
:101700000F0131510101006F016BD8900035026F5C
:101710000135036FD89002370337D890023703376B
:101720000F0132510101046F056BD8900531076F2D
:101730000431066F040E166ED89007330633162E4A
:101740009CEF0BF006510211086F07510311096F4E
:101750000001E9510101085D166E0001EA51010125
:10176000095D16100001F695D8B4F685F6970F01BD
:1017700030AFBEEF0BF00001F6B5F6870001F6A71B
:1017800015EF0CF00F01315101010A6F0B6BD8906E
:101790000A350C6F0B350D6FD8900C370D37D8907C
:1017A0000C370D370F01325101010E6F0F6BD890BE
:1017B0000F31116F0E31106F040E166ED890113369
:1017C0001033162EDEEF0BF010510C110001EB6FF1
:1017D000010111510D110001EC6F0F013551000194
:1017E000ED6F0F0136510001EE6F0F01375100010F
:1017F000EF6F0F0138510001F06F0F0139510001F7
:10180000F16F0F013A510001F26F0F013B510001DE
:10181000F36F0F013C510001F46F0F013D510001C6
:10182000F56F0F01309F91EF0FF00E018151010113
:10183000006F016BD8900035026F0135036FD890AF
:1018400002370337D890023703370E018251010166
:10185000046F056BD8900531076F0431066F040ED5
:10186000166ED89007330633162E31EF0CF0065162
:101870000211086F07510311096F0001E9510101BD
:10188000085D166E0001EA510101095D16100001A4
:10189000F699D8B4F689F69B0E0180AF53EF0CF0A1
:1018A0000001F6B9F68B0001F6ABAAEF0CF00E01C1
:1018B000815101010A6F0B6BD8900A350C6F0B3503
:1018C0000D6FD8900C370D37D8900C370D370E01AF
:1018D000825101010E6F0F6BD8900F31116F0E31D5
:1018E000106F040E166ED89011331033162E73EF4E
:1018F0000CF010510C110001EB6F010111510D1191
:101900000001EC6F0E0185510001ED6F0E01865153
:101910000001EE6F0E0187510001EF6F0E0188513B
:101920000001F06F0E0189510001F16F0E018A5123
:101930000001F26F0E018B510001F36F0E018C510B
:101940000001F46F0E018D510001F56F0E01809FB3
:1019500091EF0FF00E0191510101006F016BD890D2
:101960000035026F0135036FD89002370337D890E6
:10197000023703370E0192510101046F056BD890B5
:101980000531076F0431066F040E166ED8900733C9
:101990000633162EC6EF0CF006510211086F0751E0
:1019A0000311096F0001E9510101085D166E000184
:1019B000EA510101095D16100001F69DD8B4F68DBB
:1019C000F69F0E0190AFE8EF0CF00001F6BDF68F28
:1019D0000001F6AF3FEF0DF00E01915101010A6FCA
:1019E0000B6BD8900A350C6F0B350D6FD8900C37F8
:1019F0000D37D8900C370D370E01925101010E6F43
:101A00000F6BD8900F31116F0E31106F040E166EE0
:101A1000D89011331033162E08EF0DF010510C1121
:101A20000001EB6F010111510D110001EC6F0E016E
:101A300095510001ED6F0E0196510001EE6F0E0100
:101A400097510001EF6F0E0198510001F06F0E01E8
:101A500099510001F16F0E019A510001F26F0E01D0
:101A60009B510001F36F0E019C510001F46F0E01B8
:101A70009D510001F56F0E01909F91EF0FF00E0147
:101A8000A1510101006F016BD8900035026F013543
:101A9000036FD89002370337D890023703370E010F
:101AA000A2510101046F056BD8900531076F043115
:101AB000066F040E166ED89007330633162E5BEFB2
:101AC0000DF006510211086F07510311096F000153
:101AD000E9510101085D166E0001EA510101095D3D
:101AE00016100001F791D8B4F781F7930E01A0AF5B
:101AF0007DEF0DF00001F7B1F7830001F7A3D4EFFC
:101B00000DF00E01A15101010A6F0B6BD8900A353F
:101B10000C6F0B350D6FD8900C370D37D8900C37F4
:101B20000D370E01A25101010E6F0F6BD8900F31CE
:101B3000116F0E31106F040E166ED89011331033E2
:101B4000162E9DEF0DF010510C110001EB6F0101ED
:101B500011510D110001EC6F0E01A5510001ED6F47
:101B60000E01A6510001EE6F0E01A7510001EF6FAB
:101B70000E01A8510001F06F0E01A9510001F16F93
:101B80000E01AA510001F26F0E01AB510001F36F7B
:101B90000E01AC510001F46F0E01AD510001F56F63
:101BA0000E01A09F91EF0FF00E01B1510101006FE6
:101BB000016BD8900035026F0135036FD890023762
:101BC0000337D890023703370E01B2510101046F79
:101BD000056BD8900531076F0431066F040E166E41
:101BE000D89007330633162EF0EF0DF00651021190
:101BF000086F07510311096F0001E9510101085DE8
:101C0000166E0001EA510101095D16100001F795F9
:101C1000D8B4F785F7970E01B0AF12EF0EF00001C0
:101C2000F7B5F7870001F7A769EF0EF00E01B15184
:101C300001010A6F0B6BD8900A350C6F0B350D6FD5
:101C4000D8900C370D37D8900C370D370E01B251A4
:101C500001010E6F0F6BD8900F31116F0E31106FA5
:101C6000040E166ED89011331033162E32EF0EF08C
:101C700010510C110001EB6F010111510D11000108
:101C8000EC6F0E01B5510001ED6F0E01B651000170
:101C9000EE6F0E01B7510001EF6F0E01B851000158
:101CA000F06F0E01B9510001F16F0E01BA51000140
:101CB000F26F0E01BB510001F36F0E01BC51000128
:101CC000F46F0E01BD510001F56F0E01B09F91EF51
:101CD0000FF00E01C1510101006F016BD89000356A
:101CE000026F0135036FD89002370337D89002375F
:101CF00003370E01C2510101046F056BD890053105
:101D0000076F0431066F040E166ED8900733063342
:101D1000162E85EF0EF006510211086F07510311C0
:101D2000096F0001E9510101085D166E0001EA51D9
:101D30000101095D16100001F799D8B4F789F79BE6
:101D40000E01C0AFA7EF0EF00001F7B9F78B00014D
:101D5000F7ABFEEF0EF00E01C15101010A6F0B6BE4
:101D6000D8900A350C6F0B350D6FD8900C370D37A6
:101D7000D8900C370D370E01C25101010E6F0F6B59
:101D8000D8900F31116F0E31106F040E166ED8906F
:101D900011331033162EC7EF0EF010510C11000145
:101DA000EB6F010111510D110001EC6F0E01C551D6
:101DB0000001ED6F0E01C6510001EE6F0E01C7511B
:101DC0000001EF6F0E01C8510001F06F0E01C95103
:101DD0000001F16F0E01CA510001F26F0E01CB51EB
:101DE0000001F36F0E01CC510001F46F0E01CD51D3
:101DF0000001F56F0E01C09F91EF0FF00E01D15160
:101E00000101006F016BD8900035026F0135036F3F
:101E1000D89002370337D890023703370E01D251DA
:101E20000101046F056BD8900531076F0431066F0F
:101E3000040E166ED89007330633162E1AEF0FF0E5
:101E400006510211086F07510311096F0001E95192
:101E50000101085D166E0001EA510101095D1610CD
:101E60000001F79DD8B4F78DF79F0E01D0AF3CEF7E
:101E70000FF00001F7BDF78F0001F7AF91EF0FF002
:101E80000E01D15101010A6F0B6BD8900A350C6F0E
:101E90000B350D6FD8900C370D37D8900C370D37A8
:101EA0000E01D25101010E6F0F6BD8900F31116FDF
:101EB0000E31106F040E166ED89011331033162E9B
:101EC0005CEF0FF010510C110001EB6F010111518B
:101ED0000D110001EC6F0E01D5510001ED6F0E01E7
:101EE000D6510001EE6F0E01D7510001EF6F0E01C8
:101EF000D8510001F06F0E01D9510001F16F0E01B0
:101F0000DA510001F26F0E01DB510001F36F0E0197
:101F1000DC510001F46F0E01DD510001F56F0E017F
:101F2000D09F0001EB51166EEC51176EED51186EFB
:101F3000EE51196EEF511A6EF0511B6EF1511C6E7D
:101F4000F2511D6EF3511E6EF4511F6EF551206E4D
:101F50001200BF51E26FC051E16FC151E06FC25139
:101F6000DF6FDF51166EE051176EE151186EE251CE
:101F7000196E1200BF51E26FC051E16FC151E06FA5
:101F8000C251DF6FDF51166EE051176EE151186ECE
:101F9000E251196E1200010EE96FEA6BFEEC0AF0D5
:101FA00016500001CB6F1750CC6F1850CD6F1950E1
:101FB000CE6F1A50CF6F1B50D06F1C50D16F1D5079
:101FC000D26F1E50D36F1F50D46F2050D56FCD519C
:101FD000E581D8B4E591CE51B85DE593D8B4E583F9
:101FE000E585E5B1E5A3E595CF51B95DE597D8B4B1
:101FF000E587E589E5B5E5A7E599D051BA5DE59BAB
:10200000D8B4E58BE58DE5B9E5ABE59DD151BB5D78
:10201000E59FD8B4E58FE681E5BDE5AFE691D25105
:10202000BC5DE693D8B4E683E685E6B1E6A3E69523
:10203000D351BD5DE697D8B4E687E689E6B5E6A755
:10204000E699D451BE5DE69BD8B4E68BE68DE6B941
:10205000E6ABE69DD551BF5DE69FD8B4E68FE7813C
:10206000E6BDE6AFE791E7B100EF00F01200550ED4
:1020700063EC06F06CEF06F0450E63EC06F06CEFD7
:1020800006F00001B86F4F0E63EC06F00001B85186
:1020900063EC06F06CEF06F0B86F730E63EC06F0BD
:1020A0000001B85163EC06F00001C35163EC06F087
:1020B0000001C45163EC06F00001C55163EC06F069
:1020C0000001C65163EC06F00001E381000ECA5D19
:1020D000D8A477EF10F0000EC95DD8A477EF10F008
:1020E000030EC85DD8A477EF10F0E80EC75DE39348
:1020F000D8B47DEF10F0D8A0E383E385E3B1E3A388
:10210000E395E3A595EF10F0300E63EC06F0300E8A
:1021100063EC06F02E0E63EC06F0300E63EC06F076
:10212000300E63EC06F073EF11F0000ECA5DD8A418
:10213000A6EF10F0000EC95DD8A4A6EF10F0030EB4
:10214000C85DD8A4A6EF10F0E80EC75DE397D8A449
:10215000D8B0E387000ECA5DD8A4BBEF10F0000E24
:10216000C95DD8A4BBEF10F0270EC85DD8A4BBEFA3
:1021700010F0100EC75DE399D8B4C1EF10F0D8A0ED
:10218000E389E38BE3B7E3A9E39BE3AB73EF11F0E0
:10219000E80E1E6E030E1F6E206A216AC751166E6E
:1021A000C851176EC951186ECA51196E09EC05F065
:1021B00022500001D66F2350D76F2450D86F25507E
:1021C000D96F300ED625DA6F63EC06F0640E1E6E02
:1021D0001F6A206A216A0001C751166EC851176E26
:1021E000C951186ECA51196E09EC05F02250000150
:1021F000D66F2350D76F2450D86F2550D96F0A0E51
:102200001E6E1F6A206A216AD651166ED751176E4C
:10221000D851186ED951196E09EC05F01A50000109
:10222000DA6F1B50DB6F1C50DC6F1D50DD6F300E02
:10223000DA25DE6F63EC06F02E0E63EC06F00A0E74
:102240001E6E1F6A206A216A0001C751166EC851AE
:10225000176EC951186ECA51196E09EC05F022505B
:102260000001D66F2350D76F2450D86F2550D96FF7
:102270000A0E1E6E1F6A206A216AD651166ED75149
:10228000176ED851186ED951196E09EC05F01A5015
:102290000001DA6F1B50DB6F1C50DC6F1D50DD6FCF
:1022A000300EDA25DE6F63EC06F00A0E1E6E1F6A32
:1022B000206A216A0001C751166EC851176EC951B4
:1022C000186ECA51196E09EC05F01A500001D66F4C
:1022D0001B50D76F1C50D86F1D50D96F300ED625AC
:1022E000DA6F63EC06F0000E63EC06F06CEF06F0BC
:1022F000B86F730E63EC06F00001B85163EC06F0A2
:102300000001C35163EC06F00001C45163EC06F018
:102310000001C55163EC06F00001C65163EC06F004
:102320000001E381000ECA5DD8A4A3EF11F0000EF6
:10233000C95DD8A4A3EF11F0000EC85DD8A4A3EF27
:1023400011F00A0EC75DE393D8B4A9EF11F0D8A03D
:10235000E383E385E3B1E3A3E395E3A5BBEF11F0EA
:102360003A0E63EC06F0300E63EC06F0300E63ECD0
:1023700006F09BEF13F0000ECA5DD8A4CCEF11F06D
:10238000000EC95DD8A4CCEF11F0000EC85DD8A432
:10239000CCEF11F00A0EC75DE397D8A4D8B0E3875D
:1023A000000ECA5DD8A4E1EF11F0000EC95DD8A4FB
:1023B000E1EF11F0000EC85DD8A4E1EF11F0640E5A
:1023C000C75DE399D8B4E7EF11F0D8A0E389E38BB8
:1023D000E3B7E3A9E39BE3ABF9EF11F03A0E63EC4B
:1023E00006F0300E63EC06F0300E63EC06F09BEF67
:1023F00013F0000ECA5DD8A40AEF12F0000EC95DFA
:10240000D8A40AEF12F0000EC85DD8A40AEF12F0AB
:10241000640EC75DE39DD8A4D8B0E38D000ECA5DFD
:10242000D8A41FEF12F0000EC95DD8A41FEF12F060
:10243000030EC85DD8A41FEF12F0E80EC75DE39F3E
:10244000D8B425EF12F0D8A0E38FE481E3BDE3AF69
:10245000E491E4A152EF12F03A0E63EC06F0300E74
:1024600063EC06F0640E1E6E1F6A206A216A00018A
:10247000C751166EC851176EC951186ECA51196EE0
:1024800009EC05F022500001D66F2350D76F24507D
:10249000D86F2550D96F300ED625DA6F63EC06F071
:1024A0009BEF13F0000ECA5DD8A463EF12F0000E8C
:1024B000C95DD8A463EF12F0030EC85DD8A463EF22
:1024C00012F0E80EC75DE493D8A4D8B0E483000E00
:1024D000CA5DD8A478EF12F0000EC95DD8A478EFD9
:1024E00012F0270EC85DD8A478EF12F0100EC75D69
:1024F000E495D8B47EEF12F0D8A0E485E487E4B385
:10250000E4A5E497E4A7DFEF12F03A0E63EC06F0DF
:10251000E80E1E6E030E1F6E206A216A0001C7516D
:10252000166EC851176EC951186ECA51196E09EC52
:1025300005F022500001D66F2350D76F2450D86F7A
:102540002550D96F300ED625DA6F63EC06F0640E95
:102550001E6E1F6A206A216A0001C751166EC8519B
:10256000176EC951186ECA51196E09EC05F0225048
:102570000001D66F2350D76F2450D86F2550D96FE4
:102580000A0E1E6E1F6A206A216AD651166ED75136
:10259000176ED851186ED951196E09EC05F01A5002
:1025A0000001DA6F1B50DB6F1C50DC6F1D50DD6FBC
:1025B000300EDA25DE6F63EC06F09BEF13F0000EB1
:1025C000CA5DD8A4F0EF12F0000EC95DD8A4F0EFF8
:1025D00012F0270EC85DD8A4F0EF12F0100EC75D00
:1025E000E499D8A4D8B0E489000ECA5DD8A405EF58
:1025F00013F0000EC95DD8A405EF13F0EA0EC85D14
:10260000D8A405EF13F0600EC75DE49BD8A4D8A052
:10261000E48BE48DE4B9E4ABE49DE4AD9BEF13F00F
:10262000100E1E6E270E1F6E206A216AC751166E8D
:10263000C851176EC951186ECA51196E09EC05F0D0
:1026400022500001D66F2350D76F2450D86F2550E9
:10265000D96F300ED625DA6F63EC06F0E80E1E6EE9
:10266000030E1F6E206A216A0001C751166EC85101
:10267000176EC951186ECA51196E09EC05F0225037
:102680000001D66F2350D76F2450D86F2550D96FD3
:102690000A0E1E6E1F6A206A216AD651166ED75125
:1026A000176ED851186ED951196E09EC05F01A50F1
:1026B0000001DA6F1B50DB6F1C50DC6F1D50DD6FAB
:1026C000300EDA25DE6F63EC06F0640E1E6E1F6AB4
:1026D000206A216A0001C751166EC851176EC95190
:1026E000186ECA51196E09EC05F022500001D66F20
:1026F0002350D76F2450D86F2550D96F0A0E1E6E05
:102700001F6A206A216AD651166ED751176ED851AA
:10271000186ED951196E09EC05F01A500001DA6FE4
:102720001B50DB6F1C50DC6F1D50DD6F300EDA2547
:10273000DE6F63EC06F0000E63EC06F06CEF06F063
:102740009A6B9B6B9C6B9D6B9E6B9F6BA06BA16B45
:10275000A26BA36BA46BA56BA66BA76BA86BA96BF5
:1027600000018E0E166EA70E176EA70E186E182E8D
:10277000B7EF13F0172EB5EF13F0162EB3EF13F0DB
:102780000000000000008B828B808B980001970E68
:10279000166ED10E176E0B0E186E182ECDEF13F0AD
:1027A000172ECBEF13F0162EC9EF13F08B88000114
:1027B0008E0E166EA70E176EA70E186E182EDEEF71
:1027C00013F0172EDCEF13F0162EDAEF13F00000E3
:1027D0000000000059EC06F037EC10F03CEC10F073
:1027E000060E0001C36F010EC46FFF0EC56FFF0E12
:1027F000C66FA251C76FA351C86FA451C96FA5512D
:10280000CA6F040E4CEC10F000019A512E6E9B51D1
:102810002F6E9C51306E9D51316E2CEC06F038506D
:102820000001AA6F3950AB6F3A50AC6F3B50AD6F9F
:10283000020EC36F020EC46FFF0EC56FFF0EC66F90
:10284000AA51C76FAB51C86FAC51C96FAD51CA6FB8
:10285000020E78EC11F00001616B626B636B646BCC
:10286000C00E656F210E666F676B686BB2EC06F089
:102870000001616B626B636B646B656B666B676BAE
:10288000686BD3EC07F0010E0001B86FB96B06EC72
:1028900008F0D20E0001B86FB96B06EC08F03F0EDD
:1028A0000001B86F010EB96F06EC08F0400E000190
:1028B000B86F010EB96F06EC08F083EC0AF08B924A
:1028C0008B9077EC06F0ACEF14F0F2A4A3EF14F0C9
:1028D000010E81143C6E695DD8B4A1EF14F0000EB6
:1028E00081B2010E3D6E6A5DD8B49FEF14F03C508A
:1028F0006A193E6E3E50D8A48CEF14F0C80E3F6E9D
:10290000406A020E426E436A446AE00E456E020E51
:10291000C4EC0AF09CEF14F03E04D8A49CEF14F031
:10292000C80E3F6E406A030E426E436A446AE00E70
:10293000456E020EC4EC0AF03D5000016A6F3C5037
:10294000696F84EC06F02650166E2750176E2C50D7
:10295000E96E2D50EA6E1100010E41EC10F098EC7A
:1029600007F0610E0001B86F6C0EB96F740EBA6F8C
:102970005F0EBB6F300EBC6FBD6FBE6FBF6FCBEC19
:102980000FF0D20E0001E96FEA6BFEEC0AF0165070
:1029900000018B6F17508C6F18508D6F19508E6F10
:1029A0001A508F6F1B50906F1C50916F1D50926F7B
:1029B0001E50936F1F50946F2050956F8D51D8B457
:1029C00019EF15F08B51B86F8C51B96F8D51BA6FEB
:1029D0008E51BB6F8F51BC6F9051BD6F9151BE6FC7
:1029E0009251BF6F9351C06F9451C16F9551C26F97
:1029F000BAEC0FF016500001966F1750976F1850F1
:102A0000986F1950996F010E9615166E1650D8B41E
:102A10000DEF15F08B820EEF15F08B92010E9615CF
:102A2000166E1650D8B418EF15F08B8019EF15F00C
:102A30008B903F0EE96F010EEA6FFEEC0AF0165024
:102A400000018B6F17508C6F18508D6F19508E6F5F
:102A50001A508F6F1B50906F1C50916F1D50926FCA
:102A60001E50936F1F50946F2050956F8D51D8B4A6
:102A7000B3EF15F08B51B86F8C51B96F8D51BA6FA0
:102A80008E51BB6F8F51BC6F9051BD6F9151BE6F16
:102A90009251BF6F9351C06F9451C16F9551C26FE6
:102AA000A9EC0FF016500001AA6F1750AB6F185029
:102AB000AC6F1950AD6FC90E336E070E346E3D0EFC
:102AC000356E400E366EAA512E6EAB512F6EAC5144
:102AD000306EAD51316EE3EC05F02E5000019E6F6B
:102AE0002F509F6F3050A06F3150A16F9E512E6EAE
:102AF0009F512F6EA051306EA151316E2CEC06F01B
:102B000038500001A26F3950A36F3A50A46F3B5068
:102B1000A56FA251A65D166EA351A75D1612A45112
:102B2000A85D1612A551A95D1610D8B4B3EF15F023
:102B3000A251A66FA351A76FA451A86FA551A96F69
:102B4000060EC36F010EC46FFF0EC56FFF0EC66F7A
:102B5000A251C76FA351C86FA451C96FA551CA6FC5
:102B6000040E4CEC10F0400E0001E96F010EEA6F0C
:102B7000FEEC0AF0165000018B6F17508C6F185046
:102B80008D6F19508E6F1A508F6F1B50906F1C50A5
:102B9000916F1D50926F1E50936F1F50946F205075
:102BA000956F8D51D8B4ACEF14F08B51B86F8C5138
:102BB000B96F8D51BA6F8E51BB6F8F51BC6F9051F1
:102BC000BD6F9151BE6F9251BF6F9351C06F9451C1
:102BD000C16F9551C26FA9EC0FF016500001AA6F9A
:102BE0001750AB6F1850AC6F1950AD6FA00E336E0D
:102BF000F80E346E510E356E400E366EAA512E6EA2
:102C0000AB512F6EAC51306EAD51316EE3EC05F02F
:102C10002E5000019A6F2F509B6F30509C6F315097
:102C20009D6FAA6BAB6BAC6BAD6B9A51336E9B51C6
:102C3000346E9C51356E9D51366EAA512E6EAB513D
:102C40002F6EAC51306EAD51316E46EC05F0326AEC
:102C500030343134FF0B31BED884D8B4322A3250EC
:102C60000001B699D8A4B689AE6B600EAF6F6A0E3C
:102C7000B06F470EB16FAE51336EAF51346EB0517D
:102C8000356EB151366E9A512E6E9B512F6E9C51FE
:102C9000306E9D51316E46EC05F0326A303431347D
:102CA000FF0B31BED884D8B4322A32500001B69B13
:102CB000D8A4B68BB68DB6B9B6ABB69DB6ADACEFF3
:102CC00014F0710E336E3D0E346E0A0E356E410EE9
:102CD000366E9A512E6E9B512F6E9C51306E9D51C7
:102CE000316EE3EC05F02CEC06F038500001B26FC9
:102CF0003950B36F3A50B46F3B50B56FC00E1E6E73
:102D0000210E1F6E206A216AB251166EB351176EE2
:102D1000B451186EB551196E09EC05F01A50000146
:102D2000656F1B50666F1C50676F1D50686F645154
:102D3000685DD8A4A8EF16F06351675DD8A4A8EF2A
:102D400016F06251665DD8A4A8EF16F06151655D7A
:102D5000B69FD8B4AEEF16F0D8A0B68FD880615128
:102D60006555AA6F62516655AB6F63516755AC6F7D
:102D700064516855AD6F000EAD5DD8A4CCEF16F070
:102D8000000EAC5DD8A4CCEF16F0100EAB5DD8A44D
:102D9000CCEF16F0E00EAA5DB791D8B4D2EF16F0E2
:102DA000D8B0B781B783B6BFB7A1B793B7A3E3EFE6
:102DB00016F0C00E6527210E6623000E6723000E55
:102DC00068232DEF17F06451685DD8A4F4EF16F076
:102DD0006351675DD8A4F4EF16F06251665DD8A424
:102DE000F4EF16F06151655DB795D8B4FAEF16F0BF
:102DF000D8B0B785D88065516155AA6F66516255C4
:102E0000AB6F67516355AC6F68516455AD6F000E81
:102E1000AD5DD8A418EF17F0000EAC5DD8A418EF84
:102E200017F0100EAB5DD8A418EF17F0E00EAA5DF6
:102E3000B797D8B41EEF17F0D8B0B787B789B7B532
:102E4000B7A7B799B7A92DEF17F0C00E6127210ECC
:102E50006223000E6323000E64239A512E6E9B5151
:102E60002F6E9C51306E9D51316E2CEC06F0385017
:102E70000001AA6F3950AB6F3A50AC6F3B50AD6F49
:102E8000020EC36F020EC46FFF0EC56FFF0EC66F3A
:102E9000AA51C76FAB51C86FAC51C96FAD51CA6F62
:102EA000020E78EC11F0B2EC06F0C00E1E6E210E90
:102EB0001F6E206A216A00016151166E6251176E01
:102EC0006351186E6451196E09EC05F01A50000137
:102ED000616F1B50626F1C50636F1D50646FACEFCD
:022EE00014F0EC
:020000040030CA
:0E0000005D087F7F008991000FC00FE00F4068
:00000001FF
