:020000040000FA
:1008000002EF04F047EF06F00000000000000000D7
:1008100008080808080808080A0A0A0A0A0A0A0A48
:100820000A0A0A0A0A0A0A0A020202020202020268
:1008300000000000000000000C110C120C131C132F
:100840003C131C130C130C120C113C0D2C0A3C080D
:100850000C071C053C032C013C180C173C141C1302
:100860002C113C0F0C0E3C0A2C072C062C051C05E9
:100870003C041C052C052C062C073C0A0C0E3C0FD6
:100880002C111C133C140C170C002C013C031C05F0
:100890000C073C082C0A3C0D0C113C0D2C0A3C08A2
:1008A0000C071C053C032C013C180C173C141C13B2
:1008B0002C113C0F0C0E3C0A2C072C062C051C0599
:1008C0003C041C052C052C062C073C0A0C0E3C0F86
:1008D0002C111C133C140C170C002C013C031C05A0
:1008E0000C073C082C0A3C0D0C110C120C131C13A9
:1008F0003C131C130C130C1216501902F3501F6EEC
:10090000F450206E216A226A236A246A16501A0261
:10091000F3502026F4502122000E006E22220050B7
:1009200023220050242216501B02F3502126F4509B
:100930002222000E006E23220050242216501C0298
:10094000F3502226F4502322000E006E242216506B
:100950001D02F3502326F450242216501E02F35099
:10096000242617501902F3502026F4502122000E9D
:10097000006E2222005023220050242217501A0217
:10098000F3502126F4502222000E006E2322005044
:10099000242217501B02F3502226F4502322000E6B
:1009A000006E242217501C02F3502326F4502422F8
:1009B00017501D02F350242618501902F350212617
:1009C000F4502222000E006E2322005024221850E0
:1009D0001A02F3502226F4502322000E006E242225
:1009E00018501B02F3502326F450242218501C02E6
:1009F000F35024261200200E266E1A6A1B6A1C6A07
:100A00001D6AD8902236233624362536D8901636DD
:100A10001736183619361A361B361C361D361D5039
:100A2000215CD8A420EF05F01C50205CD8A420EF56
:100A300005F01B501F5CD8A420EF05F01A501E5C77
:100A4000D8B426EF05F0D8B034EF05F0D8801A50AE
:100A50001E541A6E1B501F541B6E1C5020541C6ECB
:100A60001D5021541D6E2280262E01EF05F012002C
:100A7000800E301A2A342B34FF0BD8A449EF05F02E
:100A80002D50286E2E50296E2F502A6E30502B6E0E
:100A900012002C6E2F343034FF0BD8B41200316E9C
:100AA0002C5CD8B485EF05F0D8A068EF05F0E90F0D
:100AB000D8B012002A8E2F8E170FD8902F322E32D8
:100AC0002D32312AFF0FD8A45DEF05F087EF05F036
:100AD0002C50315CE90FD8A077EF05F02D50286E2F
:100AE0002E50296E2F502A6E30502B6E12002A8EF7
:100AF0002F8E170FD8902A32293228322C2AFF0F36
:100B0000D8A47AEF05F087EF05F02A8E2F8E2B50B0
:100B10003018800BD8B495EF05F02D1E2E1E2F1E19
:100B20002D2AD8B42E2AD8B42F2A2D5028262E505C
:100B300029222F502A222B503018800BD8B4B3EF23
:100B400005F0D8B0BAEF05F0281E291E2A1E282A63
:100B5000D8B4292AD8B42A2A2B502B8E800BD8A49B
:100B60002B9EBAEF05F0D8A0BAEF05F02A32293251
:100B700028322C2A285029102A10D8A4C2EF05F0B8
:100B80002B6A1200C9EF05F0D890283629362A368C
:100B90002C062AAEC4EF05F02A9E800E2B16D890A4
:100BA0002C302B12D8B02A8E12002A342B34FF0B93
:100BB000D8B412002C6E2F343034FF0BD8A4E6EFDB
:100BC00005F0286A296A2A6A2B6A1200810F2C26EE
:100BD00030502B18800B2B6E2A8E2F8E2850166EBD
:100BE0002950176E2A50186E2D50196E2E501A6EFD
:100BF0002F501B6E1C6A1D6A1E6A7CEC04F024AE2A
:100C000005EF06F02C2A11EF06F02C06D8902C2ABE
:100C10001F362036213622362336243624AE06EF00
:100C200006F02250286E2350296E24507F0B2A6E26
:100C3000D8902C30D8B02A8E2B121200326A336A28
:100C4000346A356A2A342B34FF0BD8B41200820F71
:100C5000D8A01200D8B412002A8E2C6ED890283654
:100C600029362A3632363336343635362C2E2EEFA8
:100C700006F02BAE1200321E331E341E351E322AF1
:100C8000D8B4332AD8B4342AD8B4352A120067EF3E
:100C900006F0A39AA398260EBA6E900EA66E190EB1
:100CA0007B6E7C6A12000001BB6FA4A855EF06F0B2
:100CB000BB51796E00001200A4AA5CEF06F0A49A62
:100CC000A6A265EF06F0A698A6887A501200180E24
:100CD000CB6E070ECA6E0F015D6B5C6BC26AC16A98
:100CE000926A5B0E936E130E5B6F946A896A080EAC
:100CF0008A6E8B6A400E9B6E366A376A386A396A2A
:100D00003A6A3B6A3C6A3D6A3E6AE4EF12F0375049
:100D10003B5C166E38503C5C161239503D5C161226
:100D20003A503E5C1610D8B46AEF07F0300E1E6ED3
:100D30001F6A206A216A3750166E3850176E395074
:100D4000186E3A50196EFBEC04F01A50366E080E0D
:100D5000F66E080EF76E000EF86E3650F626000E90
:100D6000006EF7220050F8220900F550896ED890E5
:100D7000363400018B6F980EF66E080EF76E000E7B
:100D8000F86E8B51F626000E006EF7220050F82206
:100D90000900F550186E0900F550196E166E176AA5
:100DA00016500F014E6FD890363400018B6F380EFD
:100DB000F66E080EF76E000EF86E8B51F626000EDA
:100DC000006EF7220050F8220900F550186E090055
:100DD000F550196E166E176A16500F014B6FD890AA
:100DE000363400018B6F980EF66E080EF76E000E0B
:100DF000F86E8B51F626000E006EF7220050F82296
:100E00000900F550166E0900F550176E16500F01C7
:100E10004D6FD890363400018B6F380EF66E080E89
:100E2000F76E000EF86E8B51F626000E006EF7225C
:100E30000050F8220900F550166E0900F550176EA3
:100E400016500F014A6F3A503E5CD8A434EF07F0B9
:100E500039503D5CD8A434EF07F038503C5CD8A43E
:100E600034EF07F037503B5CD8B443EF07F0D8A01D
:100E700043EF07F0372AD8B4382AD8B4392AD8B47F
:100E80003A2A62EF07F03A503E5CD8A454EF07F0DC
:100E900039503D5CD8A454EF07F038503C5CD8A4DE
:100EA00054EF07F037503B5CD8B462EF07F0D8B08E
:100EB00062EF07F0010E375ED8A0385ED8A0395E29
:100EC000D8A03A5E00014F0E166E162E65EF07F0A1
:100ED00087EF06F01200800E6F6E6E38166E1632B7
:100EE000070E1616040E165CD8A46DEF07F0500E10
:100EF000726E0E017D6B020E436FAC0E446F030EDB
:100F0000456FFA6BFB6BFF0EF86FE00EF96F796BB4
:100F10007A6B7B6B7C6B466B476BFF0E716FFF0EC2
:100F2000726FFF0E736FFF0E746FFF0E756FFF0E03
:100F3000766FFF0E776FFF0E786F12000E0146512D
:100F4000D8A4C2EF07F000018B513F6E8C51406E68
:100F50000E01E26BE36BD8904030176E3F30166E97
:100F6000D89017321632D890173216321650E06FDA
:100F70003F38F00BE16FD890E137F00E716F010E42
:100F8000466F12004605D8A4E5EF07F000018B512B
:100F9000416E8C51426E0E01E66BE76BD890423089
:100FA000176E4130166ED89017321632D89017321D
:100FB00016321650E46F4138F00BE56FD890E537E4
:100FC000100E716F030E466F1200030E465DD8A41B
:100FD00009EF08F000018B51436E8C51446E0E01F5
:100FE000EA6BEB6BD8904430176E4330166ED89096
:100FF00017321632D890173216321650E86F43382F
:10100000F00BE96FD890E937F20E726F070E466F5A
:101010001200070E465DD8A42DEF08F000018B5199
:10102000456E8C51466E0E01EE6BEF6BD8904630DC
:10103000176E4530166ED89017321632D890173288
:1010400016321650EC6F4538F00BED6FD890ED3737
:10105000320E726F0F0E466F12000F0E465DD8A44F
:1010600051EF08F000018B51476E8C51486E0E0114
:10107000F26BF36BD8904830176E4730166ED890ED
:1010800017321632D890173216321650F06F473892
:10109000F00BF16FD890F137F40E736F1F0E466F9F
:1010A00012001F0E465DD8A475EF08F000018B51A9
:1010B000496E8C514A6E0E01F66BF76BD8904A3030
:1010C000176E4930166ED89017321632D8901732F4
:1010D00016321650F46F4938F00BF56FD890F5378B
:1010E000540E736F3F0E466F12003F0E465DD8A43C
:1010F00099EF08F000018B514B6E8C514C6E0E0134
:101100004A6B4B6BD8904C30176E4B30166ED890A4
:1011100017321632D890173216321650486F4B38A5
:10112000F00B496FD8904937F60E746F7F0E466FFB
:1011300012007F0E465DD8A4BDEF08F000018B5170
:101140004D6E8C514E6E0E014E6B4F6BD8904E30E3
:10115000176E4D30166ED89017321632D89017325F
:10116000163216504C6F4D38F00B4D6FD8904D37EE
:10117000760E746FFF0E466F12004751D8A4E0EF51
:1011800008F000018B514F6E8C51506E0E01526B66
:10119000536BD8905030176E4F30166ED890173270
:1011A0001632D890173216321650506F4F38F00B57
:1011B000516FD8905137F00E756F010E476F1200C6
:1011C0004705D8A403EF09F000018B51516E8C51F3
:1011D000526E0E01566B576BD8905230176E5130CD
:1011E000166ED89017321632D89017321632165023
:1011F000546F5138F00B556FD8905537100E756FEE
:10120000030E476F1200030E475DD8A427EF09F0C5
:1012100000018B51536E8C51546E0E015A6B5B6BF7
:10122000D8905430176E5330166ED890173216324D
:10123000D890173216321650586F5338F00B596F3A
:10124000D8905937F20E766F070E476F1200070ECF
:10125000475DD8A44BEF09F000018B51556E8C51BE
:10126000566E0E015E6B5F6BD8905630176E553020
:10127000166ED89017321632D89017321632165092
:101280005C6F5538F00B5D6FD8905D37320E766F1E
:101290000F0E476F12000F0E475DD8A46FEF09F0D5
:1012A00000018B51576E8C51586E0E01626B636B4F
:1012B000D8905830176E5730166ED89017321632B5
:1012C000D890173216321650606F5738F00B616F96
:1012D000D8906137F40E776F1F0E476F12001F0E04
:1012E000475DD8A493EF09F000018B51596E8C51E2
:1012F0005A6E0E01666B676BD8905A30176E593074
:10130000166ED89017321632D89017321632165001
:10131000646F5938F00B656FD8906537540E776F4E
:101320003F0E476F12003F0E475DD8A4B7EF09F09C
:1013300000018B515B6E8C515C6E0E016A6B6B6BA6
:10134000D8905C30176E5B30166ED890173216321C
:10135000D890173216321650686F5B38F00B696FF1
:10136000D8906937F60E786F7F0E476F12007F0EA8
:10137000475DD8A4DAEF09F000018B515D6E8C5106
:101380005E6E0E016E6B6F6BD8905E30176E5D30C7
:10139000166ED89017321632D89017321632165071
:1013A0006C6F5D38F00B6D6FD8906D37760E786F7F
:1013B000FF0E476F1200606A0F01306B0E01806BE9
:1013C000906BA06BB06BC06BD06B200E706E6F6AB1
:1013D0006E38166E1632070E16161650D8A4E8EFA1
:1013E00009F01200BE6BBF6BC06BC16BC26BC36BED
:1013F000C46BC56BC66BC76BC86B6150C96FCA6BDA
:10140000D890C935CB6FCA35CC6FD890CB37CC3795
:10141000D890CB37CC376250CD6FCE6BD890CE31D1
:10142000D06FCD31CF6F040E166ED890D033CF333E
:10143000162E15EF0AF0CF51CB11D16FD051CC1130
:10144000D26FBC51D15D166EBD51D25D1610DB91CD
:10145000D8B4DB81DB8360BEDBA1DB93DBA36AEF67
:101460000AF06150D36FD46BD890D335D56FD43593
:10147000D66FD890D537D637D890D537D637625073
:10148000D76FD86BD890D831DA6FD731D96F040EB7
:10149000166ED890DA33D933162E49EF0AF0D951A7
:1014A000D511BE6FDA51D611BF6F6550C06F66504F
:1014B000C16F6750C26F6850C36F6950C46F6A5084
:1014C000C56F6B50C66F6C50C76F6D50C86F609E14
:1014D00043EF0EF00F0131510001C96FCA6BD89074
:1014E000C935CB6FCA35CC6FD890CB37CC37D890B5
:1014F000CB37CC370F0132510001CD6FCE6BD89076
:10150000CE31D06FCD31CF6F040E166ED890D03360
:10151000CF33162E86EF0AF0CF51CB11D16FD051B9
:10152000CC11D26FBC51D15D166EBD51D25D16107B
:10153000DB95D8B4DB85DB970F0130AFA3EF0AF062
:101540000001DBB5DB870001DBA7F7EF0AF00F0135
:1015500031510001D36FD46BD890D335D56FD435CA
:10156000D66FD890D537D637D890D537D6370F0124
:1015700032510001D76FD86BD890D831DA6FD7319C
:10158000D96F040E166ED890DA33D933162EC3EF06
:101590000AF0D951D511BE6FDA51D611BF6F0F01C4
:1015A00035510001C06F0F0136510001C16F0F01AD
:1015B00037510001C26F0F0138510001C36F0F0195
:1015C00039510001C46F0F013A510001C56F0F017D
:1015D0003B510001C66F0F013C510001C76F0F0165
:1015E0003D510001C86F0F01309F43EF0EF00E0117
:1015F00081510001C96FCA6BD890C935CB6FCA350C
:10160000CC6FD890CB37CC37D890CB37CC370E01B6
:1016100082510001CD6FCE6BD890CE31D06FCD31DD
:10162000CF6F040E166ED890D033CF33162E13EF33
:101630000BF0CF51CB11D16FD051CC11D26FBC5127
:10164000D15D166EBD51D25D1610DB99D8B4DB8921
:10165000DB9B0E0180AF30EF0BF00001DBB9DB8BC1
:101660000001DBAB84EF0BF00E0181510001D36F61
:10167000D46BD890D335D56FD435D66FD890D537B5
:10168000D637D890D537D6370E0182510001D76FA3
:10169000D86BD890D831DA6FD731D96F040E166E67
:1016A000D890DA33D933162E50EF0BF0D951D5112B
:1016B000BE6FDA51D611BF6F0E0185510001C06FA8
:1016C0000E0186510001C16F0E0187510001C26FEA
:1016D0000E0188510001C36F0E0189510001C46FD2
:1016E0000E018A510001C56F0E018B510001C66FBA
:1016F0000E018C510001C76F0E018D510001C86FA2
:101700000E01809F43EF0EF00E0191510001C96F51
:10171000CA6BD890C935CB6FCA35CC6FD890CB3750
:10172000CC37D890CB37CC370E0192510001CD6F1A
:10173000CE6BD890CE31D06FCD31CF6F040E166EF8
:10174000D890D033CF33162EA0EF0BF0CF51CB1162
:10175000D16FD051CC11D26FBC51D15D166EBD513D
:10176000D25D1610DB9DD8B4DB8DDB9F0E0190AFF0
:10177000BDEF0BF00001DBBDDB8F0001DBAF11EF34
:101780000CF00E0191510001D36FD46BD890D3357A
:10179000D56FD435D66FD890D537D637D890D537C2
:1017A000D6370E0192510001D76FD86BD890D8313F
:1017B000DA6FD731D96F040E166ED890DA33D93379
:1017C000162EDDEF0BF0D951D511BE6FDA51D611BF
:1017D000BF6F0E0195510001C06F0E0196510001BF
:1017E000C16F0E0197510001C26F0E0198510001A7
:1017F000C36F0E0199510001C46F0E019A5100018F
:10180000C56F0E019B510001C66F0E019C51000176
:10181000C76F0E019D510001C86F0E01909F43EFED
:101820000EF00E01A1510001C96FCA6BD890C935E5
:10183000CB6FCA35CC6FD890CB37CC37D890CB375D
:10184000CC370E01A2510001CD6FCE6BD890CE31B6
:10185000D06FCD31CF6F040E166ED890D033CF330A
:10186000162E2DEF0CF0CF51CB11D16FD051CC11E2
:10187000D26FBC51D15D166EBD51D25D1610DC9198
:10188000D8B4DC81DC930E01A0AF4AEF0CF000016C
:10189000DCB1DC830001DCA39EEF0CF00E01A15152
:1018A0000001D36FD46BD890D335D56FD435D66FB4
:1018B000D890D537D637D890D537D6370E01A25124
:1018C0000001D76FD86BD890D831DA6FD731D96F84
:1018D000040E166ED890DA33D933162E6AEF0CF058
:1018E000D951D511BE6FDA51D611BF6F0E01A55176
:1018F0000001C06F0E01A6510001C16F0E01A7517A
:101900000001C26F0E01A8510001C36F0E01A95161
:101910000001C46F0E01AA510001C56F0E01AB5149
:101920000001C66F0E01AC510001C76F0E01AD5131
:101930000001C86F0E01A09F43EF0EF00E01B151E0
:101940000001C96FCA6BD890C935CB6FCA35CC6F4F
:10195000D890CB37CC37D890CB37CC370E01B2519B
:101960000001CD6FCE6BD890CE31D06FCD31CF6F1F
:10197000040E166ED890D033CF33162EBAEF0CF07B
:10198000CF51CB11D16FD051CC11D26FBC51D15DA1
:10199000166EBD51D25D1610DC95D8B4DC85DC978F
:1019A0000E01B0AFD7EF0CF00001DCB5DC87000111
:1019B000DCA72BEF0DF00E01B1510001D36FD46BFA
:1019C000D890D335D56FD435D66FD890D537D63794
:1019D000D890D537D6370E01B2510001D76FD86BEA
:1019E000D890D831DA6FD731D96F040E166ED890EF
:1019F000DA33D933162EF7EF0CF0D951D511BE6F6B
:101A0000DA51D611BF6F0E01B5510001C06F0E0142
:101A1000B6510001C16F0E01B7510001C26F0E0136
:101A2000B8510001C36F0E01B9510001C46F0E011E
:101A3000BA510001C56F0E01BB510001C66F0E0106
:101A4000BC510001C76F0E01BD510001C86F0E01EE
:101A5000B09F43EF0EF00E01C1510001C96FCA6B78
:101A6000D890C935CB6FCA35CC6FD890CB37CC372F
:101A7000D890CB37CC370E01C2510001CD6FCE6B61
:101A8000D890CE31D06FCD31CF6F040E166ED89076
:101A9000D033CF33162E47EF0DF0CF51CB11D16F8E
:101AA000D051CC11D26FBC51D15D166EBD51D25DFB
:101AB0001610DC99D8B4DC89DC9B0E01C0AF64EF52
:101AC0000DF00001DCB9DC8B0001DCABB8EF0DF0F0
:101AD0000E01C1510001D36FD46BD890D335D56FAF
:101AE000D435D66FD890D537D637D890D537D637A6
:101AF0000E01C2510001D76FD86BD890D831DA6F80
:101B0000D731D96F040E166ED890DA33D933162E2A
:101B100084EF0DF0D951D511BE6FDA51D611BF6FD8
:101B20000E01C5510001C06F0E01C6510001C16F09
:101B30000E01C7510001C26F0E01C8510001C36FF1
:101B40000E01C9510001C46F0E01CA510001C56FD9
:101B50000E01CB510001C66F0E01CC510001C76FC1
:101B60000E01CD510001C86F0E01C09F43EF0EF072
:101B70000E01D1510001C96FCA6BD890C935CB6F26
:101B8000CA35CC6FD890CB37CC37D890CB37CC3741
:101B90000E01D2510001CD6FCE6BD890CE31D06FF7
:101BA000CD31CF6F040E166ED890D033CF33162EB2
:101BB000D4EF0DF0CF51CB11D16FD051CC11D26FEA
:101BC000BC51D15D166EBD51D25D1610DC9DD8B4EE
:101BD000DC8DDC9F0E01D0AFF1EF0DF00001DCBD1C
:101BE000DC8F0001DCAF43EF0EF00E01D15100019C
:101BF000D36FD46BD890D335D56FD435D66FD890FA
:101C0000D537D637D890D537D6370E01D251000107
:101C1000D76FD86BD890D831DA6FD731D96F040E1F
:101C2000166ED890DA33D933162E11EF0EF0D95143
:101C3000D511BE6FDA51D611BF6F0E01D55100011B
:101C4000C06F0E01D6510001C16F0E01D7510001C6
:101C5000C26F0E01D8510001C36F0E01D9510001AE
:101C6000C46F0E01DA510001C56F0E01DB51000196
:101C7000C66F0E01DC510001C76F0E01DD5100017E
:101C8000C86F0E01D09F0001BE51166EBF51176E76
:101C9000C051186EC151196EC2511A6EC3511B6EDC
:101CA000C4511C6EC5511D6EC6511E6EC7511F6EAC
:101CB000C851206E12009251B56F9351B46F945178
:101CC000B36F9551B26FB251166EB351176EB451D6
:101CD000186EB551196E12009251B56F9351B46FD1
:101CE0009451B36F9551B26FB251166EB351176ED6
:101CF000B451186EB551196E1200010EBC6FBD6B58
:101D0000F2EC09F0165000019E6F17509F6F1850AB
:101D1000A06F1950A16F1A50A26F1B50A36F1C50D7
:101D2000A46F1D50A56F1E50A66F1F50A76F2050A7
:101D3000A86FA051B881D8B4B891A1518B5DB89368
:101D4000D8B4B883B885B8B1B8A3B895A2518C5DA2
:101D5000B897D8B4B887B889B8B5B8A7B899A35117
:101D60008D5DB89BD8B4B88BB88DB8B9B8ABB89DF9
:101D7000A4518E5DB89FD8B4B88FB981B8BDB8AF43
:101D8000B991A5518F5DB993D8B4B983B985B9B16B
:101D9000B9A3B995A651905DB997D8B4B987B98957
:101DA000B9B5B9A7B999A751915DB99BD8B4B98B09
:101DB000B98DB9B9B9ABB99DA851925DB99FD8B4E5
:101DC000B98FBA81B9BDB9AFBA91BAB100EF00F01D
:101DD0001200550E53EC06F05CEF06F0450E53EC86
:101DE00006F05CEF06F000018B6F4F0E53EC06F02F
:101DF00000018B5153EC06F05CEF06F08B6F730E15
:101E000053EC06F000018B5153EC06F000019651A3
:101E100053EC06F00001975153EC06F00001985185
:101E200053EC06F00001995153EC06F00001B68125
:101E3000000E9D5DD8A429EF0FF0000E9C5DD8A484
:101E400029EF0FF0000E9B5DD8A429EF0FF00A0ECA
:101E50009A5DB693D8B42FEF0FF0D8A0B683B685AD
:101E6000B6B1B6A3B695B6A55FEF0FF0300E53EC42
:101E700006F0300E53EC06F0300E53EC06F00A0E6E
:101E80001E6E1F6A206A216A00019A51166E9B51CC
:101E9000176E9C51186E9D51196EFBEC04F01A5090
:101EA0000001A96F1B50AA6F1C50AB6F1D50AC6F87
:101EB000300EA925AD6F53EC06F05BEF11F0000E6C
:101EC0009D5DD8A470EF0FF0000E9C5DD8A470EF5C
:101ED0000FF0000E9B5DD8A470EF0FF00A0E9A5D14
:101EE000B697D8A4D8B0B687000E9D5DD8A485EF6C
:101EF0000FF0000E9C5DD8A485EF0FF0000E9B5DE7
:101F0000D8A485EF0FF0640E9A5DB699D8B48BEF24
:101F10000FF0D8A0B689B68BB6B7B6A9B69BB6AB4C
:101F2000D6EF0FF0300E53EC06F0300E53EC06F007
:101F30000A0E1E6E1F6A206A216A00019A51166EEF
:101F40009B51176E9C51186E9D51196EFBEC04F05D
:101F500022500001A96F2350AA6F2450AB6F255067
:101F6000AC6F300EA925AD6F53EC06F00A0E1E6E55
:101F70001F6A206A216A00019A51166E9B51176EE2
:101F80009C51186E9D51196EFBEC04F01A50000123
:101F9000A96F1B50AA6F1C50AB6F1D50AC6F300E59
:101FA000A925AD6F53EC06F05BEF11F0000E9D5DBF
:101FB000D8A4E7EF0FF0000E9C5DD8A4E7EF0FF078
:101FC000000E9B5DD8A4E7EF0FF0640E9A5DB69DFE
:101FD000D8A4D8B0B68D000E9D5DD8A4FCEF0FF04C
:101FE000000E9C5DD8A4FCEF0FF0030E9B5DD8A4FF
:101FF000FCEF0FF0E80E9A5DB69FD8B402EF10F038
:10200000D8A0B68FB781B6BDB6AFB791B7A180EFF4
:1020100010F0300E53EC06F0640E1E6E1F6A206A3C
:10202000216A00019A51166E9B51176E9C51186ED1
:102030009D51196EFBEC04F022500001A96F235052
:10204000AA6F2450AB6F2550AC6F300EA925AD6F31
:1020500053EC06F00A0E1E6E1F6A206A216A000108
:102060009A51166E9B51176E9C51186E9D51196EA8
:10207000FBEC04F022500001A96F2350AA6F2450FA
:10208000AB6F2550AC6F0A0E1E6E1F6A206A216A64
:10209000A951166EAA51176EAB51186EAC51196E3C
:1020A000FBEC04F01A500001AD6F1B50AE6F1C50DA
:1020B000AF6F1D50B06F300EAD25B16F53EC06F011
:1020C0000A0E1E6E1F6A206A216A00019A51166E5E
:1020D0009B51176E9C51186E9D51196EFBEC04F0CC
:1020E0001A500001A96F1B50AA6F1C50AB6F1D50F6
:1020F000AC6F300EA925AD6F53EC06F05BEF11F01D
:10210000000E9D5DD8A491EF10F0000E9C5DD8A448
:1021100091EF10F0030E9B5DD8A491EF10F0E80E44
:102120009A5DB793D8A4D8B0B783000E9D5DD8A4AC
:10213000A6EF10F0000E9C5DD8A4A6EF10F0270EBD
:102140009B5DD8A4A6EF10F0100E9A5DB795D8B499
:10215000ACEF10F0D8A0B785B787B7B3B7A5B797DE
:10216000B7A75BEF11F0E80E1E6E030E1F6E206A1C
:10217000216A9A51166E9B51176E9C51186E9D5193
:10218000196EFBEC04F022500001A96F2350AA6FD6
:102190002450AB6F2550AC6F300EA925AD6F53ECBA
:1021A00006F0640E1E6E1F6A206A216A00019A51B1
:1021B000166E9B51176E9C51186E9D51196EFBEC5B
:1021C00004F022500001A96F2350AA6F2450AB6F76
:1021D0002550AC6F0A0E1E6E1F6A206A216AA95133
:1021E000166EAA51176EAB51186EAC51196EFBECFE
:1021F00004F01A500001AD6F1B50AE6F1C50AF6F52
:102200001D50B06F300EAD25B16F53EC06F00A0EC5
:102210001E6E1F6A206A216A00019A51166E9B5138
:10222000176E9C51186E9D51196EFBEC04F02250F4
:102230000001A96F2350AA6F2450AB6F2550AC6FDB
:102240000A0E1E6E1F6A206A216AA951166EAA51D3
:10225000176EAB51186EAC51196EFBEC04F01A50AE
:102260000001AD6F1B50AE6F1C50AF6F1D50B06FB3
:10227000300EAD25B16F53EC06F00A0E1E6E1F6ACC
:10228000206A216A00019A51166E9B51176E9C516B
:10229000186E9D51196EFBEC04F01A500001A96FE5
:1022A0001B50AA6F1C50AB6F1D50AC6F300EA92590
:1022B000AD6F53EC06F0000E53EC06F05CEF06F049
:1022C0008B6F730E53EC06F000018B5153EC06F04C
:1022D0000001965153EC06F00001975153EC06F0C3
:1022E0000001985153EC06F00001995153EC06F0AF
:1022F0000001B681000E9D5DD8A48BEF11F0000E99
:102300009C5DD8A48BEF11F0000E9B5DD8A48BEFE1
:1023100011F00A0E9A5DB693D8B491EF11F0D8A0DF
:10232000B683B685B6B1B6A3B695B6A5C1EF11F022
:10233000300E53EC06F02E0E53EC06F0300E53EC3C
:1023400006F00A0E1E6E1F6A206A216A00019A5169
:10235000166E9B51176E9C51186E9D51196EFBECB9
:1023600004F01A500001A96F1B50AA6F1C50AB6FEC
:102370001D50AC6F300EA925AD6F53EC06F0DFEFAA
:1023800012F0000E9D5DD8A4D2EF11F0000E9C5DFE
:10239000D8A4D2EF11F0000E9B5DD8A4D2EF11F0BB
:1023A0000A0E9A5DB697D8A4D8B0B687000E9D5D88
:1023B000D8A4E7EF11F0000E9C5DD8A4E7EF11F070
:1023C000000E9B5DD8A4E7EF11F0640E9A5DB699FC
:1023D000D8B4EDEF11F0D8A0B689B68BB6B7B6A9D0
:1023E000B69BB6AB38EF12F0300E53EC06F02E0E63
:1023F00053EC06F00A0E1E6E1F6A206A216A000165
:102400009A51166E9B51176E9C51186E9D51196E04
:10241000FBEC04F022500001A96F2350AA6F245056
:10242000AB6F2550AC6F300EA925AD6F53EC06F0A5
:102430000A0E1E6E1F6A206A216A00019A51166EEA
:102440009B51176E9C51186E9D51196EFBEC04F058
:102450001A500001A96F1B50AA6F1C50AB6F1D5082
:10246000AC6F300EA925AD6F53EC06F0DFEF12F024
:10247000000E9D5DD8A449EF12F0000E9C5DD8A41B
:1024800049EF12F0000E9B5DD8A449EF12F0640EE4
:102490009A5DB69DD8A4D8B0B68D000E9D5DD8A427
:1024A0005EEF12F0000E9C5DD8A45EEF12F0030EFA
:1024B0009B5DD8A45EEF12F0E80E9A5DB69FD8B48B
:1024C00064EF12F0D8A0B68FB781B6BDB6AFB791A2
:1024D000B7A1DFEF12F0640E1E6E1F6A206A216A38
:1024E0009A51166E9B51176E9C51186E9D51196E24
:1024F000FBEC04F022500001A96F2350AA6F245076
:10250000AB6F2550AC6F300EA925AD6F53EC06F0C4
:102510002E0E53EC06F00A0E1E6E1F6A206A216A08
:1025200000019A51166E9B51176E9C51186E9D5169
:10253000196EFBEC04F022500001A96F2350AA6F22
:102540002450AB6F2550AC6F0A0E1E6E1F6A206AB6
:10255000216AA951166EAA51176EAB51186EAC5173
:10256000196EFBEC04F01A500001AD6F1B50AE6FFA
:102570001C50AF6F1D50B06F300EAD25B16F53ECD6
:1025800006F00A0E1E6E1F6A206A216A00019A5127
:10259000166E9B51176E9C51186E9D51196EFBEC77
:1025A00004F01A500001A96F1B50AA6F1C50AB6FAA
:1025B0001D50AC6F300EA925AD6F53EC06F0000E28
:1025C00053EC06F05CEF06F000016E6B6F6B706B06
:1025D000716B726B736B746B756B766B776B786BFF
:1025E000796B7A6B7B6B7C6B7D6B00018E0E166E4C
:1025F000A70E176EA70E186E182EFCEF12F0172EEE
:10260000FAEF12F0162EF8EF12F0000000000000B2
:102610008B828B808B980001970E166ED10E176EF1
:102620000B0E186E182E12EF13F0172E10EF13F07A
:10263000162E0EEF13F08B8800018E0E166EA70E6D
:10264000176EA70E186E182E23EF13F0172E21EF1A
:1026500013F0162E1FEF13F000000000000049ECED
:1026600006F0E9EC0EF0EEEC0EF000016E51286E73
:102670006F51296E70512A6E71512B6E1EEC06F04F
:10268000325000017E6F33507F6F3450806F355071
:10269000816F050E966F020E976FFF0E986FFF0EFB
:1026A000996F7E519A6F7F519B6F80519C6F8151C2
:1026B0009D6F050E60EC11F000017A51286E7B5180
:1026C000296E7C512A6E7D512B6E1EEC06F0325025
:1026D00000017E6F33507F6F3450806F3550816FB3
:1026E000060E966F010E976FFF0E986FFF0E996F93
:1026F0007E519A6F7F519B6F80519C6F81519D6F6E
:10270000050EFEEC0EF0376A386A396A3A6A3B6A9F
:102710001E0E3C6E3D6A3E6A87EC06F0376A1E0E5E
:10272000386E396A3A6A3B6A3C6A3D6A3E6A87ECAF
:1027300006F0376A386A396A3A6A3B6A3C6A3D6A27
:102740003E6A6BEC07F0010E00018B6F8C6B9EEC08
:1027500007F0D20E00018B6F8C6B9EEC07F03E0EE3
:1027600000018B6F010E8C6F9EEC07F03B0E000199
:102770008B6F010E8C6F9EEC07F0DBEC09F08B92F7
:102780008B90010EF3EC0EF0610E00018B6F730E57
:102790008C6F690E8D6F5F0E8E6F300E8F6F906F26
:1027A000916F926F7DEC0EF0D20E0001BC6FBD6B8D
:1027B000F2EC09F0165000015F6F1750606F18506F
:1027C000616F1950626F1A50636F1B50646F1C5019
:1027D000656F1D50666F1E50676F1F50686F2050E9
:1027E000696F6151D8B42CEF14F05F518B6F605159
:1027F0008C6F61518D6F62518E6F63518F6F645119
:10280000906F6551916F6651926F6751936F6851E8
:10281000946F6951956F6CEC0EF0165000016A6F61
:1028200017506B6F18506C6F19506D6F010E6A1551
:10283000166E1650D8B420EF14F08B8221EF14F0EE
:102840008B92010E6A15166E1650D8B42BEF14F049
:102850008B802CEF14F08B903E0EBC6F010EBD6F81
:10286000F2EC09F0165000015F6F1750606F1850BE
:10287000616F1950626F1A50636F1B50646F1C5068
:10288000656F1D50666F1E50676F1F50686F205038
:10289000696F6151D8B4CCEF14F05F518B6F605108
:1028A0008C6F61518D6F62518E6F63518F6F645168
:1028B000906F6551916F6651926F6751936F685138
:1028C000946F6951956F5BEC0EF0165000017E6FAE
:1028D00017507F6F1850806F1950816F826B836B18
:1028E000C80E846F420E856F82512D6E83512E6EFD
:1028F00084512F6E8551306E7E51286E7F51296E26
:1029000080512A6E81512B6ED5EC05F028500001C4
:102910006E6F29506F6F2A50706F2B50716F6E5110
:10292000286E6F51296E70512A6E71512B6E1EECFC
:1029300006F032500001726F3350736F3450746F71
:102940003550756F7251765D166E7351775D161244
:102950007451785D16127551795D1610D8B4CCEFAC
:1029600014F07251766F7351776F7451786F75519F
:10297000796F050E966F010E976FFF0E986FFF0E21
:10298000996F72519A6F73519B6F74519C6F75510F
:102990009D6F050E60EC11F03B0E0001BC6F010E47
:1029A000BD6FF2EC09F0165000015F6F1750606FB9
:1029B0001850616F1950626F1A50636F1B50646F2B
:1029C0001C50656F1D50666F1E50676F1F50686FFB
:1029D0002050696F6151D8B4C1EF13F05F518B6F14
:1029E00060518C6F61518D6F62518E6F63518F6F2B
:1029F0006451906F6551916F6651926F6751936FFB
:102A00006851946F6951956F5BEC0EF016500001A0
:102A10007E6F17507F6F1850806F1950816FC00EF6
:102A20002D6ECF0E2E6EF80E2F6E3F0E306E7E5135
:102A3000286E7F51296E80512A6E81512B6ED5EC04
:102A400005F0285000017A6F29507B6F2A507C6F67
:102A50002B507D6F7E6B7F6B806B816B7A512D6EFF
:102A60007B512E6E7C512F6E7D51306E7E51286EC3
:102A70007F51296E80512A6E81512B6E38EC05F002
:102A80002C6A2A342B34FF0B2BBED884D8B42C2AC2
:102A90002C5000018A99D8A48A89826B836B7A0EA4
:102AA000846F440E856F82512D6E83512E6E84513A
:102AB0002F6E8551306E7A51286E7B51296E7C5174
:102AC0002A6E7D512B6E38EC05F02C6A2A342B349B
:102AD000FF0B2BBED884D8B42C2A2C5000018A9B23
:102AE000D8A48A8B8A8D8AB98AAB8A9D8AADA0EFD9
:102AF00015F08F0E2D6EC20E2E6EF50E2F6E400E3F
:102B0000306E7A51286E7B51296E7C512A6E7D5130
:102B10002B6ED5EC05F01EEC06F032500001866FEE
:102B20003350876F3450886F3550896F86513B6EB4
:102B300087513C6E88513D6E89513E6E87EC06F0A0
:102B400000017A51286E7B51296E7C512A6E7D518D
:102B50002B6E1EEC06F0325000017E6F33507F6FFB
:102B60003450806F3550816F060E966F010E976F4F
:102B7000FF0E986FFF0E996F7E519A6F7F519B6F7A
:102B800080519C6F81519D6F050EFEEC0EF0C1EFE0
:022B900013F040
:020000040030CA
:0E0000005D087F7F008991000FC00FE00F4068
:00000001FF
