:020000040000FA
:1008000002EF04F047EF06F00000000000000000D7
:1008100008080808080808080A0A0A0A0A0A0A0A48
:100820000A0A0A0A0A0A0A0A020202020202020268
:1008300000000000000000000C110C120C131C132F
:100840003C131C130C130C120C113C0D2C0A3C080D
:100850000C071C053C032C013C180C173C141C1302
:100860002C113C0F0C0E3C0A2C072C062C051C05E9
:100870003C041C052C052C062C073C0A0C0E3C0FD6
:100880002C111C133C140C170C002C013C031C05F0
:100890000C073C082C0A3C0D0C113C0D2C0A3C08A2
:1008A0000C071C053C032C013C180C173C141C13B2
:1008B0002C113C0F0C0E3C0A2C072C062C051C0599
:1008C0003C041C052C052C062C073C0A0C0E3C0F86
:1008D0002C111C133C140C170C002C013C031C05A0
:1008E0000C073C082C0A3C0D0C110C120C131C13A9
:1008F0003C131C130C130C1216501902F3501F6EEC
:10090000F450206E216A226A236A246A16501A0261
:10091000F3502026F4502122000E006E22220050B7
:1009200023220050242216501B02F3502126F4509B
:100930002222000E006E23220050242216501C0298
:10094000F3502226F4502322000E006E242216506B
:100950001D02F3502326F450242216501E02F35099
:10096000242617501902F3502026F4502122000E9D
:10097000006E2222005023220050242217501A0217
:10098000F3502126F4502222000E006E2322005044
:10099000242217501B02F3502226F4502322000E6B
:1009A000006E242217501C02F3502326F4502422F8
:1009B00017501D02F350242618501902F350212617
:1009C000F4502222000E006E2322005024221850E0
:1009D0001A02F3502226F4502322000E006E242225
:1009E00018501B02F3502326F450242218501C02E6
:1009F000F35024261200200E266E1A6A1B6A1C6A07
:100A00001D6AD8902236233624362536D8901636DD
:100A10001736183619361A361B361C361D361D5039
:100A2000215CD8A420EF05F01C50205CD8A420EF56
:100A300005F01B501F5CD8A420EF05F01A501E5C77
:100A4000D8B426EF05F0D8B034EF05F0D8801A50AE
:100A50001E541A6E1B501F541B6E1C5020541C6ECB
:100A60001D5021541D6E2280262E01EF05F012002C
:100A7000800E301A2A342B34FF0BD8A449EF05F02E
:100A80002D50286E2E50296E2F502A6E30502B6E0E
:100A900012002C6E2F343034FF0BD8B41200316E9C
:100AA0002C5CD8B485EF05F0D8A068EF05F0E90F0D
:100AB000D8B012002A8E2F8E170FD8902F322E32D8
:100AC0002D32312AFF0FD8A45DEF05F087EF05F036
:100AD0002C50315CE90FD8A077EF05F02D50286E2F
:100AE0002E50296E2F502A6E30502B6E12002A8EF7
:100AF0002F8E170FD8902A32293228322C2AFF0F36
:100B0000D8A47AEF05F087EF05F02A8E2F8E2B50B0
:100B10003018800BD8B495EF05F02D1E2E1E2F1E19
:100B20002D2AD8B42E2AD8B42F2A2D5028262E505C
:100B300029222F502A222B503018800BD8B4B3EF23
:100B400005F0D8B0BAEF05F0281E291E2A1E282A63
:100B5000D8B4292AD8B42A2A2B502B8E800BD8A49B
:100B60002B9EBAEF05F0D8A0BAEF05F02A32293251
:100B700028322C2A285029102A10D8A4C2EF05F0B8
:100B80002B6A1200C9EF05F0D890283629362A368C
:100B90002C062AAEC4EF05F02A9E800E2B16D890A4
:100BA0002C302B12D8B02A8E12002A342B34FF0B93
:100BB000D8B412002C6E2F343034FF0BD8A4E6EFDB
:100BC00005F0286A296A2A6A2B6A1200810F2C26EE
:100BD00030502B18800B2B6E2A8E2F8E2850166EBD
:100BE0002950176E2A50186E2D50196E2E501A6EFD
:100BF0002F501B6E1C6A1D6A1E6A7CEC04F024AE2A
:100C000005EF06F02C2A11EF06F02C06D8902C2ABE
:100C10001F362036213622362336243624AE06EF00
:100C200006F02250286E2350296E24507F0B2A6E26
:100C3000D8902C30D8B02A8E2B121200326A336A28
:100C4000346A356A2A342B34FF0BD8B41200820F71
:100C5000D8A01200D8B412002A8E2C6ED890283654
:100C600029362A3632363336343635362C2E2EEFA8
:100C700006F02BAE1200321E331E341E351E322AF1
:100C8000D8B4332AD8B4342AD8B4352A1200180E6E
:100C9000CB6E070ECA6E0F015D6B5C6BC26AC16AD8
:100CA000926A5B0E936E130E5B6F946A896A080EEC
:100CB0008A6E8B6A400E9B6E366A376A386A396A6A
:100CC0003A6A3B6A3C6A3D6A3E6AC9EF0EF03750A9
:100CD0003B5C166E38503C5C161239503D5C161267
:100CE0003A503E5C1610D8B44AEF07F0300E1E6E34
:100CF0001F6A206A216A3750166E3850176E3950B5
:100D0000186E3A50196EFBEC04F01A50366E080E4D
:100D1000F66E080EF76E000EF86E3650F626000ED0
:100D2000006EF7220050F8220900F550896ED89025
:100D300036340001886F980EF66E080EF76E000EBE
:100D4000F86E8851F626000E006EF7220050F82249
:100D50000900F550186E0900F550196E166E176AE5
:100D600016500F014E6FD89036340001886F380E40
:100D7000F66E080EF76E000EF86E8851F626000E1D
:100D8000006EF7220050F8220900F550186E090095
:100D9000F550196E166E176A16500F014B6FD890EA
:100DA00036340001886F980EF66E080EF76E000E4E
:100DB000F86E8851F626000E006EF7220050F822D9
:100DC0000900F550166E0900F550176E16500F0108
:100DD0004D6FD89036340001886F380EF66E080ECD
:100DE000F76E000EF86E8851F626000E006EF722A0
:100DF0000050F8220900F550166E0900F550176EE4
:100E000016500F014A6F3A503E5CD8A414EF07F019
:100E100039503D5CD8A414EF07F038503C5CD8A49E
:100E200014EF07F037503B5CD8B423EF07F0D8A09D
:100E300023EF07F0372AD8B4382AD8B4392AD8B4DF
:100E40003A2A42EF07F03A503E5CD8A434EF07F05C
:100E500039503D5CD8A434EF07F038503C5CD8A43E
:100E600034EF07F037503B5CD8B442EF07F0D8B00E
:100E700042EF07F0010E375ED8A0385ED8A0395E89
:100E8000D8A03A5E00014F0E166E162E45EF07F001
:100E900067EF06F01200800E6F6E6E38166E163217
:100EA000070E1616040E165CD8A44DEF07F0500E70
:100EB000726E0E017D6B020E436FAC0E446F030E1B
:100EC000456FFA6BFB6BFF0EF86FE00EF96F796BF5
:100ED0007A6B7B6B7C6B466B476BFF0E716FFF0E03
:100EE000726FFF0E736FFF0E746FFF0E756FFF0E44
:100EF000766FFF0E776FFF0E786F12000E0146516E
:100F0000D8A4A2EF07F0000188513F6E8951406ECE
:100F10000E01E26BE36BD8904030176E3F30166ED7
:100F2000D89017321632D890173216321650E06F1A
:100F30003F38F00BE16FD890E137F00E716F010E82
:100F4000466F12004605D8A4C5EF07F0000188518E
:100F5000416E8951426E0E01E66BE76BD8904230CC
:100F6000176E4130166ED89017321632D89017325D
:100F700016321650E46F4138F00BE56FD890E53724
:100F8000100E716F030E466F1200030E465DD8A45B
:100F9000E9EF07F000018851436E8951446E0E015C
:100FA000EA6BEB6BD8904430176E4330166ED890D6
:100FB00017321632D890173216321650E86F43386F
:100FC000F00BE96FD890E937F20E726F070E466F9B
:100FD0001200070E465DD8A40DEF08F000018851FD
:100FE000456E8951466E0E01EE6BEF6BD890463020
:100FF000176E4530166ED89017321632D8901732C9
:1010000016321650EC6F4538F00BED6FD890ED3777
:10101000320E726F0F0E466F12000F0E465DD8A48F
:1010200031EF08F000018851476E8951486E0E017A
:10103000F26BF36BD8904830176E4730166ED8902D
:1010400017321632D890173216321650F06F4738D2
:10105000F00BF16FD890F137F40E736F1F0E466FDF
:1010600012001F0E465DD8A455EF08F0000188510C
:10107000496E89514A6E0E01F66BF76BD8904A3073
:10108000176E4930166ED89017321632D890173234
:1010900016321650F46F4938F00BF56FD890F537CB
:1010A000540E736F3F0E466F12003F0E465DD8A47C
:1010B00079EF08F0000188514B6E89514C6E0E019A
:1010C0004A6B4B6BD8904C30176E4B30166ED890E5
:1010D00017321632D890173216321650486F4B38E6
:1010E000F00B496FD8904937F60E746F7F0E466F3C
:1010F00012007F0E465DD8A49DEF08F000018851D4
:101100004D6E89514E6E0E014E6B4F6BD8904E3026
:10111000176E4D30166ED89017321632D89017329F
:10112000163216504C6F4D38F00B4D6FD8904D372E
:10113000760E746FFF0E466F12004751D8A4C0EFB1
:1011400008F0000188514F6E8951506E0E01526BAC
:10115000536BD8905030176E4F30166ED8901732B0
:101160001632D890173216321650506F4F38F00B97
:10117000516FD8905137F00E756F010E476F120006
:101180004705D8A4E3EF08F000018851516E89515A
:10119000526E0E01566B576BD8905230176E51300D
:1011A000166ED89017321632D89017321632165063
:1011B000546F5138F00B556FD8905537100E756F2E
:1011C000030E476F1200030E475DD8A407EF09F026
:1011D00000018851536E8951546E0E015A6B5B6B3E
:1011E000D8905430176E5330166ED890173216328E
:1011F000D890173216321650586F5338F00B596F7B
:10120000D8905937F20E766F070E476F1200070E0F
:10121000475DD8A42BEF09F000018851556E895124
:10122000566E0E015E6B5F6BD8905630176E553060
:10123000166ED89017321632D890173216321650D2
:101240005C6F5538F00B5D6FD8905D37320E766F5E
:101250000F0E476F12000F0E475DD8A44FEF09F035
:1012600000018851576E8951586E0E01626B636B95
:10127000D8905830176E5730166ED89017321632F5
:10128000D890173216321650606F5738F00B616FD6
:10129000D8906137F40E776F1F0E476F12001F0E44
:1012A000475DD8A473EF09F000018851596E895148
:1012B0005A6E0E01666B676BD8905A30176E5930B4
:1012C000166ED89017321632D89017321632165042
:1012D000646F5938F00B656FD8906537540E776F8F
:1012E0003F0E476F12003F0E475DD8A497EF09F0FD
:1012F000000188515B6E89515C6E0E016A6B6B6BED
:10130000D8905C30176E5B30166ED890173216325C
:10131000D890173216321650686F5B38F00B696F31
:10132000D8906937F60E786F7F0E476F12007F0EE8
:10133000475DD8A4BAEF09F0000188515D6E89516C
:101340005E6E0E016E6B6F6BD8905E30176E5D3007
:10135000166ED89017321632D890173216321650B1
:101360006C6F5D38F00B6D6FD8906D37760E786FBF
:10137000FF0E476F1200606A0F01306B0E01806B29
:10138000906BA06BB06BC06BD06B200E706E6F6AF1
:101390006E38166E1632070E16161650D8A4C8EF01
:1013A00009F01200A76BA86BA96BAA6BAB6BAC6BB7
:1013B000AD6BAE6BAF6BB06BB16B6150B26FB36BBB
:1013C000D890B235B46FB335B56FD890B437B53760
:1013D000D890B437B5376250B66FB76BD890B73185
:1013E000B96FB631B86F040E166ED890B933B833F2
:1013F000162EF5EF09F0B851B411BA6FB951B51105
:10140000BB6FA551BA5D166EA651BB5D1610C49197
:10141000D8B4C481C48360BEC4A1C493C4A34AEF3A
:101420000AF06150BC6FBD6BD890BC35BE6FBD3546
:10143000BF6FD890BE37BF37D890BE37BF37625026
:10144000C06FC16BD890C131C36FC031C26F040E81
:10145000166ED890C333C233162E29EF0AF0C2514C
:10146000BE11A76FC351BF11A86F6550A96F665019
:10147000AA6F6750AB6F6850AC6F6950AD6F6A5020
:10148000AE6F6B50AF6F6C50B06F6D50B16F609EB0
:1014900023EF0EF00F0131510001B26FB36BD89002
:1014A000B235B46FB335B56FD890B437B537D8907F
:1014B000B437B5370F0132510001B66FB76BD89012
:1014C000B731B96FB631B86F040E166ED890B93314
:1014D000B833162E66EF0AF0B851B411BA6FB9518D
:1014E000B511BB6FA551BA5D166EA651BB5D161046
:1014F000C495D8B4C485C4970F0130AF83EF0AF008
:101500000001C4B5C4870001C4A7D7EF0AF00F01DA
:1015100031510001BC6FBD6BD890BC35BE6FBD357D
:10152000BF6FD890BE37BF37D890BE37BF370F01D7
:1015300032510001C06FC16BD890C131C36FC0314F
:10154000C26F040E166ED890C333C233162EA3EFAB
:101550000AF0C251BE11A76FC351BF11A86F0F018E
:1015600035510001A96F0F0136510001AA6F0F011B
:1015700037510001AB6F0F0138510001AC6F0F0103
:1015800039510001AD6F0F013A510001AE6F0F01EB
:101590003B510001AF6F0F013C510001B06F0F01D3
:1015A0003D510001B16F0F01309F23EF0EF00E018E
:1015B00081510001B26FB36BD890B235B46FB335BF
:1015C000B56FD890B437B537D890B437B5370E016A
:1015D00082510001B66FB76BD890B731B96FB63191
:1015E000B86F040E166ED890B933B833162EF3EFD9
:1015F0000AF0B851B411BA6FB951B511BB6FA5510A
:10160000BA5D166EA651BB5D1610C499D8B4C489D4
:10161000C49B0E0180AF10EF0BF00001C4B9C48B66
:101620000001C4AB64EF0BF00E0181510001BC6FEF
:10163000BD6BD890BC35BE6FBD35BF6FD890BE377F
:10164000BF37D890BE37BF370E0182510001C06F3F
:10165000C16BD890C131C36FC031C26F040E166E1A
:10166000D890C333C233162E30EF0BF0C251BE11E7
:10167000A76FC351BF11A86F0E0185510001A96F5B
:101680000E0186510001AA6F0E0187510001AB6F58
:101690000E0188510001AC6F0E0189510001AD6F40
:1016A0000E018A510001AE6F0E018B510001AF6F28
:1016B0000E018C510001B06F0E018D510001B16F10
:1016C0000E01809F23EF0EF00E0191510001B26FC9
:1016D000B36BD890B235B46FB335B56FD890B4371B
:1016E000B537D890B437B5370E0192510001B66FB7
:1016F000B76BD890B731B96FB631B86F040E166EAC
:10170000D890B933B833162E80EF0BF0B851B4111E
:10171000BA6FB951B511BB6FA551BA5D166EA6511E
:10172000BB5D1610C49DD8B4C48DC49F0E0190AF8C
:101730009DEF0BF00001C4BDC48F0001C4AFF1EFF9
:101740000BF00E0191510001BC6FBD6BD890BC3500
:10175000BE6FBD35BF6FD890BE37BF37D890BE378C
:10176000BF370E0192510001C06FC16BD890C131DB
:10177000C36FC031C26F040E166ED890C333C2332C
:10178000162EBDEF0BF0C251BE11A76FC351BF1192
:10179000A86F0E0195510001A96F0E01965100012D
:1017A000AA6F0E0197510001AB6F0E019851000115
:1017B000AC6F0E0199510001AD6F0E019A510001FD
:1017C000AE6F0E019B510001AF6F0E019C510001E5
:1017D000B06F0E019D510001B16F0E01909F23EF7C
:1017E0000EF00E01A1510001B26FB36BD890B2356B
:1017F000B46FB335B56FD890B437B537D890B43728
:10180000B5370E01A2510001B66FB76BD890B73152
:10181000B96FB631B86F040E166ED890B933B833BD
:10182000162E0DEF0CF0B851B411BA6FB951B511B5
:10183000BB6FA551BA5D166EA651BB5D1610C59162
:10184000D8B4C581C5930E01A0AF2AEF0CF00001FA
:10185000C5B1C5830001C5A37EEF0CF00E01A151F7
:101860000001BC6FBD6BD890BC35BE6FBD35BF6F7E
:10187000D890BE37BF37D890BE37BF370E01A251C0
:101880000001C06FC16BD890C131C36FC031C26F4E
:10189000040E166ED890C333C233162E4AEF0CF0E6
:1018A000C251BE11A76FC351BF11A86F0E01A55140
:1018B0000001A96F0E01A6510001AA6F0E01A751E8
:1018C0000001AB6F0E01A8510001AC6F0E01A951D0
:1018D0000001AD6F0E01AA510001AE6F0E01AB51B8
:1018E0000001AF6F0E01AC510001B06F0E01AD51A0
:1018F0000001B16F0E01A09F23EF0EF00E01B15158
:101900000001B26FB36BD890B235B46FB335B56F19
:10191000D890B437B537D890B437B5370E01B25137
:101920000001B66FB76BD890B731B96FB631B86FE9
:10193000040E166ED890B933B833162E9AEF0CF009
:10194000B851B411BA6FB951B511BB6FA551BA5D99
:10195000166EA651BB5D1610C595D8B4C585C59742
:101960000E01B0AFB7EF0CF00001C5B5C58700019F
:10197000C5A70BEF0DF00E01B1510001BC6FBD6B9F
:10198000D890BC35BE6FBD35BF6FD890BE37BF375E
:10199000D890BE37BF370E01B2510001C06FC16B86
:1019A000D890C131C36FC031C26F040E166ED8908B
:1019B000C333C233162ED7EF0CF0C251BE11A76F3E
:1019C000C351BF11A86F0E01B5510001A96F0E01DF
:1019D000B6510001AA6F0E01B7510001AB6F0E01A5
:1019E000B8510001AC6F0E01B9510001AD6F0E018D
:1019F000BA510001AE6F0E01BB510001AF6F0E0175
:101A0000BC510001B06F0E01BD510001B16F0E015C
:101A1000B09F23EF0EF00E01C1510001B26FB36B06
:101A2000D890B235B46FB335B56FD890B437B537F9
:101A3000D890B437B5370E01C2510001B66FB76BFD
:101A4000D890B731B96FB631B86F040E166ED89012
:101A5000B933B833162E27EF0DF0B851B411BA6F61
:101A6000B951B511BB6FA551BA5D166EA651BB5DDC
:101A70001610C599D8B4C589C59B0E01C0AF44EFF7
:101A80000DF00001C5B9C58B0001C5AB98EF0DF095
:101A90000E01C1510001BC6FBD6BD890BC35BE6F4B
:101AA000BD35BF6FD890BE37BF37D890BE37BF3770
:101AB0000E01C2510001C06FC16BD890C131C36F1C
:101AC000C031C26F040E166ED890C333C233162EC7
:101AD00064EF0DF0C251BE11A76FC351BF11A86FC3
:101AE0000E01C5510001A96F0E01C6510001AA6F78
:101AF0000E01C7510001AB6F0E01C8510001AC6F60
:101B00000E01C9510001AD6F0E01CA510001AE6F47
:101B10000E01CB510001AF6F0E01CC510001B06F2F
:101B20000E01CD510001B16F0E01C09F23EF0EF0E9
:101B30000E01D1510001B26FB36BD890B235B46FC2
:101B4000B335B56FD890B437B537D890B437B5370B
:101B50000E01D2510001B66FB76BD890B731B96F93
:101B6000B631B86F040E166ED890B933B833162E4E
:101B7000B4EF0DF0B851B411BA6FB951B511BB6FD4
:101B8000A551BA5D166EA651BB5D1610C59DD8B4A1
:101B9000C58DC59F0E01D0AFD1EF0DF00001C5BDC1
:101BA000C58F0001C5AF23EF0EF00E01D15100012A
:101BB000BC6FBD6BD890BC35BE6FBD35BF6FD890C4
:101BC000BE37BF37D890BE37BF370E01D2510001A4
:101BD000C06FC16BD890C131C36FC031C26F040EEA
:101BE000166ED890C333C233162EF1EF0DF0C251EA
:101BF000BE11A76FC351BF11A86F0E01D5510001CF
:101C0000A96F0E01D6510001AA6F0E01D751000134
:101C1000AB6F0E01D8510001AC6F0E01D95100011C
:101C2000AD6F0E01DA510001AE6F0E01DB51000104
:101C3000AF6F0E01DC510001B06F0E01DD510001EC
:101C4000B16F0E01D09F0001A751166EA851176EFB
:101C5000A951186EAA51196EAB511A6EAC511B6E78
:101C6000AD511C6EAE511D6EAF511E6EB0511F6E48
:101C7000B151206E12008F51A16F9051A06F915100
:101C80009F6F92519E6F9E51166E9F51176EA0517D
:101C9000186EA151196E12008F51A16F9051A06F53
:101CA00091519F6F92519E6F9E51166E9F51176E6C
:101CB000A051186EA151196E1200010EA56FA66BEE
:101CC000D2EC09F016500001936F1750946F185022
:101CD000956F1950966F1A50976F1B50986F1C5044
:101CE000996F1D509A6F1E509B6F1F509C6F205014
:101CF0009D6F9551A281D8B4A2919651885DA2930F
:101D0000D8B4A283A285A2B1A2A3A2959751895D5E
:101D1000A297D8B4A287A289A2B5A2A7A2999851E6
:101D20008A5DA29BD8B4A28BA28DA2B9A2ABA29DC0
:101D300099518B5DA29FD8B4A28FA381A2BDA2AFFF
:101D4000A3919A518C5DA393D8B4A383A385A3B127
:101D5000A3A3A3959B518D5DA397D8B4A387A38913
:101D6000A3B5A3A7A3999C518E5DA39BD8B4A38BC5
:101D7000A38DA3B9A3ABA39D9D518F5DA39FD8B4A1
:101D8000A38FA481A3BDA3AFA491A4B100EF00F0E1
:101D9000120000016E6B6F6B706B716B00018E0E29
:101DA000166EA70E176EA70E186E182ED5EF0EF032
:101DB000172ED3EF0EF0162ED1EF0EF0000000001C
:101DC00000008B828B80376A386A396A3A6A880EDB
:101DD0003B6E1D0E3C6E3D6A3E6A67EC06F0880E57
:101DE000376E1D0E386E396A3A6A3B6A3C6A3D6A44
:101DF0003E6A67EC06F0376A386A396A3A6A3B6AC3
:101E00003C6A3D6A3E6A4BEC07F0010E0001886FA8
:101E1000896B7EEC07F0D20E0001886F896B7EEC37
:101E200007F03B0E0001886F010E896F7EEC07F012
:101E3000BBEC09F08B928B90610E0001886F730EE2
:101E4000896F690E8A6F5F0E8B6F300E8C6F8D6F8E
:101E50008E6F8F6F5DEC0EF0D20E0001A56FA66B3A
:101E6000D2EC09F0165000015F6F1750606F1850E8
:101E7000616F1950626F1A50636F1B50646F1C5072
:101E8000656F1D50666F1E50676F1F50686F205042
:101E9000696F6151D8B484EF0FF05F51886F605162
:101EA000896F61518A6F62518B6F63518C6F64517E
:101EB0008D6F65518E6F66518F6F6751906F68514E
:101EC000916F6951926F4CEC0EF0165000016A6FE1
:101ED00017506B6F18506C6F19506D6F010E6A15AB
:101EE000166E1650D8B478EF0FF08B8279EF0FF0A2
:101EF0008B92010E6A15166E1650D8B483EF0FF050
:101F00008B8084EF0FF08B903B0EA56F010EA66FB8
:101F1000D2EC09F0165000015F6F1750606F185037
:101F2000616F1950626F1A50636F1B50646F1C50C1
:101F3000656F1D50666F1E50676F1F50686F205091
:101F4000696F6151D8B41CEF0FF05F51886F605119
:101F5000896F61518A6F62518B6F63518C6F6451CD
:101F60008D6F65518E6F66518F6F6751906F68519D
:101F7000916F6951926F3BEC0EF016500001726F39
:101F80001750736F1850746F1950756F700E2D6E57
:101F9000CE0E2E6EF80E2F6E3F0E306E7251286EE2
:101FA0007351296E74512A6E75512B6ED5EC05F064
:101FB000285000016E6F29506F6F2A50706F2B50A0
:101FC000716F726B736B746B756B72512D6E735195
:101FD0002E6E74512F6E7551306E6E51286E6F518A
:101FE000296E70512A6E71512B6E38EC05F02A342F
:101FF0002B34FF0BD8902BBED880D8B403EF10F051
:10200000D8A009EF10F03B6A3C6A3D6A3E6A56EF81
:1020100011F00001726B736B746B756B6E512D6EEA
:102020006F512E6E70512F6E7151306E7251286E3D
:102030007351296E74512A6E75512B6E38EC05F070
:102040002C6A2A342B34FF0BD8B429EF10F02BBEA6
:102050002C2A2C5000018697D8A48687766B776B44
:10206000200E786F420E796F76512D6E77512E6E5D
:1020700078512F6E7951306E6E51286E6F51296EE6
:1020800070512A6E71512B6E38EC05F02C6A2A348F
:102090002B34FF0B2BBED884D8B42C2A2C50000133
:1020A0008699D8A48689868B86B786A9869B86ABB7
:1020B00080EF10F0660E2D6E2E6E860E2F6E410E86
:1020C000306E6E51286E6F51296E70512A6E7151AB
:1020D0002B6ED5EC05F01EEC06F0325000017A6F45
:1020E00033507B6F34507C6F35507D6F7A513B6E2F
:1020F0007B513C6E7C513D6E7D513E6E56EF11F032
:10210000726B736B200E746F420E756F6E512D6E75
:102110006F512E6E70512F6E7151306E7251286E4C
:102120007351296E74512A6E75512B6E38EC05F07F
:102130002C6A2A342B34FF0BD8B4A1EF10F02BBE3D
:102140002C2A2C500001869DD8A4868D766B800E9B
:10215000776F090E786F450E796F76512D6E775136
:102160002E6E78512F6E7951306E6E51286E6F51F0
:10217000296E70512A6E71512B6E38EC05F02C6A65
:102180002A342B34FF0B2BBED884D8B42C2A2C50E5
:102190000001869FD8A4868F878186BD86AF8791F0
:1021A00087A12CEF11F02D6A2E6A200E2F6E420EA1
:1021B000306E6E51286E6F51296E70512A6E7151BA
:1021C0002B6E38EC05F0285000017A6F29507B6F98
:1021D0002A507C6F2B507D6F3E0E2D6E0A0E2E6E98
:1021E000190E2F6E420E306E7A51286E7B51296E79
:1021F0007C512A6E7D512B6ED5EC05F028500001E4
:102200007E6F29507F6F2A50806F2B50816F2D6A0F
:102210002E6A280E2F6E440E306E7E51286E7F512E
:10222000296E80512A6E81512B6E3AEC05F01EEC1E
:1022300006F032500001826F3350836F3450846F48
:102240003550856F82513B6E83513C6E84513D6E9B
:1022500085513E6E56EF11F0726B736B5C0E746FAE
:10226000430E756F6E512D6E6F512E6E70512F6E25
:102270007151306E7251286E7351296E74512A6EED
:1022800075512B6E38EC05F02A342B34FF0BD890A7
:102290002BBED880D8B456EF11F0D8A056EF11F06D
:1022A000880E3B6E1D0E3C6E3D6A3E6A67EC06F082
:0422B0001CEF0FF020
:020000040030CA
:0E0000005D087F7F008991000FC00FE00F4068
:00000001FF
