:020000040000FA
:1008000002EF04F047EF06F00000000000000000D7
:100810000202020202020202060606060606060698
:100820000606060606060606040404040404040478
:1008300000000000000000000C110C120C131C132F
:100840003C131C130C130C120C113C0D2C0A3C080D
:100850000C071C053C032C013C180C173C141C1302
:100860002C113C0F0C0E3C0A2C072C062C051C05E9
:100870003C041C052C052C062C073C0A0C0E3C0FD6
:100880002C111C133C140C170C002C013C031C05F0
:100890000C073C082C0A3C0D0C113C0D2C0A3C08A2
:1008A0000C071C053C032C013C180C173C141C13B2
:1008B0002C113C0F0C0E3C0A2C072C062C051C0599
:1008C0003C041C052C052C062C073C0A0C0E3C0F86
:1008D0002C111C133C140C170C002C013C031C05A0
:1008E0000C073C082C0A3C0D0C110C120C131C13A9
:1008F0003C131C130C130C1216501902F3501F6EEC
:10090000F450206E216A226A236A246A16501A0261
:10091000F3502026F4502122000E006E22220050B7
:1009200023220050242216501B02F3502126F4509B
:100930002222000E006E23220050242216501C0298
:10094000F3502226F4502322000E006E242216506B
:100950001D02F3502326F450242216501E02F35099
:10096000242617501902F3502026F4502122000E9D
:10097000006E2222005023220050242217501A0217
:10098000F3502126F4502222000E006E2322005044
:10099000242217501B02F3502226F4502322000E6B
:1009A000006E242217501C02F3502326F4502422F8
:1009B00017501D02F350242618501902F350212617
:1009C000F4502222000E006E2322005024221850E0
:1009D0001A02F3502226F4502322000E006E242225
:1009E00018501B02F3502326F450242218501C02E6
:1009F000F35024261200200E266E1A6A1B6A1C6A07
:100A00001D6AD8902236233624362536D8901636DD
:100A10001736183619361A361B361C361D361D5039
:100A2000215CD8A420EF05F01C50205CD8A420EF56
:100A300005F01B501F5CD8A420EF05F01A501E5C77
:100A4000D8B426EF05F0D8B034EF05F0D8801A50AE
:100A50001E541A6E1B501F541B6E1C5020541C6ECB
:100A60001D5021541D6E2280262E01EF05F012002C
:100A7000800E301A2A342B34FF0BD8A449EF05F02E
:100A80002D50286E2E50296E2F502A6E30502B6E0E
:100A900012002C6E2F343034FF0BD8B41200316E9C
:100AA0002C5CD8B485EF05F0D8A068EF05F0E90F0D
:100AB000D8B012002A8E2F8E170FD8902F322E32D8
:100AC0002D32312AFF0FD8A45DEF05F087EF05F036
:100AD0002C50315CE90FD8A077EF05F02D50286E2F
:100AE0002E50296E2F502A6E30502B6E12002A8EF7
:100AF0002F8E170FD8902A32293228322C2AFF0F36
:100B0000D8A47AEF05F087EF05F02A8E2F8E2B50B0
:100B10003018800BD8B495EF05F02D1E2E1E2F1E19
:100B20002D2AD8B42E2AD8B42F2A2D5028262E505C
:100B300029222F502A222B503018800BD8B4B3EF23
:100B400005F0D8B0BAEF05F0281E291E2A1E282A63
:100B5000D8B4292AD8B42A2A2B502B8E800BD8A49B
:100B60002B9EBAEF05F0D8A0BAEF05F02A32293251
:100B700028322C2A285029102A10D8A4C2EF05F0B8
:100B80002B6A1200C9EF05F0D890283629362A368C
:100B90002C062AAEC4EF05F02A9E800E2B16D890A4
:100BA0002C302B12D8B02A8E12002A342B34FF0B93
:100BB000D8B412002C6E2F343034FF0BD8A4E6EFDB
:100BC00005F0286A296A2A6A2B6A1200810F2C26EE
:100BD00030502B18800B2B6E2A8E2F8E2850166EBD
:100BE0002950176E2A50186E2D50196E2E501A6EFD
:100BF0002F501B6E1C6A1D6A1E6A7CEC04F024AE2A
:100C000005EF06F02C2A11EF06F02C06D8902C2ABE
:100C10001F362036213622362336243624AE06EF00
:100C200006F02250286E2350296E24507F0B2A6E26
:100C3000D8902C30D8B02A8E2B121200326A336A28
:100C4000346A356A2A342B34FF0BD8B41200820F71
:100C5000D8A01200D8B412002A8E2C6ED890283654
:100C600029362A3632363336343635362C2E2EEFA8
:100C700006F02BAE1200321E331E341E351E322AF1
:100C8000D8B4332AD8B4342AD8B4352A1200180E6E
:100C9000CB6E070ECA6E0F015D6B5C6BC26AC16AD8
:100CA000926A5B0E936E130E5B6F946A896A080EEC
:100CB0008A6E8B6A400E9B6E366A376A386A396A6A
:100CC0003A6A3B6A3C6A3D6A3E6AC9EF0EF03750A9
:100CD0003B5C166E38503C5C161239503D5C161267
:100CE0003A503E5C1610D8B44AEF07F0300E1E6E34
:100CF0001F6A206A216A3750166E3850176E3950B5
:100D0000186E3A50196EFBEC04F01A50366E080E4D
:100D1000F66E080EF76E000EF86E3650F626000ED0
:100D2000006EF7220050F8220900F550896ED89025
:100D300036340001836F380EF66E080EF76E000E23
:100D4000F86E8351F626000E006EF7220050F8224E
:100D50000900F550186E0900F550196E166E176AE5
:100D600016500F01516FD89036340001836F980EE2
:100D7000F66E080EF76E000EF86E8351F626000E22
:100D8000006EF7220050F8220900F550186E090095
:100D9000F550196E166E176A16500F01486FD890ED
:100DA00036340001836F380EF66E080EF76E000EB3
:100DB000F86E8351F626000E006EF7220050F822DE
:100DC0000900F550166E0900F550176E16500F0108
:100DD000506FD89036340001836F980EF66E080E6F
:100DE000F76E000EF86E8351F626000E006EF722A5
:100DF0000050F8220900F550166E0900F550176EE4
:100E000016500F01476F3A503E5CD8A414EF07F01C
:100E100039503D5CD8A414EF07F038503C5CD8A49E
:100E200014EF07F037503B5CD8B423EF07F0D8A09D
:100E300023EF07F0372AD8B4382AD8B4392AD8B4DF
:100E40003A2A42EF07F03A503E5CD8A434EF07F05C
:100E500039503D5CD8A434EF07F038503C5CD8A43E
:100E600034EF07F037503B5CD8B442EF07F0D8B00E
:100E700042EF07F0010E375ED8A0385ED8A0395E89
:100E8000D8A03A5E00014F0E166E162E45EF07F001
:100E900067EF06F01200800E6F6E6E38166E163217
:100EA000070E1616040E165CD8A44DEF07F0500E70
:100EB000726E0E017D6B020E436FAC0E446F030E1B
:100EC000456FFA6BFB6BFF0EF86FE00EF96F796BF5
:100ED0007A6B7B6B7C6B466B476BFF0E716FFF0E03
:100EE000726FFF0E736FFF0E746FFF0E756FFF0E44
:100EF000766FFF0E776FFF0E786F12000E0146516E
:100F0000D8A4A2EF07F0000183513F6E8451406ED8
:100F10000E01E26BE36BD8904030176E3F30166ED7
:100F2000D89017321632D890173216321650E06F1A
:100F30003F38F00BE16FD890E137F00E716F010E82
:100F4000466F12004605D8A4C5EF07F00001835193
:100F5000416E8451426E0E01E66BE76BD8904230D1
:100F6000176E4130166ED89017321632D89017325D
:100F700016321650E46F4138F00BE56FD890E53724
:100F8000100E716F030E466F1200030E465DD8A45B
:100F9000E9EF07F000018351436E8451446E0E0166
:100FA000EA6BEB6BD8904430176E4330166ED890D6
:100FB00017321632D890173216321650E86F43386F
:100FC000F00BE96FD890E937F20E726F070E466F9B
:100FD0001200070E465DD8A40DEF08F00001835102
:100FE000456E8451466E0E01EE6BEF6BD890463025
:100FF000176E4530166ED89017321632D8901732C9
:1010000016321650EC6F4538F00BED6FD890ED3777
:10101000320E726F0F0E466F12000F0E465DD8A48F
:1010200031EF08F000018351476E8451486E0E0184
:10103000F26BF36BD8904830176E4730166ED8902D
:1010400017321632D890173216321650F06F4738D2
:10105000F00BF16FD890F137F40E736F1F0E466FDF
:1010600012001F0E465DD8A455EF08F00001835111
:10107000496E84514A6E0E01F66BF76BD8904A3078
:10108000176E4930166ED89017321632D890173234
:1010900016321650F46F4938F00BF56FD890F537CB
:1010A000540E736F3F0E466F12003F0E465DD8A47C
:1010B00079EF08F0000183514B6E84514C6E0E01A4
:1010C0004A6B4B6BD8904C30176E4B30166ED890E5
:1010D00017321632D890173216321650486F4B38E6
:1010E000F00B496FD8904937F60E746F7F0E466F3C
:1010F00012007F0E465DD8A49DEF08F000018351D9
:101100004D6E84514E6E0E014E6B4F6BD8904E302B
:10111000176E4D30166ED89017321632D89017329F
:10112000163216504C6F4D38F00B4D6FD8904D372E
:10113000760E746FFF0E466F12004751D8A4C0EFB1
:1011400008F0000183514F6E8451506E0E01526BB6
:10115000536BD8905030176E4F30166ED8901732B0
:101160001632D890173216321650506F4F38F00B97
:10117000516FD8905137F00E756F010E476F120006
:101180004705D8A4E3EF08F000018351516E845164
:10119000526E0E01566B576BD8905230176E51300D
:1011A000166ED89017321632D89017321632165063
:1011B000546F5138F00B556FD8905537100E756F2E
:1011C000030E476F1200030E475DD8A407EF09F026
:1011D00000018351536E8451546E0E015A6B5B6B48
:1011E000D8905430176E5330166ED890173216328E
:1011F000D890173216321650586F5338F00B596F7B
:10120000D8905937F20E766F070E476F1200070E0F
:10121000475DD8A42BEF09F000018351556E84512E
:10122000566E0E015E6B5F6BD8905630176E553060
:10123000166ED89017321632D890173216321650D2
:101240005C6F5538F00B5D6FD8905D37320E766F5E
:101250000F0E476F12000F0E475DD8A44FEF09F035
:1012600000018351576E8451586E0E01626B636B9F
:10127000D8905830176E5730166ED89017321632F5
:10128000D890173216321650606F5738F00B616FD6
:10129000D8906137F40E776F1F0E476F12001F0E44
:1012A000475DD8A473EF09F000018351596E845152
:1012B0005A6E0E01666B676BD8905A30176E5930B4
:1012C000166ED89017321632D89017321632165042
:1012D000646F5938F00B656FD8906537540E776F8F
:1012E0003F0E476F12003F0E475DD8A497EF09F0FD
:1012F000000183515B6E84515C6E0E016A6B6B6BF7
:10130000D8905C30176E5B30166ED890173216325C
:10131000D890173216321650686F5B38F00B696F31
:10132000D8906937F60E786F7F0E476F12007F0EE8
:10133000475DD8A4BAEF09F0000183515D6E845176
:101340005E6E0E016E6B6F6BD8905E30176E5D3007
:10135000166ED89017321632D890173216321650B1
:101360006C6F5D38F00B6D6FD8906D37760E786FBF
:10137000FF0E476F1200606A0F01306B0E01806B29
:10138000906BA06BB06BC06BD06B200E706E6F6AF1
:101390006E38166E1632070E16161650D8A4C8EF01
:1013A00009F01200A26BA36BA46BA56BA66BA76BD5
:1013B000A86BA96BAA6BAB6BAC6B6150AD6FAE6BDE
:1013C000D890AD35AF6FAE35B06FD890AF37B0377E
:1013D000D890AF37B0376250B16FB26BD890B2319E
:1013E000B46FB131B36F040E166ED890B433B3330B
:1013F000162EF5EF09F0B351AF11B56FB451B0111E
:10140000B66FA051B55D166EA151B65D1610BF91B5
:10141000D8B4BF81BF8360BEBFA1BF93BFA34AEF53
:101420000AF06150B76FB86BD890B735B96FB8355F
:10143000BA6FD890B937BA37D890B937BA3762503F
:10144000BB6FBC6BD890BC31BE6FBB31BD6F040E9F
:10145000166ED890BE33BD33162E29EF0AF0BD515B
:10146000B911A26FBE51BA11A36F6550A46F665037
:10147000A56F6750A66F6850A76F6950A86F6A5034
:10148000A96F6B50AA6F6C50AB6F6D50AC6F609EC4
:1014900023EF0EF00F0131510001AD6FAE6BD8900C
:1014A000AD35AF6FAE35B06FD890AF37B037D8909D
:1014B000AF37B0370F0132510001B16FB26BD89026
:1014C000B231B46FB131B36F040E166ED890B4332D
:1014D000B333162E66EF0AF0B351AF11B56FB451A6
:1014E000B011B66FA051B55D166EA151B65D161064
:1014F000BF95D8B4BF85BF970F0130AF83EF0AF017
:101500000001BFB5BF870001BFA7D7EF0AF00F01E9
:1015100031510001B76FB86BD890B735B96FB83596
:10152000BA6FD890B937BA37D890B937BA370F01F0
:1015300032510001BB6FBC6BD890BC31BE6FBB3168
:10154000BD6F040E166ED890BE33BD33162EA3EFBA
:101550000AF0BD51B911A26FBE51BA11A36F0F01AC
:1015600035510001A46F0F0136510001A56F0F0125
:1015700037510001A66F0F0138510001A76F0F010D
:1015800039510001A86F0F013A510001A96F0F01F5
:101590003B510001AA6F0F013C510001AB6F0F01DD
:1015A0003D510001AC6F0F01309F23EF0EF00E0193
:1015B00081510001AD6FAE6BD890AD35AF6FAE35D8
:1015C000B06FD890AF37B037D890AF37B0370E0183
:1015D00082510001B16FB26BD890B231B46FB131AA
:1015E000B36F040E166ED890B433B333162EF3EFE8
:1015F0000AF0B351AF11B56FB451B011B66FA0512D
:10160000B55D166EA151B65D1610BF99D8B4BF89ED
:10161000BF9B0E0180AF10EF0BF00001BFB9BF8B75
:101620000001BFAB64EF0BF00E0181510001B76FF9
:10163000B86BD890B735B96FB835BA6FD890B9379D
:10164000BA37D890B937BA370E0182510001BB6F53
:10165000BC6BD890BC31BE6FBB31BD6F040E166E33
:10166000D890BE33BD33162E30EF0BF0BD51B911FB
:10167000A26FBE51BA11A36F0E0185510001A46F74
:101680000E0186510001A56F0E0187510001A66F62
:101690000E0188510001A76F0E0189510001A86F4A
:1016A0000E018A510001A96F0E018B510001AA6F32
:1016B0000E018C510001AB6F0E018D510001AC6F1A
:1016C0000E01809F23EF0EF00E0191510001AD6FCE
:1016D000AE6BD890AD35AF6FAE35B06FD890AF3739
:1016E000B037D890AF37B0370E0192510001B16FCB
:1016F000B26BD890B231B46FB131B36F040E166EC5
:10170000D890B433B333162E80EF0BF0B351AF1132
:10171000B56FB451B011B66FA051B55D166EA15141
:10172000B65D1610BF9DD8B4BF8DBF9F0E0190AFA0
:101730009DEF0BF00001BFBDBF8F0001BFAFF1EF08
:101740000BF00E0191510001B76FB86BD890B7350F
:10175000B96FB835BA6FD890B937BA37D890B937AA
:10176000BA370E0192510001BB6FBC6BD890BC31EF
:10177000BE6FBB31BD6F040E166ED890BE33BD3345
:10178000162EBDEF0BF0BD51B911A26FBE51BA11AB
:10179000A36F0E0195510001A46F0E019651000137
:1017A000A56F0E0197510001A66F0E01985100011F
:1017B000A76F0E0199510001A86F0E019A51000107
:1017C000A96F0E019B510001AA6F0E019C510001EF
:1017D000AB6F0E019D510001AC6F0E01909F23EF86
:1017E0000EF00E01A1510001AD6FAE6BD890AD357A
:1017F000AF6FAE35B06FD890AF37B037D890AF3746
:10180000B0370E01A2510001B16FB26BD890B23166
:10181000B46FB131B36F040E166ED890B433B333D6
:10182000162E0DEF0CF0B351AF11B56FB451B011CE
:10183000B66FA051B55D166EA151B65D1610C09180
:10184000D8B4C081C0930E01A0AF2AEF0CF0000104
:10185000C0B1C0830001C0A37EEF0CF00E01A15106
:101860000001B76FB86BD890B735B96FB835BA6F9C
:10187000D890B937BA37D890B937BA370E01A251D4
:101880000001BB6FBC6BD890BC31BE6FBB31BD6F6C
:10189000040E166ED890BE33BD33162E4AEF0CF0F0
:1018A000BD51B911A26FBE51BA11A36F0E01A5515E
:1018B0000001A46F0E01A6510001A56F0E01A751F2
:1018C0000001A66F0E01A8510001A76F0E01A951DA
:1018D0000001A86F0E01AA510001A96F0E01AB51C2
:1018E0000001AA6F0E01AC510001AB6F0E01AD51AA
:1018F0000001AC6F0E01A09F23EF0EF00E01B1515D
:101900000001AD6FAE6BD890AD35AF6FAE35B06F37
:10191000D890AF37B037D890AF37B0370E01B2514B
:101920000001B16FB26BD890B231B46FB131B36F07
:10193000040E166ED890B433B333162E9AEF0CF013
:10194000B351AF11B56FB451B011B66FA051B55DC1
:10195000166EA151B65D1610C095D8B4C085C0975B
:101960000E01B0AFB7EF0CF00001C0B5C0870001A9
:10197000C0A70BEF0DF00E01B1510001B76FB86BAE
:10198000D890B735B96FB835BA6FD890B937BA377C
:10199000D890B937BA370E01B2510001BB6FBC6B9A
:1019A000D890BC31BE6FBB31BD6F040E166ED8909F
:1019B000BE33BD33162ED7EF0CF0BD51B911A26F57
:1019C000BE51BA11A36F0E01B5510001A46F0E01F3
:1019D000B6510001A56F0E01B7510001A66F0E01AF
:1019E000B8510001A76F0E01B9510001A86F0E0197
:1019F000BA510001A96F0E01BB510001AA6F0E017F
:101A0000BC510001AB6F0E01BD510001AC6F0E0166
:101A1000B09F23EF0EF00E01C1510001AD6FAE6B10
:101A2000D890AD35AF6FAE35B06FD890AF37B03717
:101A3000D890AF37B0370E01C2510001B16FB26B11
:101A4000D890B231B46FB131B36F040E166ED89026
:101A5000B433B333162E27EF0DF0B351AF11B56F7A
:101A6000B451B011B66FA051B55D166EA151B65DFF
:101A70001610C099D8B4C089C09B0E01C0AF44EF06
:101A80000DF00001C0B9C08B0001C0AB98EF0DF0A4
:101A90000E01C1510001B76FB86BD890B735B96F5F
:101AA000B835BA6FD890B937BA37D890B937BA378E
:101AB0000E01C2510001BB6FBC6BD890BC31BE6F30
:101AC000BB31BD6F040E166ED890BE33BD33162EDB
:101AD00064EF0DF0BD51B911A26FBE51BA11A36FE1
:101AE0000E01C5510001A46F0E01C6510001A56F82
:101AF0000E01C7510001A66F0E01C8510001A76F6A
:101B00000E01C9510001A86F0E01CA510001A96F51
:101B10000E01CB510001AA6F0E01CC510001AB6F39
:101B20000E01CD510001AC6F0E01C09F23EF0EF0EE
:101B30000E01D1510001AD6FAE6BD890AD35AF6FD6
:101B4000AE35B06FD890AF37B037D890AF37B03729
:101B50000E01D2510001B16FB26BD890B231B46FA7
:101B6000B131B36F040E166ED890B433B333162E62
:101B7000B4EF0DF0B351AF11B56FB451B011B66FF2
:101B8000A051B55D166EA151B65D1610C09DD8B4BA
:101B9000C08DC09F0E01D0AFD1EF0DF00001C0BDD0
:101BA000C08F0001C0AF23EF0EF00E01D151000134
:101BB000B76FB86BD890B735B96FB835BA6FD890E2
:101BC000B937BA37D890B937BA370E01D2510001B8
:101BD000BB6FBC6BD890BC31BE6FBB31BD6F040E08
:101BE000166ED890BE33BD33162EF1EF0DF0BD51F9
:101BF000B911A26FBE51BA11A36F0E01D5510001E8
:101C0000A46F0E01D6510001A56F0E01D75100013E
:101C1000A66F0E01D8510001A76F0E01D951000126
:101C2000A86F0E01DA510001A96F0E01DB5100010E
:101C3000AA6F0E01DC510001AB6F0E01DD510001F6
:101C4000AC6F0E01D09F0001A251166EA351176E0A
:101C5000A451186EA551196EA6511A6EA7511B6E8C
:101C6000A8511C6EA9511D6EAA511E6EAB511F6E5C
:101C7000AC51206E12008A519C6F8B519B6F8C511E
:101C80009A6F8D51996F9951166E9A51176E9B519B
:101C9000186E9C51196E12008A519C6F8B519B6F6C
:101CA0008C519A6F8D51996F9951166E9A51176E8A
:101CB0009B51186E9C51196E1200010EA06FA16B02
:101CC000D2EC09F0165000018E6F17508F6F18502C
:101CD000906F1950916F1A50926F1B50936F1C5058
:101CE000946F1D50956F1E50966F1F50976F205028
:101CF000986F90519D81D8B49D919151835D9D9332
:101D0000D8B49D839D859DB19DA39D959251845D81
:101D10009D97D8B49D879D899DB59DA79D99935109
:101D2000855D9D9BD8B49D8B9D8D9DB99DAB9D9DE3
:101D30009451865D9D9FD8B49D8F9E819DBD9DAF22
:101D40009E919551875D9E93D8B49E839E859EB14A
:101D50009EA39E959651885D9E97D8B49E879E8936
:101D60009EB59EA79E999751895D9E9BD8B49E8BE8
:101D70009E8D9EB99EAB9E9D98518A5D9E9FD8B4C4
:101D80009E8F9F819EBD9EAF9F919FB100EF00F0FF
:101D9000120000016E6B6F6B706B716B00018E0E29
:101DA000166EA70E176EA70E186E182ED5EF0EF032
:101DB000172ED3EF0EF0162ED1EF0EF0000000001C
:101DC00000008B808B82376A386A396A3A6A880EDB
:101DD0003B6E1D0E3C6E3D6A3E6A67EC06F0880E57
:101DE000376E1D0E386E396A3A6A3B6A3C6A3D6A44
:101DF0003E6A67EC06F0376A386A396A3A6A3B6AC3
:101E00003C6A3D6A3E6A4BEC07F0010E0001836FAD
:101E1000846B7EEC07F0D20E0001836F846B7EEC46
:101E200007F0AE0E0001836F010E846F7EEC07F0A9
:101E3000BBEC09F08B908B92660E0001836F6C0EE9
:101E4000846F700E856F5F0E866F300E876F886FA0
:101E5000896F8A6F5DEC0EF0D20E0001A06FA16B4E
:101E6000D2EC09F0165000015F6F1750606F1850E8
:101E7000616F1950626F1A50636F1B50646F1C5072
:101E8000656F1D50666F1E50676F1F50686F205042
:101E9000696F6151D8B484EF0FF05F51836F605167
:101EA000846F6151856F6251866F6351876F645192
:101EB000886F6551896F66518A6F67518B6F685162
:101EC0008C6F69518D6F4CEC0EF0165000016A6FEB
:101ED00017506B6F18506C6F19506D6F010E6A15AB
:101EE000166E1650D8B478EF0FF08B8079EF0FF0A4
:101EF0008B90010E6A15166E1650D8B483EF0FF052
:101F00008B8284EF0FF08B92AE0EA06F010EA16F4B
:101F1000D2EC09F0165000015F6F1750606F185037
:101F2000616F1950626F1A50636F1B50646F1C50C1
:101F3000656F1D50666F1E50676F1F50686F205091
:101F4000696F6151D8B41CEF0FF05F51836F60511E
:101F5000846F6151856F6251866F6351876F6451E1
:101F6000886F6551896F66518A6F67518B6F6851B1
:101F70008C6F69518D6F3BEC0EF0165000016E6F47
:101F800017506F6F1850706F1950716F726B736BC1
:101F9000746B756B72512D6E73512E6E74512F6E62
:101FA0007551306E6E51286E6F51296E70512A6EC8
:101FB00071512B6E38EC05F02A342B34FF0BD8907E
:101FC0002BBED880D8B4E8EF0FF0D8A0EEEF0FF01A
:101FD0003B6A3C6A3D6A3E6A96EF10F00001726B04
:101FE000736B746B756B6E512D6E6F512E6E7051DD
:101FF0002F6E7151306E7251286E7351296E74516B
:102000002A6E75512B6E38EC05F02C6A2A342B346D
:10201000FF0BD8B40EEF10F02BBE2C2A2C50000171
:102020008297D8A48287766B776BF00E786F410E1B
:10203000796F76512D6E77512E6E78512F6E7951C2
:10204000306E6E51286E6F51296E70512A6E71512B
:102050002B6E38EC05F02C6A2A342B34FF0B2BBE88
:10206000D884D8B42C2A2C5000018299D8A4828913
:10207000828B82B782A9829B82AB6CEF10F07A6B65
:102080007B6B900E7C6F420E7D6F7A512D6E7B5173
:102090002E6E7C512F6E7D51306E6E51286E6F51B9
:1020A000296E70512A6E71512B6ED5EC05F01EEC25
:1020B00006F0325000017E6F33507F6F3450806FD6
:1020C0003550816F7E513B6E7F513C6E80513D6E2D
:1020D00081513E6E96EF10F0726B736BF00E746F61
:1020E000410E756F6E512D6E6F512E6E70512F6EA9
:1020F0007151306E7251286E7351296E74512A6E6F
:1021000075512B6E38EC05F02A342B34FF0BD89028
:102110002BBED880D8B490EF10F0D8A096EF10F076
:10212000700E3B6E080E3C6E3D6A3E6A67EC06F030
:042130001CEF0FF0A1
:020000040030CA
:0E0000005D087F7F008991000FC00FE00F4068
:00000001FF
