:020000040000FA
:1008000002EF04F000017D6B7E6B0F015D6B5C6B92
:10081000C26AC16AC06A5F6B5E6B916AF26AF16A12
:10082000F06A896A926A8A6A080E936EF30E5B6FA9
:100830008B6A946A8C6A956A8D6A080E966EC00EF1
:10084000566F400E9B6E45EF10F001010B6F050EC9
:100850000B5DD8A435EF04F0959E0C51D8B433EF5E
:1008600004F08C8E12008C9E1200060E0B5DD8A434
:1008700043EF04F0959C0C51D8B441EF04F08C8CFC
:1008800012008C9C1200070E0B5DD8A451EF04F0EF
:10089000959A0C51D8B44FEF04F08C8A12008C9AC0
:1008A0001200080E0B5DD8A45FEF04F095980C5170
:1008B000D8B45DEF04F08C8812008C981200090EF9
:1008C0000B5DD8A46DEF04F095960C51D8B46BEF86
:1008D00004F08C8612008C9612000A0E0B5DD8A4D0
:1008E0007BEF04F095940C51D8B479EF04F08C842C
:1008F00012008C9412000B0E0B5DD8A489EF04F04B
:1009000095920C51D8B487EF04F08C8212008C922F
:1009100012000C0E0B5DD8A497EF04F095900C51CB
:10092000D8B495EF04F08C8012008C9012000D0E5C
:100930000B5DD8A4A5EF04F0939E0C51D8B4A3EF9F
:1009400004F08A8E12008A9E12000E0E0B5DD8A44F
:10095000B3EF04F0939C0C51D8B4B1EF04F08A8C3F
:1009600012008A9C12000F0E0B5DD8A4C1EF04F098
:10097000939A0C51D8B4BFEF04F08A8A12008A9A75
:100980001200100E0B5DD8A4CFEF04F093980C5119
:10099000D8B4CDEF04F08A8812008A981200110EA4
:1009A0000B5DD8A4DDEF04F093920C51D8B4DBEFCB
:1009B00004F08A8212008A921200120E0B5DD8A4F3
:1009C000EBEF04F093900C51D8B4E9EF04F08A8077
:1009D00012008A901200150E0B5DD8A4F9EF04F0F6
:1009E00096900C51D8B4F7EF04F08D8012008D90E2
:1009F0001200160E0B5DD8A407EF05F096920C516D
:100A0000D8B405EF05F08D8212008D921200170EFA
:100A10000B5DD8A415EF05F096940C51D8B413EFE4
:100A200005F08D8412008D941200180E0B5DD8A471
:100A300023EF05F092900C51D8B421EF05F0898096
:100A4000120089901200190E0B5DD8A431EF05F049
:100A500092920C51D8B42FEF05F08982120089923E
:100A600012001A0E0B5DD8A43FEF05F092940C51C2
:100A7000D8B43DEF05F089841200899412001B0E52
:100A80000B5DD8A44DEF05F092960C51D8B44BEF06
:100A900005F089861200899612001C0E0B5DD8A401
:100AA0005BEF05F0929A0C51D8B459EF05F0898AA2
:100AB0001200899A12001D0E0B5DD8A469EF05F093
:100AC00094900C51D8B467EF05F08B8012008B9096
:100AD00012001E0E0B5DD8A477EF05F094920C5116
:100AE000D8B475EF05F08B8212008B9212001F0EA6
:100AF0000B5DD8A485EF05F094940C51D8B483EF26
:100B000005F08B8412008B941200200E0B5DD8A48C
:100B100093EF05F094960C51D8B491EF05F08B86C5
:100B200012008B961200210E0B5DD8A4A1EF05F0E8
:100B300094980C51D8B49FEF05F08B8812008B98D5
:100B40001200220E0B5DD8A4AFEF05F0949A0C5161
:100B5000D8B4ADEF05F08B8A12008B9A1200230EE9
:100B60000B5DD8A4BDEF05F0949C0C51D8B4BBEF3D
:100B700005F08B8C12008B9C1200240E0B5DD8A408
:100B8000CAEF05F0949E0C51D8B4C9EF05F08B8ED6
:100B900012008B9E120001010B6F050E0B5DD8A495
:100BA000D8EF05F0958E00015A9183BE5A8112004C
:100BB000060E0B5DD8A4E3EF05F0958C00015A9169
:100BC00083BC5A811200070E0B5DD8A4EEEF05F02E
:100BD000958A00015A9183BA5A811200080E0B5D62
:100BE000D8A4F9EF05F0958800015A9183B85A818D
:100BF0001200090E0B5DD8A404EF06F095860001E3
:100C00005A9183B65A8112000A0E0B5DD8A40FEFD9
:100C100006F0958400015A9183B45A8112000B0E9C
:100C20000B5DD8A41AEF06F0958200015A9183B2A9
:100C30005A8112000C0E0B5DD8A425EF06F09580AA
:100C400000015A9183B05A8112000D0E0B5DD8A499
:100C500030EF06F0938E00015A9181BE5A81120046
:100C60000E0E0B5DD8A43BEF06F0938C00015A9159
:100C700081BC5A8112000F0E0B5DD8A446EF06F01E
:100C8000938A00015A9181BA5A811200100E0B5DAD
:100C9000D8A451EF06F0938800015A9181B85A8187
:100CA0001200110E0B5DD8A45CEF06F093820001D8
:100CB0005A9181B25A811200120E0B5DD8A467EFCF
:100CC00006F0938000015A9181B05A811200140EEF
:100CD0000B5DD8A471EF06F000015A9184B65A81D9
:100CE0001200170E0B5DD8A47CEF06F0968400016D
:100CF0005A9184B45A81120000015A911200800E58
:100D00006F6E6E385A6F5A33070E5A17040E5A5DBB
:100D1000D8A481EF06F0500E726E0E017D6B020EAC
:100D2000436FAC0E446F030E456FFA6BFB6BFF0E07
:100D3000F86FE00EF96F796B7A6B7B6B7C6B466BAF
:100D4000476BFF0E716FFF0E726FFF0E736FFF0E1A
:100D5000746FFF0E756FFF0E766FFF0E776FFF0ECD
:100D6000786F12000E014651D8A4DAEF06F00001A8
:100D7000AF517F6FB051806F0E01E26BE36BD89083
:100D8000000180315B6F7F315A6FD8905B335A33EB
:100D9000D8905B335A335A510E01E06F00017F390E
:100DA000F00B0E01E16FD890E137F00E716F010E7C
:100DB000466F12004605D8A401EF07F00001AF51BD
:100DC000816FB051826F0E01E66BE76BD890000126
:100DD00082315B6F81315A6FD8905B335A33D89030
:100DE0005B335A335A510E01E46F00018139F00B25
:100DF0000E01E56FD890E537100E716F030E466F48
:100E00001200030E465DD8A429EF07F00001AF5190
:100E1000836FB051846F0E01EA6BEB6BD8900001C9
:100E200084315B6F83315A6FD8905B335A33D890DB
:100E30005B335A335A510E01E86F00018339F00BCE
:100E40000E01E96FD890E937F20E726F070E466F08
:100E50001200070E465DD8A451EF07F00001AF5114
:100E6000856FB051866F0E01EE6BEF6BD89000016D
:100E700086315B6F85315A6FD8905B335A33D89087
:100E80005B335A335A510E01EC6F00018539F00B78
:100E90000E01ED6FD890ED37320E726F0F0E466F68
:100EA00012000F0E465DD8A479EF07F00001AF5194
:100EB000876FB051886F0E01F26BF36BD890000111
:100EC00088315B6F87315A6FD8905B335A33D89033
:100ED0005B335A335A510E01F06F00018739F00B22
:100EE0000E01F16FD890F137F40E736F1F0E466F3D
:100EF00012001F0E465DD8A4A1EF07F00001AF510C
:100F0000896FB0518A6F0E01F66BF76BD8900001B4
:100F10008A315B6F89315A6FD8905B335A33D890DE
:100F20005B335A335A510E01F46F00018939F00BCB
:100F30000E01F56FD890F537540E736F3F0E466F64
:100F400012003F0E465DD8A4C9EF07F00001AF5173
:100F50008B6FB0518C6F0E014A6B4B6BD8900001B8
:100F60008C315B6F8B315A6FD8905B335A33D8908A
:100F70005B335A335A510E01486F00018B39F00B25
:100F80000E01496FD8904937F60E746F7F0E466F89
:100F900012007F0E465DD8A4F1EF07F00001AF51BB
:100FA0008D6FB0518E6F0E014E6B4F6BD89000015C
:100FB0008E315B6F8D315A6FD8905B335A33D89036
:100FC0005B335A335A510E014C6F00018D39F00BCF
:100FD0000E014D6FD8904D37760E746FFF0E466F31
:100FE00012004751D8A418EF08F00001AF518F6FDD
:100FF000B051906F0E01526B536BD890000190313D
:101000005B6F8F315A6FD8905B335A33D8905B3314
:101010005A335A510E01506F00018F39F00B0E01F7
:10102000516FD8905137F00E756F010E476F120057
:101030004705D8A43FEF08F00001AF51916FB051C0
:10104000926F0E01566B576BD890000192315B6F17
:1010500091315A6FD8905B335A33D8905B335A33FF
:101060005A510E01546F00019139F00B0E01556F6A
:10107000D8905537100E756F030E476F1200030E90
:10108000475DD8A467EF08F00001AF51936FB051EE
:10109000946F0E015A6B5B6BD890000194315B6FBB
:1010A00093315A6FD8905B335A33D8905B335A33AD
:1010B0005A510E01586F00019339F00B0E01596F10
:1010C000D8905937F20E766F070E476F1200070E51
:1010D000475DD8A48FEF08F00001AF51956FB05174
:1010E000966F0E015E6B5F6BD890000196315B6F5F
:1010F00095315A6FD8905B335A33D8905B335A335B
:101100005A510E015C6F00019539F00B0E015D6FB5
:10111000D8905D37320E766F0F0E476F12000F0EAC
:10112000475DD8A4B7EF08F00001AF51976FB051F9
:10113000986F0E01626B636BD890000198315B6F02
:1011400097315A6FD8905B335A33D8905B335A3308
:101150005A510E01606F00019739F00B0E01616F5B
:10116000D8906137F40E776F1F0E476F12001F0E75
:10117000475DD8A4DFEF08F00001AF51996FB0517F
:101180009A6F0E01666B676BD89000019A315B6FA6
:1011900099315A6FD8905B335A33D8905B335A33B6
:1011A0005A510E01646F00019939F00B0E01656F01
:1011B000D8906537540E776F3F0E476F12003F0E81
:1011C000475DD8A407EF09F00001AF519B6FB05104
:1011D0009C6F0E016A6B6B6BD89000019C315B6F4A
:1011E0009B315A6FD8905B335A33D8905B335A3364
:1011F0005A510E01686F00019B39F00B0E01696FA7
:10120000D8906937F60E786F7F0E476F12007F0E09
:10121000475DD8A42EEF09F00001AF519D6FB0518A
:101220009E6F0E016E6B6F6BD89000019E315B6FED
:101230009D315A6FD8905B335A33D8905B335A3311
:101240005A510E016C6F00019D39F00B0E016D6F4C
:10125000D8906D37760E786FFF0E476F1200606A78
:101260000F01306B0E01806B906BA06BB06BC06B8D
:10127000D06B200E706E6F6A6E3800015A6F5A3351
:10128000070E5A175A51D8A43CEF09F01200D89013
:10129000223100015B6F0101213100015A6FD890AA
:1012A0005B335A33D8905B335A335A510F01216F55
:1012B00001012139F00B0F01226FD8902237010173
:1012C00023510F01256F010124510F01266F0101E8
:1012D00025510F01276F010126510F01286F0101D0
:1012E00027510F01296F010128510F012A6F0101B8
:1012F00029510F012B6F01012A510F012C6F0101A0
:101300002B510F012D6F208720B784EF09F01200B9
:10131000F46FF0510101006F0001F1510101016F03
:10132000080E026F036B0B0E046F0001F4510101F4
:10133000056F00017D510101066F0001F8510101A7
:10134000076F0001F7510101086F0001F65101011B
:10135000096F0001F55101010A6F0051216F015120
:10136000226F0251236F0351246F0451256F0551E1
:10137000266F0651276F0751286F0851296F0951B1
:101380002A6F0A512B6F47EC09F0010E00017D25F1
:1013900001011F6F000ED8B0010E00017E25010172
:1013A000206F1F5100017D6F7E6B1200F56BF66B95
:1013B000F76BF86BF96BFA6BFB6BFC6BFD6BFE6B01
:1013C000FF6B615001010D6F0E6BD8900D350F6FE3
:1013D0000E35106FD8900F371037D8900F37103761
:1013E0006250116F126BD8901231146F1131136F5C
:1013F000040E00015A6FD890010114331333000119
:101400005A2FFBEF09F0010113510F11156F145101
:101410001011166F0001F2510101155D00015A6FA4
:10142000F3510101165D00015A1101012C91D8B44C
:101430002C812C8360BE2CA12C932CA360EF0AF08E
:101440006150176F186BD8901735196F18351A6FD0
:10145000D89019371A37D89019371A3762501B6F3E
:101460001C6BD8901C311E6F1B311D6F040E0001C8
:101470005A6FD89001011E331D3300015A2F39EFE6
:101480000AF001011D5119110001F56F01011E51F2
:101490001A110001F66F6550F76F6650F86F6750CC
:1014A000F96F6850FA6F6950FB6F6A50FC6F6B50B0
:1014B000FD6F6C50FE6F6D50FF6F609EB0EF0EF0D1
:1014C0000F01315101010D6F0E6BD8900D350F6F6B
:1014D0000E35106FD8900F371037D8900F37103760
:1014E0000F0132510101116F126BD8901231146F3C
:1014F0001131136F040E00015A6FD890010114339B
:10150000133300015A2F7DEF0AF0010113510F111F
:10151000156F14511011166F0001F2510101155D84
:1015200000015A6FF3510101165D00015A110101CA
:101530002C95D8B42C852C970F0130AFA3EF0AF06F
:1015400001012CB52C8701012CA7FEEF0AF00F0139
:1015500031510101176F186BD8901735196F183575
:101560001A6FD89019371A37D89019371A370F01D0
:10157000325101011B6F1C6BD8901C311E6F1B3147
:101580001D6F040E00015A6FD89001011E331D33E8
:1015900000015A2FC4EF0AF001011D511911000179
:1015A000F56F01011E511A110001F66F0F0135513F
:1015B0000001F76F0F0136510001F86F0F0137512D
:1015C0000001F96F0F0138510001FA6F0F01395115
:1015D0000001FB6F0F013A510001FC6F0F013B51FD
:1015E0000001FD6F0F013C510001FE6F0F013D51E5
:1015F0000001FF6F0F01309FB0EF0EF00E0181511F
:1016000001010D6F0E6BD8900D350F6F0E35106FF9
:10161000D8900F371037D8900F3710370E018251FE
:101620000101116F126BD8901231146F1131136FC9
:10163000040E00015A6FD8900101143313330001D6
:101640005A2F1BEF0BF0010113510F11156F14519D
:101650001011166F0001F2510101155D00015A6F62
:10166000F3510101165D00015A1101012C99D8B402
:101670002C892C9B0E0180AF41EF0BF001012CB99E
:101680002C8B01012CAB9CEF0BF00E018151010161
:10169000176F186BD8901735196F18351A6FD890C7
:1016A00019371A37D89019371A370E0182510101AC
:1016B0001B6F1C6BD8901C311E6F1B311D6F040EED
:1016C00000015A6FD89001011E331D3300015A2FBB
:1016D00062EF0BF001011D5119110001F56F0101BD
:1016E0001E511A110001F66F0E0185510001F76FAE
:1016F0000E0186510001F86F0E0187510001F96F4C
:101700000E0188510001FA6F0E0189510001FB6F33
:101710000E018A510001FC6F0E018B510001FD6F1B
:101720000E018C510001FE6F0E018D510001FF6F03
:101730000E01809FB0EF0EF00E01915101010D6F6F
:101740000E6BD8900D350F6F0E35106FD8900F3788
:101750001037D8900F3710370E0192510101116FD9
:10176000126BD8901231146F1131136F040E0001F7
:101770005A6FD89001011433133300015A2FB9EF77
:101780000BF0010113510F11156F14511011166F49
:101790000001F2510101155D00015A6FF351010181
:1017A000165D00015A1101012C9DD8B42C8D2C9F7F
:1017B0000E0190AFDFEF0BF001012CBD2C8F01016A
:1017C0002CAF3AEF0CF00E0191510101176F186B1D
:1017D000D8901735196F18351A6FD89019371A37EE
:1017E000D89019371A370E01925101011B6F1C6BEB
:1017F000D8901C311E6F1B311D6F040E00015A6FF3
:10180000D89001011E331D3300015A2F00EF0CF058
:1018100001011D5119110001F56F01011E511A112D
:101820000001F66F0E0195510001F76F0E01965100
:101830000001F86F0E0197510001F96F0E019851E8
:101840000001FA6F0E0199510001FB6F0E019A51D0
:101850000001FC6F0E019B510001FD6F0E019C51B8
:101860000001FE6F0E019D510001FF6F0E01909F60
:10187000B0EF0EF00E01A15101010D6F0E6BD8906B
:101880000D350F6F0E35106FD8900F371037D89079
:101890000F3710370E01A2510101116F126BD89052
:1018A0001231146F1131136F040E00015A6FD8906A
:1018B00001011433133300015A2F57EF0CF00101CB
:1018C00013510F11156F14511011166F0001F251C1
:1018D0000101155D00015A6FF3510101165D000110
:1018E0005A1101012D91D8B42D812D930E01A0AF75
:1018F0007DEF0CF001012DB12D8301012DA3D8EF57
:101900000CF00E01A1510101176F186BD89017351B
:10191000196F18351A6FD89019371A37D8901937A8
:101920001A370E01A25101011B6F1C6BD8901C319C
:101930001E6F1B311D6F040E00015A6FD8900101FC
:101940001E331D3300015A2F9EEF0CF001011D5173
:1019500019110001F56F01011E511A110001F66FF6
:101960000E01A5510001F76F0E01A6510001F86F9D
:101970000E01A7510001F96F0E01A8510001FA6F85
:101980000E01A9510001FB6F0E01AA510001FC6F6D
:101990000E01AB510001FD6F0E01AC510001FE6F55
:1019A0000E01AD510001FF6F0E01A09FB0EF0EF0D0
:1019B0000E01B15101010D6F0E6BD8900D350F6FF7
:1019C0000E35106FD8900F371037D8900F3710376B
:1019D0000E01B2510101116F126BD8901231146FC8
:1019E0001131136F040E00015A6FD89001011433A6
:1019F000133300015A2FF5EF0CF0010113510F11B1
:101A0000156F14511011166F0001F2510101155D8F
:101A100000015A6FF3510101165D00015A110101D5
:101A20002D95D8B42D852D970E01B0AF1BEF0DF07D
:101A300001012DB52D8701012DA776EF0DF00E01C7
:101A4000B1510101176F186BD8901735196F183500
:101A50001A6FD89019371A37D89019371A370E01DC
:101A6000B25101011B6F1C6BD8901C311E6F1B31D2
:101A70001D6F040E00015A6FD89001011E331D33F3
:101A800000015A2F3CEF0DF001011D511911000109
:101A9000F56F01011E511A110001F66F0E01B551CB
:101AA0000001F76F0E01B6510001F86F0E01B7513A
:101AB0000001F96F0E01B8510001FA6F0E01B95122
:101AC0000001FB6F0E01BA510001FC6F0E01BB510A
:101AD0000001FD6F0E01BC510001FE6F0E01BD51F2
:101AE0000001FF6F0E01B09FB0EF0EF00E01C1516B
:101AF00001010D6F0E6BD8900D350F6F0E35106F05
:101B0000D8900F371037D8900F3710370E01C251C9
:101B10000101116F126BD8901231146F1131136FD4
:101B2000040E00015A6FD8900101143313330001E1
:101B30005A2F93EF0DF0010113510F11156F14512E
:101B40001011166F0001F2510101155D00015A6F6D
:101B5000F3510101165D00015A1101012D99D8B40C
:101B60002D892D9B0E01C0AFB9EF0DF001012DB9EC
:101B70002D8B01012DAB14EF0EF00E01C1510101AF
:101B8000176F186BD8901735196F18351A6FD890D2
:101B900019371A37D89019371A370E01C251010177
:101BA0001B6F1C6BD8901C311E6F1B311D6F040EF8
:101BB00000015A6FD89001011E331D3300015A2FC6
:101BC000DAEF0DF001011D5119110001F56F01014E
:101BD0001E511A110001F66F0E01C5510001F76F79
:101BE0000E01C6510001F86F0E01C7510001F96FD7
:101BF0000E01C8510001FA6F0E01C9510001FB6FBF
:101C00000E01CA510001FC6F0E01CB510001FD6FA6
:101C10000E01CC510001FE6F0E01CD510001FF6F8E
:101C20000E01C09FB0EF0EF00E01D15101010D6FFA
:101C30000E6BD8900D350F6F0E35106FD8900F3793
:101C40001037D8900F3710370E01D2510101116FA4
:101C5000126BD8901231146F1131136F040E000102
:101C60005A6FD89001011433133300015A2F31EF0A
:101C70000EF0010113510F11156F14511011166F51
:101C80000001F2510101155D00015A6FF35101018C
:101C9000165D00015A1101012D9DD8B42D8D2D9F87
:101CA0000E01D0AF57EF0EF001012DBD2D8F0101B8
:101CB0002DAFB0EF0EF00E01D1510101176F186B6F
:101CC000D8901735196F18351A6FD89019371A37F9
:101CD000D89019371A370E01D25101011B6F1C6BB6
:101CE000D8901C311E6F1B311D6F040E00015A6FFE
:101CF000D89001011E331D3300015A2F78EF0EF0EA
:101D000001011D5119110001F56F01011E511A1138
:101D10000001F66F0E01D5510001F76F0E01D6518B
:101D20000001F86F0E01D7510001F96F0E01D85173
:101D30000001FA6F0E01D9510001FB6F0E01DA515B
:101D40000001FC6F0E01DB510001FD6F0E01DC5143
:101D50000001FE6F0E01DD510001FF6F0E01D09FEB
:101D60000001F5515A6FF6515B6FF7515C6FF851F6
:101D70005D6FF9515E6FFA515F6FFB51606FFC51FF
:101D8000616FFD51626FFE51636FFF51646F12000E
:101D9000B651D86FB751D76FB851D66FB951D56F0B
:101DA000D5515A6FD6515B6FD7515C6FD8515D6F6B
:101DB0001200010EF26FF36BD6EC09F000015A51DC
:101DC000CA6F5B51CB6F5C51CC6F5D51CD6F5E5173
:101DD000CE6F5F51CF6F6051D06F6151D16F625143
:101DE000D26F6351D36F6451D46FCC51EC81D8B4AE
:101DF000EC91CD51AF5DEC93D8B4EC83EC85ECB1B4
:101E0000ECA3EC95CE51B05DEC97D8B4EC87EC899F
:101E1000ECB5ECA7EC99CF51B15DEC9BD8B4EC8B51
:101E2000EC8DECB9ECABEC9DD051B25DEC9FD8B42D
:101E3000EC8FED81ECBDECAFED91D151B35DED9345
:101E4000D8B4ED83ED85EDB1EDA3ED95D251B45D40
:101E5000ED97D8B4ED87ED89EDB5EDA7ED99D351A8
:101E6000B55DED9BD8B4ED8BED8DEDB9EDABED9D92
:101E7000D451B65DED9FD8B4ED8FEE81EDBDEDAFE1
:101E8000EE91EEB100EF00F01200AF6F01010C6BAC
:101E90000001C15125EC04F000015C0E5A6F6B0E7D
:101EA0005B6F5B2F51EF0FF05A2F4FEF0FF00000D9
:101EB0000000000000000000AF51D96FC051DA6F80
:101EC000C151DB6FD951CBEC05F0010E00015A1561
:101ED000DC6FDA51CBEC05F0010E00015A15DD6F15
:101EE000C251DE6FC351DF6FC451E06FC551E16F66
:101EF000C651E26FC751E36FC851E46FC951E56F36
:101F0000D551E66FD651E76FD751E86FD851E96FD9
:101F1000010E01010C6F0001C15125EC04F000011C
:101F2000D9515A6FDA515B6FDB515C6FDC515D6FD9
:101F3000DD515E6FDE515F6FDF51606FE051616FA9
:101F4000E151626FE251636FE351646FE451656F79
:101F5000E551666FE651676FE751686FE851696F49
:101F6000E9516A6F120001010C6B0001B15125ECBF
:101F700004F000015C0E5A6F6B0E5B6F5B2FBEEFBF
:101F80000FF05A2FBCEF0FF000000000000000001F
:101F90000000B251EA6FB351EB6FAF51CBEC05F0DB
:101FA000010E00015A15EC6FB051CBEC05F0010E9B
:101FB00000015A15EF6FEA51EC5DD8B4F3EF0FF062
:101FC000D8B0F3EF0FF0C80EF06FF16BB451F56FAE
:101FD000B551F66FB651F76FB751F86F010E88EC37
:101FE00009F039EF10F0EA51EC5DD8B40BEF10F0C6
:101FF000D8A00BEF10F0C80EF06FF16BB851F56F71
:10200000B951F66FBA51F76FBB51F86F010E88ECFA
:1020100009F039EF10F0EB51EF5DD8B423EF10F079
:10202000D8B023EF10F0C80EF06FF16BBC51F56F14
:10203000BD51F66FBE51F76FBF51F86F010E88ECBE
:1020400009F039EF10F0EB51EF5DD8B439EF10F033
:10205000D8A039EF10F0C80EF06FF16BB851F56FE2
:10206000B951F66FBA51F76FBB51F86F010E88EC9A
:1020700009F00001EC51B26FEF51B36F010E010195
:102080000C6F0001B15125EF04F000018E0E5A6F64
:10209000A70E5B6FA70E5C6F5C2F4CEF10F05B2FF1
:1020A0004AEF10F05A2F48EF10F000000000000037
:1020B0007FEC06F0010E0001AF6FB06BB2EC06F0E2
:1020C000D20E0001AF6FB06BB2EC06F02FEC09F04E
:1020D000010E01010C6F220E25EC04F00001470EE9
:1020E0005A6FA70E5B6FA70E5C6F5C2F75EF10F039
:1020F0005B2F73EF10F05A2F71EF10F0010E0101FA
:102100000C6F210E25EC04F00001470E5A6FA70E4C
:102110005B6FA70E5C6F5C2F8BEF10F05B2F89EF6E
:1021200010F05A2F87EF10F0010E01010C6F200EF6
:1021300025EC04F000018E0E5A6FA70E5B6FA70E00
:102140005C6F5C2FA1EF10F05B2F9FEF10F05A2F08
:102150009DEF10F000000000000001010C6B220E4A
:1021600025EC04F001010C6B210E25EC04F00101BB
:102170000C6B200E25EC04F0010E01010C6F150E06
:1021800025EC04F001010C6B160E25EC04F0080E92
:102190000001C06F130EC16F020EC26FC36BC46B20
:1021A000A90EC56FC66BC76BC86BA90EC96F010EB0
:1021B000D56FD66BD76BA90ED86F070E45EC0FF015
:1021C00000015A516C6F5B516D6F5C516E6F5D51C8
:1021D0006F6F5E51706F5F51716F6051726F6151BF
:1021E000736F6251746F6351756F6451766F65518F
:1021F000776F6651786F6751796F68517A6F69515F
:102200007B6F6A517C6F700EAF6F6E0EB06F6C0E8D
:10221000B16F5F0EB26F300EB36FB46FB56F340E27
:10222000B66FD9EC0EF0D20E0001F26FF36BD6EC64
:1022300009F000015A519F6F5B51A06F5C51A16F73
:102240005D51A26F5E51A36F5F51A46F6051A56F86
:102250006151A66F6251A76F6351A86F6451A96F56
:10226000A151D8B46FEF11F09F51AF6FA051B06F73
:10227000A151B16FA251B26FA351B36FA451B46F0A
:10228000A551B56FA651B66FA751B76FA851B86FDA
:10229000A951B96FC8EC0EF000015A51AA6F5B51F9
:1022A000AB6F5C51AC6F5D51AD6F020EAB15AE6F95
:1022B00001010C6F220E25EC04F0040E0001AB1599
:1022C000AE6F01010C6F210E25EC04F0080E000129
:1022D000AB15AE6F01010C6F200E25EC04F0000170
:1022E0006C51AF6F6D51B06F6E51B16F6F51B26F76
:1022F0007051B36F7151B46F7251B56F7351B66F46
:102300007451B76F7551B86F7651B96F7751BA6F15
:102310007851BB6F7951BC6F7A51BD6F7B51BE6FE5
:102320007C51BF6FB3EC0FF00001AF516C6FB05137
:102330006D6FB1516E6FB2516F6FB351706FB45119
:10234000716FB551726FB651736FB751746FB851E9
:10235000756FB951766FBA51776FBB51786FBC51B9
:10236000796FBD517A6FBE517B6FBF517C6F03EFA8
:0223700011F06A
:020000040030CA
:0E0000005D087F7F008991000FC00FE00F4068
:00000001FF
