:020000040000FA
:1008000002EF04F00001BE6BBF6B0F015D6B5C6B10
:10081000C26AC16AC06A5F6B5E6B916AF26AF16A12
:10082000F06A896A926A8A6A080E936EF30E5B6FA9
:100830008B6A946A8C6A956A8D6A080E966EC00EF1
:10084000566F400E9B6E35EF10F00101346F050EB0
:10085000345DD8A435EF04F0959E3551D8B433EF0C
:1008600004F08C8E12008C9E1200060E345DD8A40B
:1008700043EF04F0959C3551D8B441EF04F08C8CD3
:1008800012008C9C1200070E345DD8A451EF04F0C6
:10089000959A3551D8B44FEF04F08C8A12008C9A97
:1008A0001200080E345DD8A45FEF04F0959835511E
:1008B000D8B45DEF04F08C8812008C981200090EF9
:1008C000345DD8A46DEF04F095963551D8B46BEF34
:1008D00004F08C8612008C9612000A0E345DD8A4A7
:1008E0007BEF04F095943551D8B479EF04F08C8403
:1008F00012008C9412000B0E345DD8A489EF04F022
:1009000095923551D8B487EF04F08C8212008C9206
:1009100012000C0E345DD8A497EF04F09590355179
:10092000D8B495EF04F08C8012008C9012000D0E5C
:10093000345DD8A4A5EF04F0939E3551D8B4A3EF4D
:1009400004F08A8E12008A9E12000E0E345DD8A426
:10095000B3EF04F0939C3551D8B4B1EF04F08A8C16
:1009600012008A9C12000F0E345DD8A4C1EF04F06F
:10097000939A3551D8B4BFEF04F08A8A12008A9A4C
:100980001200100E345DD8A4CFEF04F093983551C7
:10099000D8B4CDEF04F08A8812008A981200110EA4
:1009A000345DD8A4DDEF04F093923551D8B4DBEF79
:1009B00004F08A8212008A921200120E345DD8A4CA
:1009C000EBEF04F093903551D8B4E9EF04F08A804E
:1009D00012008A901200150E345DD8A4F9EF04F0CD
:1009E00096903551D8B4F7EF04F08D8012008D90B9
:1009F0001200160E345DD8A407EF05F0969235511B
:100A0000D8B405EF05F08D8212008D921200170EFA
:100A1000345DD8A415EF05F096943551D8B413EF92
:100A200005F08D8412008D941200180E345DD8A448
:100A300023EF05F092903551D8B421EF05F089806D
:100A4000120089901200190E345DD8A431EF05F020
:100A500092923551D8B42FEF05F089821200899215
:100A600012001A0E345DD8A43FEF05F09294355170
:100A7000D8B43DEF05F089841200899412001B0E52
:100A8000345DD8A44DEF05F092963551D8B44BEFB4
:100A900005F089861200899612001C0E345DD8A4D8
:100AA0005BEF05F0929A3551D8B459EF05F0898A79
:100AB0001200899A12001D0E345DD8A469EF05F06A
:100AC00094903551D8B467EF05F08B8012008B906D
:100AD00012001E0E345DD8A477EF05F094923551C4
:100AE000D8B475EF05F08B8212008B9212001F0EA6
:100AF000345DD8A485EF05F094943551D8B483EFD4
:100B000005F08B8412008B941200200E345DD8A463
:100B100093EF05F094963551D8B491EF05F08B869C
:100B200012008B961200210E345DD8A4A1EF05F0BF
:100B300094983551D8B49FEF05F08B8812008B98AC
:100B40001200220E345DD8A4AFEF05F0949A35510F
:100B5000D8B4ADEF05F08B8A12008B9A1200230EE9
:100B6000345DD8A4BDEF05F0949C3551D8B4BBEFEB
:100B700005F08B8C12008B9C1200240E345DD8A4DF
:100B8000CAEF05F0949E3551D8B4C9EF05F08B8EAD
:100B900012008B9E12000101346F050E345DD8A443
:100BA000D8EF05F0958E00015A9183BE5A8112004C
:100BB000060E345DD8A4E3EF05F0958C00015A9140
:100BC00083BC5A811200070E345DD8A4EEEF05F005
:100BD000958A00015A9183BA5A811200080E345D39
:100BE000D8A4F9EF05F0958800015A9183B85A818D
:100BF0001200090E345DD8A404EF06F095860001BA
:100C00005A9183B65A8112000A0E345DD8A40FEFB0
:100C100006F0958400015A9183B45A8112000B0E9C
:100C2000345DD8A41AEF06F0958200015A9183B280
:100C30005A8112000C0E345DD8A425EF06F0958081
:100C400000015A9183B05A8112000D0E345DD8A470
:100C500030EF06F0938E00015A9181BE5A81120046
:100C60000E0E345DD8A43BEF06F0938C00015A9130
:100C700081BC5A8112000F0E345DD8A446EF06F0F5
:100C8000938A00015A9181BA5A811200100E345D84
:100C9000D8A451EF06F0938800015A9181B85A8187
:100CA0001200110E345DD8A45CEF06F093820001AF
:100CB0005A9181B25A811200120E345DD8A467EFA6
:100CC00006F0938000015A9181B05A811200140EEF
:100CD000345DD8A471EF06F000015A9184B65A81B0
:100CE0001200170E345DD8A47CEF06F09684000144
:100CF0005A9184B45A81120000015A911200800E58
:100D00006F6E6E385A6F5A33070E5A17040E5A5DBB
:100D1000D8A481EF06F0500E726E0E017D6B020EAC
:100D2000436FAC0E446F030E456FFA6BFB6BFF0E07
:100D3000F86FE00EF96F796B7A6B7B6B7C6B466BAF
:100D4000476BFF0E716FFF0E726FFF0E736FFF0E1A
:100D5000746FFF0E756FFF0E766FFF0E776FFF0ECD
:100D6000786F12000E014651D8A4DAEF06F00001A8
:100D7000F051C06FF151C16F0E01E26BE36BD8907F
:100D80000001C1315B6FC0315A6FD8905B335A3369
:100D9000D8905B335A335A510E01E06F0001C039CD
:100DA000F00B0E01E16FD890E137F00E716F010E7C
:100DB000466F12004605D8A401EF07F00001F0517C
:100DC000C26FF151C36F0E01E66BE76BD890000163
:100DD000C3315B6FC2315A6FD8905B335A33D890AE
:100DE0005B335A335A510E01E46F0001C239F00BE4
:100DF0000E01E56FD890E537100E716F030E466F48
:100E00001200030E465DD8A429EF07F00001F0514F
:100E1000C46FF151C56F0E01EA6BEB6BD890000106
:100E2000C5315B6FC4315A6FD8905B335A33D89059
:100E30005B335A335A510E01E86F0001C439F00B8D
:100E40000E01E96FD890E937F20E726F070E466F08
:100E50001200070E465DD8A451EF07F00001F051D3
:100E6000C66FF151C76F0E01EE6BEF6BD8900001AA
:100E7000C7315B6FC6315A6FD8905B335A33D89005
:100E80005B335A335A510E01EC6F0001C639F00B37
:100E90000E01ED6FD890ED37320E726F0F0E466F68
:100EA00012000F0E465DD8A479EF07F00001F05153
:100EB000C86FF151C96F0E01F26BF36BD89000014E
:100EC000C9315B6FC8315A6FD8905B335A33D890B1
:100ED0005B335A335A510E01F06F0001C839F00BE1
:100EE0000E01F16FD890F137F40E736F1F0E466F3D
:100EF00012001F0E465DD8A4A1EF07F00001F051CB
:100F0000CA6FF151CB6F0E01F66BF76BD8900001F1
:100F1000CB315B6FCA315A6FD8905B335A33D8905C
:100F20005B335A335A510E01F46F0001CA39F00B8A
:100F30000E01F56FD890F537540E736F3F0E466F64
:100F400012003F0E465DD8A4C9EF07F00001F05132
:100F5000CC6FF151CD6F0E014A6B4B6BD8900001F5
:100F6000CD315B6FCC315A6FD8905B335A33D89008
:100F70005B335A335A510E01486F0001CC39F00BE4
:100F80000E01496FD8904937F60E746F7F0E466F89
:100F900012007F0E465DD8A4F1EF07F00001F0517A
:100FA000CE6FF151CF6F0E014E6B4F6BD890000199
:100FB000CF315B6FCE315A6FD8905B335A33D890B4
:100FC0005B335A335A510E014C6F0001CE39F00B8E
:100FD0000E014D6FD8904D37760E746FFF0E466F31
:100FE00012004751D8A418EF08F00001F051D06F5B
:100FF000F151D16F0E01526B536BD8900001D1317A
:101000005B6FD0315A6FD8905B335A33D8905B33D3
:101010005A335A510E01506F0001D039F00B0E01B6
:10102000516FD8905137F00E756F010E476F120057
:101030004705D8A43FEF08F00001F051D26FF151FD
:10104000D36F0E01566B576BD8900001D3315B6F95
:10105000D2315A6FD8905B335A33D8905B335A33BE
:101060005A510E01546F0001D239F00B0E01556F29
:10107000D8905537100E756F030E476F1200030E90
:10108000475DD8A467EF08F00001F051D46FF1512B
:10109000D56F0E015A6B5B6BD8900001D5315B6F39
:1010A000D4315A6FD8905B335A33D8905B335A336C
:1010B0005A510E01586F0001D439F00B0E01596FCF
:1010C000D8905937F20E766F070E476F1200070E51
:1010D000475DD8A48FEF08F00001F051D66FF151B1
:1010E000D76F0E015E6B5F6BD8900001D7315B6FDD
:1010F000D6315A6FD8905B335A33D8905B335A331A
:101100005A510E015C6F0001D639F00B0E015D6F74
:10111000D8905D37320E766F0F0E476F12000F0EAC
:10112000475DD8A4B7EF08F00001F051D86FF15136
:10113000D96F0E01626B636BD8900001D9315B6F80
:10114000D8315A6FD8905B335A33D8905B335A33C7
:101150005A510E01606F0001D839F00B0E01616F1A
:10116000D8906137F40E776F1F0E476F12001F0E75
:10117000475DD8A4DFEF08F00001F051DA6FF151BC
:10118000DB6F0E01666B676BD8900001DB315B6F24
:10119000DA315A6FD8905B335A33D8905B335A3375
:1011A0005A510E01646F0001DA39F00B0E01656FC0
:1011B000D8906537540E776F3F0E476F12003F0E81
:1011C000475DD8A407EF09F00001F051DC6FF15141
:1011D000DD6F0E016A6B6B6BD8900001DD315B6FC8
:1011E000DC315A6FD8905B335A33D8905B335A3323
:1011F0005A510E01686F0001DC39F00B0E01696F66
:10120000D8906937F60E786F7F0E476F12007F0E09
:10121000475DD8A42EEF09F00001F051DE6FF151C7
:10122000DF6F0E016E6B6F6BD8900001DF315B6F6B
:10123000DE315A6FD8905B335A33D8905B335A33D0
:101240005A510E016C6F0001DE39F00B0E016D6F0B
:10125000D8906D37760E786FFF0E476F1200606A78
:101260000F01306B0E01806B906BA06BB06BC06B8D
:10127000D06B200E706E6F6A6E3800015A6F5A3351
:10128000070E5A175A51D8A43CEF09F01200D89013
:10129000453100015B6F0101443100015A6FD89064
:1012A0005B335A33D8905B335A335A510F01216F55
:1012B00001014439F00B0F01226FD8902237010150
:1012C00046510F01256F010147510F01266F0101A2
:1012D00048510F01276F010149510F01286F01018A
:1012E0004A510F01296F01014B510F012A6F010172
:1012F0004C510F012B6F01014D510F012C6F01015A
:101300004E510F012D6F208720B784EF09F0120096
:10131000216F1F51296F20512A6F080E2B6F2C6BE4
:101320000B0E2D6F21512E6F0001BE5101012F6F49
:101330002551306F2451316F2351326F2251336F59
:101340002951446F2A51456F2B51466F2C51476FDD
:101350002D51486F2E51496F2F514A6F30514B6FAD
:1013600031514C6F32514D6F33514E6F47EC09F094
:10137000010E0001BE250101426F000ED8B0010E22
:101380000001BF250101436F42510001BE6FBF6BD9
:101390001200376B386B396B3A6B3B6B3C6B3D6BB8
:1013A0003E6B3F6B406B416B61504F6F506BD89001
:1013B0004F35516F5035526FD89051375237D890C2
:1013C000513752376250536F546BD8905431566F27
:1013D0005331556F040E00015A6FD89001015633F6
:1013E000553300015A2FEDEF09F00101555151110C
:1013F000576F56515211586F3551575D00015A6F52
:1014000001013651585D00015A1101016191D8B4B2
:101410006181618360BE61A1619361A34DEF0AF0B8
:101420006150596F5A6BD89059355B6F5A355C6F64
:10143000D8905B375C37D8905B375C3762505D6F14
:101440005E6BD8905E31606F5D315F6F040E00019E
:101450005A6FD890010160335F3300015A2F29EF92
:101460000AF001015F515B11376F60515C11386FF9
:101470006550396F66503A6F67503B6F68503C6FEC
:1014800069503D6F6A503E6F6B503F6F6C50406FBC
:101490006D50416F609E7AEF0EF00F0131510101E6
:1014A0004F6F506BD8904F35516F5035526FD89069
:1014B00051375237D890513752370F01325101010D
:1014C000536F546BD8905431566F5331556F040E8F
:1014D00000015A6FD89001015633553300015A2F3D
:1014E0006AEF0AF0010155515111576F56515211CF
:1014F000586F3551575D00015A6F01013651585DE3
:1015000000015A1101016195D8B4618561970F01FD
:1015100030AF8EEF0AF0010161B56187010161A76B
:10152000E6EF0AF00F0131510101596F5A6BD89063
:1015300059355B6F5A355C6FD8905B375C37D89004
:101540005B375C370F01325101015D6F5E6BD890E4
:101550005E31606F5D315F6F040E00015A6FD8908D
:10156000010160335F3300015A2FAFEF0AF0010130
:101570005F515B11376F60515C11386F0F0135514E
:101580000101396F0F01365101013A6F0F013751D7
:1015900001013B6F0F01385101013C6F0F013951BF
:1015A00001013D6F0F013A5101013E6F0F013B51A7
:1015B00001013F6F0F013C510101406F0F013D518F
:1015C0000101416F0F01309F7AEF0EF00E01815142
:1015D00001014F6F506BD8904F35516F5035526F9E
:1015E000D89051375237D890513752370E01825127
:1015F0000101536F546BD8905431566F5331556F6E
:10160000040E00015A6FD890010156335533000182
:101610005A2F03EF0BF0010155515111576F5651DD
:101620005211586F3551575D00015A6F0101365103
:10163000585D00015A1101016199D8B46189619B1B
:101640000E0180AF27EF0BF0010161B9618B010141
:1016500061AB7FEF0BF00E0181510101596F5A6BA5
:10166000D89059355B6F5A355C6FD8905B375C37D3
:10167000D8905B375C370E01825101015D6F5E6B64
:10168000D8905E31606F5D315F6F040E00015A6F5C
:10169000D890010160335F3300015A2F48EF0BF0FF
:1016A00001015F515B11376F60515C11386F0E01A2
:1016B00085510101396F0E01865101013A6F0E010A
:1016C000875101013B6F0E01885101013C6F0E01F2
:1016D000895101013D6F0E018A5101013E6F0E01DA
:1016E0008B5101013F6F0E018C510101406F0E01C2
:1016F0008D510101416F0E01809F7AEF0EF00E01B6
:10170000915101014F6F506BD8904F35516F50354B
:10171000526FD89051375237D890513752370E0107
:1017200092510101536F546BD8905431566F53311D
:10173000556F040E00015A6FD8900101563355338E
:1017400000015A2F9CEF0BF0010155515111576FB9
:1017500056515211586F3551575D00015A6F0101B2
:101760003651585D00015A110101619DD8B4618D57
:10177000619F0E0190AFC0EF0BF0010161BD618F61
:10178000010161AF18EF0CF00E0191510101596F89
:101790005A6BD89059355B6F5A355C6FD8905B3770
:1017A0005C37D8905B375C370E01925101015D6F59
:1017B0005E6BD8905E31606F5D315F6F040E00012B
:1017C0005A6FD890010160335F3300015A2FE1EF67
:1017D0000BF001015F515B11376F60515C11386F85
:1017E0000E0195510101396F0E01965101013A6FB9
:1017F0000E01975101013B6F0E01985101013C6FA1
:101800000E01995101013D6F0E019A5101013E6F88
:101810000E019B5101013F6F0E019C510101406F70
:101820000E019D510101416F0E01909F7AEF0EF064
:101830000E01A15101014F6F506BD8904F35516F80
:101840005035526FD89051375237D8905137523760
:101850000E01A2510101536F546BD8905431566F51
:101860005331556F040E00015A6FD8900101563361
:10187000553300015A2F35EF0CF00101555151112C
:10188000576F56515211586F3551575D00015A6FBD
:1018900001013651585D00015A1101016291D8B41D
:1018A000628162930E01A0AF59EF0CF0010162B1A9
:1018B0006283010162A3B1EF0CF00E01A15101019D
:1018C000596F5A6BD89059355B6F5A355C6FD89009
:1018D0005B375C37D8905B375C370E01A251010152
:1018E0005D6F5E6BD8905E31606F5D315F6F040E2F
:1018F00000015A6FD890010160335F3300015A2F05
:101900007AEF0CF001015F515B11376F60515C1190
:10191000386F0E01A5510101396F0E01A651010169
:101920003A6F0E01A75101013B6F0E01A851010151
:101930003C6F0E01A95101013D6F0E01AA51010139
:101940003E6F0E01AB5101013F6F0E01AC51010121
:10195000406F0E01AD510101416F0E01A09F7AEF62
:101960000EF00E01B15101014F6F506BD8904F3501
:10197000516F5035526FD89051375237D8905137F8
:1019800052370E01B2510101536F546BD89054314C
:10199000566F5331556F040E00015A6FD8900101F4
:1019A0005633553300015A2FCEEF0CF0010155513B
:1019B0005111576F56515211586F3551575D0001F3
:1019C0005A6F01013651585D00015A1101016295AB
:1019D000D8B4628562970E01B0AFF2EF0CF001014E
:1019E00062B56287010162A74AEF0DF00E01B151A5
:1019F0000101596F5A6BD89059355B6F5A355C6F3E
:101A0000D8905B375C37D8905B375C370E01B251AA
:101A100001015D6F5E6BD8905E31606F5D315F6F0D
:101A2000040E00015A6FD890010160335F3300014A
:101A30005A2F13EF0DF001015F515B11376F6051A9
:101A40005C11386F0E01B5510101396F0E01B651AD
:101A500001013A6F0E01B75101013B6F0E01B85100
:101A600001013C6F0E01B95101013D6F0E01BA51E8
:101A700001013E6F0E01BB5101013F6F0E01BC51D0
:101A80000101406F0E01BD510101416F0E01B09F78
:101A90007AEF0EF00E01C15101014F6F506BD890DB
:101AA0004F35516F5035526FD89051375237D890CB
:101AB000513752370E01C2510101536F546BD89008
:101AC0005431566F5331556F040E00015A6FD89040
:101AD00001015633553300015A2F67EF0DF0010114
:101AE00055515111576F56515211586F3551575D1D
:101AF00000015A6F01013651585D00015A11010170
:101B00006299D8B46289629B0E01C0AF8BEF0DF071
:101B1000010162B9628B010162ABE3EF0DF00E01CE
:101B2000C1510101596F5A6BD89059355B6F5A35C5
:101B30005C6FD8905B375C37D8905B375C370E01B1
:101B4000C25101015D6F5E6BD8905E31606F5D3197
:101B50005F6F040E00015A6FD890010160335F334C
:101B600000015A2FACEF0DF001015F515B11376F8F
:101B700060515C11386F0E01C5510101396F0E01C2
:101B8000C65101013A6F0E01C75101013B6F0E01B1
:101B9000C85101013C6F0E01C95101013D6F0E0199
:101BA000CA5101013E6F0E01CB5101013F6F0E0181
:101BB000CC510101406F0E01CD510101416F0E0169
:101BC000C09F7AEF0EF00E01D15101014F6F506BA3
:101BD000D8904F35516F5035526FD890513752379A
:101BE000D890513752370E01D2510101536F546BC7
:101BF000D8905431566F5331556F040E00015A6F0F
:101C0000D89001015633553300015A2F00EF0EF0E2
:101C1000010155515111576F56515211586F35519D
:101C2000575D00015A6F01013651585D00015A118C
:101C30000101629DD8B4628D629F0E01D0AF24EF86
:101C40000EF0010162BD628F010162AF7AEF0EF00A
:101C50000E01D1510101596F5A6BD89059355B6F04
:101C60005A355C6FD8905B375C37D8905B375C3700
:101C70000E01D25101015D6F5E6BD8905E31606FD5
:101C80005D315F6F040E00015A6FD890010160331F
:101C90005F3300015A2F45EF0EF001015F515B11D8
:101CA000376F60515C11386F0E01D5510101396FEA
:101CB0000E01D65101013A6F0E01D75101013B6F60
:101CC0000E01D85101013C6F0E01D95101013D6F48
:101CD0000E01DA5101013E6F0E01DB5101013F6F30
:101CE0000E01DC510101406F0E01DD510101416F18
:101CF0000E01D09F0101375100015A6F0101385187
:101D000000015B6F0101395100015C6F01013A5123
:101D100000015D6F01013B5100015E6F01013C510B
:101D200000015F6F01013D510001606F01013E51F3
:101D30000001616F01013F510001626F01014051DB
:101D40000001636F010141510001646F1200F751FE
:101D500001011D6F0001F85101011C6F0001F951D3
:101D600001011B6F0001FA5101011A6F1A510001A4
:101D70005A6F01011B5100015B6F01011C510001F1
:101D80005C6F01011D5100015D6F1200010E010128
:101D9000356F366BC9EC09F000015A510101046F2F
:101DA00000015B510101056F00015C510101066FEB
:101DB00000015D510101076F00015E510101086FD3
:101DC00000015F510101096F0001605101010A6FBB
:101DD0000001615101010B6F0001625101010C6FA3
:101DE0000001635101010D6F0001645101010E6F8B
:101DF00006512681D8B4269107510001F05D0101FA
:101E00002693D8B42683268526B126A32695085185
:101E10000001F15D01012697D8B42687268926B5F1
:101E200026A7269909510001F25D0101269BD8B42D
:101E3000268B268D26B926AB269D0A510001F35D1F
:101E40000101269FD8B4268F278126BD26AF279172
:101E50000B510001F45D01012793D8B42783278536
:101E600027B127A327950C510001F55D01012797A4
:101E7000D8B42787278927B527A727990D510001AF
:101E8000F65D0101279BD8B4278B278D27B927AB97
:101E9000279D0E510001F75D0101279FD8B4278FC0
:101EA000288127BD27AF289128B100EF00F012004C
:101EB0000001F06F0101356B0001FB5125EC04F0CE
:101EC00000015C0E5A6F6B0E5B6F5B2F65EF0FF0BE
:101ED0005A2F63EF0FF00000000000000000000028
:101EE000F05101010F6F0001FB510101106F0F5103
:101EF000CBEC05F0010E00015A150101116F000134
:101F0000FC510101126F0001FD510101136F00012D
:101F1000FE510101146F0001FF510101156F0051C5
:101F2000166F0151176F0251186F0351196F010E8F
:101F3000356F0001FB5125EC04F001010F51000148
:101F40005A6F0101105100015B6F01011151000135
:101F50005C6F0101125100015D6F0101135100011D
:101F60005E6F0101145100015F6F01011551000105
:101F7000606F010116510001616F010117510001ED
:101F8000626F010118510001636F010119510001D5
:101F9000646F12000101356B0001F15125EC04F072
:101FA00000015C0E5A6F6B0E5B6F5B2FD5EF0FF06D
:101FB0005A2FD3EF0FF000000000000000000000D7
:101FC000F25101011A6F0001F051CBEC05F0010E46
:101FD00000015A1501011E6F1A511E5DD8B40CEF95
:101FE00010F0D8B00CEF10F0C80E1F6F206B00017E
:101FF000F3510101226F0001F4510101236F00012F
:10200000F5510101246F0001F6510101256F010E08
:1020100088EC09F02AEF10F01A511E5DD8B42AEFAF
:1020200010F0D8A02AEF10F0C80E1F6F206B00012F
:10203000F7510101226F0001F8510101236F0001E6
:10204000F9510101246F0001FA510101256F010EC0
:1020500088EC09F001011E510001F26F010E01012F
:10206000356F0001F15125EF04F000018E0E5A6F1B
:10207000A70E5B6FA70E5C6F5C2F3CEF10F05B2F21
:102080003AEF10F05A2F38EF10F000000000000077
:102090007FEC06F0010E0001F06FF16BB2EC06F080
:1020A000D20E0001F06FF16BB2EC06F02FEC09F0EC
:1020B000010E0101356F240E25EC04F00001470EDE
:1020C0005A6FA70E5B6FA70E5C6F5C2F65EF10F069
:1020D0005B2F63EF10F05A2F61EF10F0010E01013A
:1020E000356F230E25EC04F00001470E5A6FA70E42
:1020F0005B6FA70E5C6F5C2F7BEF10F05B2F79EFAF
:1021000010F05A2F77EF10F0010E0101356F220EFB
:1021100025EC04F00001470E5A6FA70E5B6FA70E67
:102120005C6F5C2F91EF10F05B2F8FEF10F05A2F48
:102130008DEF10F0010E0101356F210E25EC04F03A
:102140000001470E5A6FA70E5B6FA70E5C6F5C2FE6
:10215000A7EF10F05B2FA5EF10F05A2FA3EF10F0B0
:10216000010E0101356F200E25EC04F00001470E31
:102170005A6FA70E5B6FA70E5C6F5C2FBDEF10F060
:102180005B2FBBEF10F05A2FB9EF10F0010E0101D9
:10219000356F1F0E25EC04F00001470E5A6FA70E95
:1021A0005B6FA70E5C6F5C2FD3EF10F05B2FD1EF4E
:1021B00010F05A2FCFEF10F0010E0101356F1E0EF7
:1021C00025EC04F00001470E5A6FA70E5B6FA70EB7
:1021D0005C6F5C2FE9EF10F05B2FE7EF10F05A2FE8
:1021E000E5EF10F0010E0101356F1D0E25EC04F036
:1021F00000018E0E5A6FA70E5B6FA70E5C6F5C2FEF
:10220000FFEF10F05B2FFDEF10F05A2FFBEF10F0F7
:102210000000000000000101356B240E25EC04F0E5
:102220000101356B230E25EC04F00101356B220E04
:1022300025EC04F00101356B210E25EC04F00101C1
:10224000356B200E25EC04F00101356B1F0E25ECDB
:1022500004F00101356B1E0E25EC04F00101356B15
:102260001D0E25EC04F0010E0101356F150E25EC55
:1022700004F00101356B160E25EC04F0130E00017D
:10228000FB6F010EFC6FFD6BFE6BA10EFF6F01017A
:10229000006B016B026BA10E036F070E58EC0FF081
:1022A00000015A51666F5B51676F5C51686F5D51F9
:1022B000696F5E516A6F5F516B6F60516C6F6151F6
:1022C0006D6F62516E6F63516F6F6451706F130E5B
:1022D000FB6F010EFC6FFD6BFE6BA20EFF6F010129
:1022E000006B016B026BA20E036F080E58EC0FF02F
:1022F00000015A51716F5B51726F5C51736F5D5188
:10230000746F5E51756F5F51766F6051776F615179
:10231000786F6251796F63517A6F64517B6F130EDE
:10232000FB6F010EFC6FFD6BFE6BA30EFF6F0101D7
:10233000006B016B026BA30E036F090E58EC0FF0DC
:1023400000015A517C6F5B517D6F5C517E6F5D5116
:102350007F6F5E51806F5F51816F6051826F6151FD
:10236000836F6251846F6351856F6451866F130E62
:10237000FB6F010EFC6FFD6BFE6BA40EFF6F010186
:10238000006B016B026BA40E036F0A0E58EC0FF08A
:1023900000015A51876F5B51886F5C51896F5D51A5
:1023A0008A6F5E518B6F5F518C6F60518D6F615181
:1023B0008E6F62518F6F6351906F6451916F130EE6
:1023C000FB6F010EFC6FFD6BFE6BA50EFF6F010135
:1023D000006B016B026BA50E036F0B0E58EC0FF038
:1023E00000015A51926F5B51936F5C51946F5D5134
:1023F000956F5E51966F5F51976F6051986F615105
:10240000996F62519A6F63519B6F64519C6F130E69
:10241000FB6F010EFC6FFD6BFE6BA60EFF6F0101E3
:10242000006B016B026BA60E036F0C0E58EC0FF0E5
:1024300000015A519D6F5B519E6F5C519F6F5D51C2
:10244000A06F5E51A16F5F51A26F6051A36F615188
:10245000A46F6251A56F6351A66F6451A76F130EED
:10246000FB6F010EFC6FFD6BFE6BA70EFF6F010192
:10247000006B016B026BA70E036F0D0E58EC0FF093
:1024800000015A51A86F5B51A96F5C51AA6F5D5151
:10249000AB6F5E51AC6F5F51AD6F6051AE6F61510C
:1024A000AF6F6251B06F6351B16F6451B26F130E71
:1024B000FB6F010EFC6FFD6BFE6BA80EFF6F010141
:1024C000006B016B026BA80E036F0E0E58EC0FF041
:1024D00000015A51B36F5B51B46F5C51B56F5D51E0
:1024E000B66F5E51B76F5F51B86F6051B96F615190
:1024F000BA6F6251BB6F6351BC6F6451BD6F700E98
:10250000F06F6E0EF16F6C0EF26F5F0EF36F300EA8
:10251000F46FF56FF66F310EF76FC6EC0EF0D20E5A
:102520000101356F366BC9EC09F000015A51E06FBB
:102530005B51E16F5C51E26F5D51E36F5E51E46F9F
:102540005F51E56F6051E66F6151E76F6251E86F6F
:102550006351E96F6451EA6FE251D8B418EF13F098
:10256000E051F06FE151F16FE251F26FE351F36F1F
:10257000E451F46FE551F56FE651F66FE751F76FEF
:10258000E851F86FE951F96FEA51FA6FA7EC0EF0D4
:1025900000015A51EB6F5B51EC6F5C51ED6F5D5177
:1025A000EE6F020EEB15EF6F0101356F240E25EC77
:1025B00004F0040E0001EB15EF6F0101356F230EDF
:1025C00025EC04F0080E0001EB15EF6F0101356FEB
:1025D000220E25EC04F0100E0001EB15EF6F010147
:1025E000356F210E25EC04F0200E0001EB15EF6F86
:1025F0000101356F200E25EC04F0400E0001EB15B3
:10260000EF6F0101356F1F0E25EC04F0800E000105
:10261000EB15EF6F0101356F1E0E25EC04F0010E76
:102620000001EC15EF6F0101356F1D0E25EC04F074
:1026300000016651F06F6751F16F6851F26F695197
:10264000F36F6A51F46F6B51F56F6C51F66F6D510A
:10265000F76F6E51F86F6F51F96F7051FA6FCAECE6
:102660000FF00001F051666FF151676FF251686F22
:10267000F351696FF4516A6FF5516B6FF6516C6FDE
:10268000F7516D6FF8516E6FF9516F6FFA51706FAE
:102690007151F06F7251F16F7351F26F7451F36FAA
:1026A0007551F46F7651F56F7751F66F7851F76F7A
:1026B0007951F86F7A51F96F7B51FA6FCAEC0FF0CC
:1026C0000001F051716FF151726FF251736FF3515C
:1026D000746FF451756FF551766FF651776FF7514E
:1026E000786FF851796FF9517A6FFA517B6F7C519D
:1026F000F06F7D51F16F7E51F26F7F51F36F80511A
:10270000F46F8151F56F8251F66F8351F76F8451E9
:10271000F86F8551F96F8651FA6FCAEC0FF000011E
:10272000F0517C6FF1517D6FF2517E6FF3517F6FED
:10273000F451806FF551816FF651826FF751836FBD
:10274000F851846FF951856FFA51866F8751F06F98
:102750008851F16F8951F26F8A51F36F8B51F46F89
:102760008C51F56F8D51F66F8E51F76F8F51F86F59
:102770009051F96F9151FA6FCAEC0FF00001F051CE
:10278000876FF151886FF251896FF3518A6FF4515D
:102790008B6FF5518C6FF6518D6FF7518E6FF8512D
:1027A0008F6FF951906FFA51916F9251F06F935171
:1027B000F16F9451F26F9551F36F9651F46F9751F9
:1027C000F56F9851F66F9951F76F9A51F86F9B51C9
:1027D000F96F9C51FA6FCAEC0FF00001F051926F43
:1027E000F151936FF251946FF351956FF451966FCD
:1027F000F551976FF651986FF751996FF8519A6F9D
:10280000F9519B6FFA519C6F9D51F06F9E51F16F82
:102810009F51F26FA051F36FA151F46FA251F56F68
:10282000A351F66FA451F76FA551F86FA651F96F38
:10283000A751FA6FCAEC0FF00001F0519D6FF151F2
:102840009E6FF2519F6FF351A06FF451A16FF5513C
:10285000A26FF651A36FF751A46FF851A56FF9510C
:10286000A66FFA51A76FA851F06FA951F16FAA5145
:10287000F26FAB51F36FAC51F46FAD51F56FAE51D8
:10288000F66FAF51F76FB051F86FB151F96FB251A8
:10289000FA6FCAEC0FF00001F051A86FF151A96F67
:1028A000F251AA6FF351AB6FF451AC6FF551AD6FAC
:1028B000F651AE6FF751AF6FF851B06FF951B16F7C
:1028C000FA51B26FB351F06FB451F16FB551F26F6D
:1028D000B651F36FB751F46FB851F56FB951F66F48
:1028E000BA51F76FBB51F86FBC51F96FBD51FA6F18
:1028F000CAEC0FF00001F051B36FF151B46FF25117
:10290000B56FF351B66FF451B76FF551B86FF6511B
:10291000B96FF751BA6FF851BB6FF951BC6FFA51EB
:06292000BD6F7FEF12F015
:020000040030CA
:0E0000005D087F7F008991000FC00FE00F4068
:00000001FF
