:020000040000FA
:0408000022EF04F0EF
:080808000001E950746FEA5091
:10081000756F00015A51666F5B51676F5C51686F6D
:100820005D51696F5E516A6F5F516B6F60516C6FA4
:1008300061516D6F62516E6F63516F6F6451706F74
:1008400087EF13F00101306B2F6B2E6B410E00010F
:10085000766F0E0E776F01010C6B0D6B43EF04F09A
:10086000D06AA00EF26E040EF16EF06AD10ED76E51
:10087000200ED66E880ED56E1200D10ED76E200EC9
:10088000D66EF29412000F015D6B5C6BC26AC16A96
:10089000C06A5F6B5E6B916AF26AF16AF06A896A9C
:1008A000926A8A6A080E936EF30E5B6F8B6A946A83
:1008B0008C6A956A8D6A080E966EC00E566F400E51
:1008C0009B6E62EF12F0616F050E615DD8A472EF4E
:1008D00004F0959E6251D8B470EF04F08C8E120033
:1008E0008C9E1200060E615DD8A480EF04F0959CEA
:1008F0006251D8B47EEF04F08C8C12008C9C1200F4
:10090000070E615DD8A48EEF04F0959A6251D8B4B9
:100910008CEF04F08C8A12008C9A1200080E615D34
:10092000D8A49CEF04F095986251D8B49AEF04F0E3
:100930008C8812008C981200090E615DD8A4AAEF71
:1009400004F095966251D8B4A8EF04F08C8612009A
:100950008C9612000A0E615DD8A4B8EF04F095944D
:100960006251D8B4B6EF04F08C8412008C9412005B
:100970000B0E615DD8A4C6EF04F095926251D8B415
:10098000C4EF04F08C8212008C9212000C0E615D98
:10099000D8A4D4EF04F095906251D8B4D2EF04F00B
:1009A0008C8012008C9012000D0E615DD8A4E2EFD5
:1009B00004F0939E6251D8B4E0EF04F08A8E1200E6
:1009C0008A9E12000E0E615DD8A4F0EF04F0939C95
:1009D0006251D8B4EEEF04F08A8C12008A9C1200A7
:1009E0000F0E615DD8A4FEEF04F0939A6251D8B463
:1009F000FCEF04F08A8A12008A9A1200100E615DE0
:100A0000D8A40CEF05F093986251D8B40AEF05F022
:100A10008A8812008A981200110E615DD8A41AEF1C
:100A200005F093926251D8B418EF05F08A82120053
:100A30008A921200120E615DD8A428EF05F09390FF
:100A40006251D8B426EF05F08A8012008A90120015
:100A5000150E615DD8A436EF05F096906251D8B4BA
:100A600034EF05F08D8012008D901200160E615D3E
:100A7000D8A444EF05F096926251D8B442EF05F045
:100A80008D8212008D921200170E615DD8A452EF74
:100A900005F096946251D8B450EF05F08D841200A1
:100AA0008D941200180E615DD8A460EF05F092904D
:100AB0006251D8B45EEF05F089801200899012006F
:100AC000190E615DD8A46EEF05F092926251D8B410
:100AD0006CEF05F089821200899212001A0E615D96
:100AE000D8A47CEF05F092946251D8B47AEF05F067
:100AF00089841200899412001B0E615DD8A48AEFCC
:100B000005F092966251D8B488EF05F089861200FC
:100B1000899612001C0E615DD8A498EF05F0929A98
:100B20006251D8B496EF05F0898A1200899A1200B2
:100B30001D0E615DD8A4A6EF05F094906251D8B463
:100B4000A4EF05F08B8012008B9012001E0E615DE9
:100B5000D8A4B4EF05F094926251D8B4B2EF05F086
:100B60008B8212008B9212001F0E615DD8A4C2EF1F
:100B700005F094946251D8B4C0EF05F08B84120054
:100B80008B941200200E615DD8A4D0EF05F09496EE
:100B90006251D8B4CEEF05F08B8612008B9612000E
:100BA000210E615DD8A4DEEF05F094986251D8B4AF
:100BB000DCEF05F08B8812008B981200220E615D2D
:100BC000D8A4ECEF05F0949A6251D8B4EAEF05F09E
:100BD0008B8A12008B9A1200230E615DD8A4FAEF63
:100BE00005F0949C6251D8B4F8EF05F08B8C12009C
:100BF0008B9C1200240E615DD8A407EF06F0949E32
:100C00006251D8B406EF06F08B8E12008B9E120054
:100C100001012E2B2E2D0FEF06F019EF06F000012B
:100C20007751EA6E7651E96E7607E90601010B51BC
:100C3000EF6E00015A5101010B6F050E0B5DD8A438
:100C400029EF06F0958E00015A9183BE5A81DEEF9E
:100C500006F0060E0B5DD8A435EF06F0958C00016A
:100C60005A9183BC5A81DEEF06F0070E0B5DD8A4C3
:100C700041EF06F0958A00015A9183BA5A81DEEF5E
:100C800006F0080E0B5DD8A44DEF06F09588000124
:100C90005A9183B85A81DEEF06F0090E0B5DD8A495
:100CA00059EF06F0958600015A9183B65A81DEEF1E
:100CB00006F00A0E0B5DD8A465EF06F095840001DE
:100CC0005A9183B45A81DEEF06F00B0E0B5DD8A467
:100CD00071EF06F0958200015A9183B25A81DEEFDE
:100CE00006F00C0E0B5DD8A47DEF06F09580000198
:100CF0005A9183B05A81DEEF06F00D0E0B5DD8A439
:100D000089EF06F0938E00015A9181BE5A81DEEF81
:100D100006F00E0E0B5DD8A495EF06F0938C000143
:100D20005A9181BC5A81DEEF06F00F0E0B5DD8A4FC
:100D3000A1EF06F0938A00015A9181BA5A81DEEF41
:100D400006F0100E0B5DD8A4ADEF06F093880001FD
:100D50005A9181B85A81DEEF06F0110E0B5DD8A4CE
:100D6000B9EF06F0938200015A9181B25A81DEEF09
:100D700006F0120E0B5DD8A4C5EF06F093800001BB
:100D80005A9181B05A81DEEF06F0140E0B5DD8A4A3
:100D9000D0EF06F000015A9184B65A81DEEF06F0DA
:100DA000170E0B5DD8A4DCEF06F0968400015A9173
:100DB00084B45A81DEEF06F000015A9101012E2F12
:100DC000E3EF06F0120000017751EA6E7651E96E0A
:100DD000EF5001010B6FE9280001766F1200800EC1
:100DE0006F6E6E385A6F5A33070E5A17040E5A5DDB
:100DF000D8A4F1EF06F0500E726E0E017D6B020E5C
:100E0000436FAC0E446F030E456FFA6BFB6BFF0E26
:100E1000F86FE00EF96F796B7A6B7B6B7C6B466BCE
:100E2000476BFF0E716FFF0E726FFF0E736FFF0E39
:100E3000746FFF0E756FFF0E766FFF0E776FFF0EEC
:100E4000786F12000E014651D8A44DEF07F0010152
:100E500031510E6F32510F6F0E01E26BE36BD89080
:100E600001010F3100015B6F01010E3100015A6F6A
:100E7000D8905B335A33D8905B335A335A510E01B2
:100E8000E06F01010E39F00B0E01E16FD890E137F0
:100E9000F00E716F010E466F12004605D8A477EF71
:100EA00007F001013151106F3251116F0E01E66BE5
:100EB000E76BD8900101113100015B6F0101103126
:100EC00000015A6FD8905B335A33D8905B335A3352
:100ED0005A510E01E46F01011039F00B0E01E56F5C
:100EE000D890E537100E716F030E466F1200030E97
:100EF000465DD8A4A2EF07F001013151126F3251C3
:100F0000136F0E01EA6BEB6BD890010113310001F6
:100F10005B6F0101123100015A6FD8905B335A3375
:100F2000D8905B335A335A510E01E86F01011239E0
:100F3000F00B0E01E96FD890E937F20E726F070ED1
:100F4000466F1200070E465DD8A4CDEF07F00101F1
:100F50003151146F3251156F0E01EE6BEF6BD8905B
:100F60000101153100015B6F0101143100015A6F5D
:100F7000D8905B335A33D8905B335A335A510E01B1
:100F8000EC6F01011439F00B0E01ED6FD890ED37C5
:100F9000320E726F0F0E466F12000F0E465DD8A410
:100FA000F8EF07F001013151166F3251176F0E0142
:100FB000F26BF36BD8900101173100015B6F0101F7
:100FC000163100015A6FD8905B335A33D8905B3397
:100FD0005A335A510E01F06F01011639F00B0E0110
:100FE000F16FD890F137F40E736F1F0E466F120039
:100FF0001F0E465DD8A423EF08F001013151186F90
:101000003251196F0E01F66BF76BD890010119314F
:1010100000015B6F0101183100015A6FD8905B33FA
:101020005A33D8905B335A335A510E01F46F010191
:101030001839F00B0E01F56FD890F537540E736F19
:101040003F0E466F12003F0E465DD8A44EEF08F0EB
:10105000010131511A6F32511B6F0E014A6B4B6BFC
:10106000D89001011B3100015B6F01011A310001B1
:101070005A6FD8905B335A33D8905B335A335A51F6
:101080000E01486F01011A39F00B0E01496FD8901B
:101090004937F60E746F7F0E466F12007F0E465D65
:1010A000D8A479EF08F0010131511C6F32511D6F46
:1010B0000E014E6B4F6BD89001011D3100015B6F2B
:1010C00001011C3100015A6FD8905B335A33D8901C
:1010D0005B335A335A510E014C6F01011C39F00B2E
:1010E0000E014D6FD8904D37760E746FFF0E466F20
:1010F00012004751D8A4A3EF08F0010131511E6F2F
:1011000032511F6F0E01526B536BD89001011F318A
:1011100000015B6F01011E3100015A6FD8905B33F3
:101120005A33D8905B335A335A510E01506F010134
:101130001E39F00B0E01516FD8905137F00E756FBC
:10114000010E476F12004705D8A4CDEF08F001014A
:101150003151206F3251216F0E01566B576BD89071
:101160000101213100015B6F0101203100015A6F43
:10117000D8905B335A33D8905B335A335A510E01AF
:10118000546F01012039F00B0E01556FD89055377F
:10119000100E756F030E476F1200030E475DD8A443
:1011A000F8EF08F001013151226F3251236F0E0127
:1011B0005A6B5B6BD8900101233100015B6F010119
:1011C000223100015A6FD8905B335A33D8905B3389
:1011D0005A335A510E01586F01012239F00B0E019A
:1011E000596FD8905937F20E766F070E476F12007D
:1011F000070E475DD8A423EF09F001013151246F98
:101200003251256F0E015E6B5F6BD8900101253165
:1012100000015B6F0101243100015A6FD8905B33EC
:101220005A33D8905B335A335A510E015C6F010127
:101230002439F00B0E015D6FD8905D37320E766F5A
:101240000F0E476F12000F0E475DD8A44EEF09F046
:1012500001013151266F3251276F0E01626B636BB2
:10126000D8900101273100015B6F01012631000197
:101270005A6FD8905B335A33D8905B335A335A51F4
:101280000E01606F01012639F00B0E01616FD890DD
:101290006137F40E776F1F0E476F12001F0E475D08
:1012A000D8A479EF09F001013151286F3251296F2B
:1012B0000E01666B676BD8900101293100015B6FED
:1012C0000101283100015A6FD8905B335A33D8900E
:1012D0005B335A335A510E01646F01012839F00B08
:1012E0000E01656FD8906537540E776F3F0E476FCC
:1012F00012003F0E475DD8A4A4EF09F0010131515F
:101300002A6F32512B6F0E016A6B6B6BD890010103
:101310002B3100015B6F01012A3100015A6FD89017
:101320005B335A33D8905B335A335A510E01686F8E
:1013300001012A39F00B0E01696FD8906937F60E5A
:10134000786F7F0E476F12007F0E475DD8A4CEEFF7
:1013500009F0010131512C6F32512D6F0E016E6B6E
:101360006F6BD89001012D3100015B6F01012C31B1
:1013700000015A6FD8905B335A33D8905B335A339D
:101380005A510E016C6F01012C39F00B0E016D6F7B
:10139000D8906D37760E786FFF0E476F1200606A37
:1013A0000F01306B0E01806B906BA06BB06BC06B4C
:1013B000D06B200E706E6F6A6E3800015A6F5A3310
:1013C000070E5A175A51D8A4DCEF09F01200010198
:1013D0002F2B2F2DEEEF09F017EF0AF000017751B8
:1013E000EA6E7651E96E0B08766FE906010100514D
:1013F000EF6EE9060151EF6EE9060251EF6EE90664
:101400000351EF6EE9060451EF6EE9060551EF6EE8
:10141000E9060651EF6EE9060751EF6EE90608513D
:10142000EF6EE9060951EF6EE9060A51EF6E000111
:101430005A510101006F00015B510101016F000170
:101440005C510101026F00015D510101036F000158
:101450005E510101046F00015F510101056F000140
:1014600060510101066F000161510101076F000128
:1014700062510101086F000163510101096F000110
:10148000645101010A6FD890013100015B6F0101C5
:10149000003100015A6FD8905B335A33D8905B33D8
:1014A0005A335A510F01216F01010039F00B0F011E
:1014B000226FD8902237010102510F01256F0101DF
:1014C00003510F01266F010104510F01276F010124
:1014D00005510F01286F010106510F01296F01010C
:1014E00007510F012A6F010108510F012B6F0101F4
:1014F00009510F012C6F01010A510F012D6F208737
:1015000020B780EF0AF001012F2F88EF0AF01200B8
:1015100000017751EA6E7651E96EEF5001010A6FD2
:10152000E92AEF50096FE92AEF50086FE92AEF50D6
:10153000076FE92AEF50066FE92AEF50056FE92A95
:10154000EF50046FE92AEF50036FE92AEF50026F62
:10155000E92AEF50016FE92AEF50006FE9280001F6
:10156000766F12000101302B302DB9EF0AF0FCEF3D
:101570000AF000017751EA6E7651E96E1408766F31
:10158000E906EC51EF6EE906ED51EF6EE906EE511A
:10159000EF6EE906EF51EF6EE906F051EF6EE906E6
:1015A000F151EF6EE906F251EF6EE906F351EF6E7D
:1015B000E906F451EF6EE906F551EF6EE906F651D2
:1015C000EF6EE906F751EF6EE906F851EF6EE906A6
:1015D000F951EF6EE906FA51EF6EE906FB51EF6E35
:1015E000E906FC51EF6EE906FD51EF6EE906FE518A
:1015F000EF6EE906FF51EF6E00015A51EC6F5B513F
:10160000ED6F5C51EE6F5D51EF6F5E51F06F5F51AA
:10161000F16F6051F26FEC51F36FED51F46F080E02
:10162000F56FF66B0B0EF76FEE51F86F01010C5171
:101630000001F96FF251FA6FF151FB6FF051FC6F3D
:10164000EF51FD6FF3515A6FF4515B6FF5515C6FC1
:10165000F6515D6FF7515E6FF8515F6FF951606F32
:10166000FA51616FFB51626FFC51636FFD51646F02
:10167000E7EC09F0010E01010C250001FE6F000EE0
:10168000D8B0010E01010D250001FF6FFE510101CF
:101690000C6F0D6B302F4EEF0BF0120000017751E5
:1016A000EA6E7651E96EEF50FF6FE92AEF50FE6F58
:1016B000E92AEF50FD6FE92AEF50FC6FE92AEF505D
:1016C000FB6FE92AEF50FA6FE92AEF50F96FE92A28
:1016D000EF50F86FE92AEF50F76FE92AEF50F66FF5
:1016E000E92AEF50F56FE92AEF50F46FE92AEF503D
:1016F000F36FE92AEF50F26FE92AEF50F16FE92A10
:10170000EF50F06FE92AEF50EF6FE92AEF50EE6FDC
:10171000E92AEF50ED6FE92AEF50EC6FE928766F78
:101720001200646B656B666B676B686B696B6A6BE9
:101730006B6B6C6B6D6B6E6B61506F6F706BD89079
:101740006F35716F7035726FD89071377237D8906E
:10175000713772376250736F746BD8907431766FD3
:101760007331756F040E00015A6FD8900101763302
:10177000753300015A2FB5EF0BF00101755171114E
:10178000776F76517211786F6251775D00015A6FF1
:1017900001016351785D00015A1101018191D8B4B2
:1017A0008181818360BE81A1819381A315EF0CF0BB
:1017B0006150796F7A6BD89079357B6F7A357C6F11
:1017C000D8907B377C37D8907B377C3762507D6FE1
:1017D0007E6BD8907E31806F7D317F6F040E00016B
:1017E0005A6FD890010180337F3300015A2FF1EFF7
:1017F0000BF001017F517B11646F80517C11656F8B
:101800006550666F6650676F6750686F6850696FA4
:1018100069506A6F6A506B6F6B506C6F6C506D6F74
:101820006D506E6F609E42EF10F00F01315101015B
:101830006F6F706BD8906F35716F7035726FD89015
:1018400071377237D890713772370F0132510101F9
:10185000736F746BD8907431766F7331756F040E3B
:1018600000015A6FD89001017633753300015A2F69
:1018700032EF0CF0010175517111776F76517211D1
:10188000786F6251775D00015A6F01016351785D95
:1018900000015A1101018195D8B4818581970F010A
:1018A00030AF56EF0CF0010181B58187010181A7AE
:1018B000AEEF0CF00F0131510101796F7A6BD890C6
:1018C00079357B6F7A357C6FD8907B377C37D890B1
:1018D0007B377C370F01325101017D6F7E6BD890D1
:1018E0007E31806F7D317F6F040E00015A6FD8907A
:1018F000010180337F3300015A2F77EF0CF0010193
:101900007F517B11646F80517C11656F0F013551E0
:101910000101666F0F0136510101676F0F013751E9
:101920000101686F0F0138510101696F0F013951D1
:1019300001016A6F0F013A5101016B6F0F013B51B9
:1019400001016C6F0F013C5101016D6F0F013D51A1
:1019500001016E6F0F01309F42EF10F00E018151B7
:1019600001016F6F706BD8906F35716F7035726F4A
:10197000D89071377237D890713772370E01825113
:101980000101736F746BD8907431766F7331756F1A
:10199000040E00015A6FD8900101763375330001AF
:1019A0005A2FCBEF0CF0010175517111776F765101
:1019B0007211786F6251775D00015A6F01016351B6
:1019C000785D00015A1101018199D8B48189819B08
:1019D0000E0180AFEFEF0CF0010181B9818B0101A5
:1019E00081AB47EF0DF00E0181510101796F7A6BE8
:1019F000D89079357B6F7A357C6FD8907B377C3780
:101A0000D8907B377C370E01825101017D6F7E6B50
:101A1000D8907E31806F7D317F6F040E00015A6F48
:101A2000D890010180337F3300015A2F10EF0DF061
:101A300001017F517B11646F80517C11656F0E0134
:101A400085510101666F0E0186510101676F0E011C
:101A500087510101686F0E0188510101696F0E0104
:101A6000895101016A6F0E018A5101016B6F0E01EC
:101A70008B5101016C6F0E018C5101016D6F0E01D4
:101A80008D5101016E6F0E01809F42EF10F00E012B
:101A9000915101016F6F706BD8906F35716F703518
:101AA000726FD89071377237D890713772370E01D4
:101AB00092510101736F746BD8907431766F7331EA
:101AC000756F040E00015A6FD8900101763375339B
:101AD00000015A2F64EF0DF0010175517111776FFC
:101AE00076517211786F6251775D00015A6F010172
:101AF0006351785D00015A110101819DD8B4818D37
:101B0000819F0E0190AF88EF0DF0010181BD818FA3
:101B1000010181AFE0EF0DF00E0191510101796FEC
:101B20007A6BD89079357B6F7A357C6FD8907B371C
:101B30007C37D8907B377C370E01925101017D6F45
:101B40007E6BD8907E31806F7D317F6F040E0001F7
:101B50005A6FD890010180337F3300015A2FA9EFCB
:101B60000DF001017F517B11646F80517C11656F15
:101B70000E0195510101666F0E0196510101676FCB
:101B80000E0197510101686F0E0198510101696FB3
:101B90000E01995101016A6F0E019A5101016B6F9B
:101BA0000E019B5101016C6F0E019C5101016D6F83
:101BB0000E019D5101016E6F0E01909F42EF10F0DA
:101BC0000E01A15101016F6F706BD8906F35716F6D
:101BD0007035726FD89071377237D890713772370D
:101BE0000E01A2510101736F746BD8907431766F3E
:101BF0007331756F040E00015A6FD890010176336E
:101C0000753300015A2FFDEF0DF00101755171116F
:101C1000776F76517211786F6251775D00015A6F5C
:101C200001016351785D00015A1101018291D8B41C
:101C3000828182930E01A0AF21EF0EF0010182B1EB
:101C40008283010182A379EF0EF00E01A1510101FF
:101C5000796F7A6BD89079357B6F7A357C6FD890B5
:101C60007B377C37D8907B377C370E01A25101013E
:101C70007D6F7E6BD8907E31806F7D317F6F040EDB
:101C800000015A6FD890010180337F3300015A2F31
:101C900042EF0EF001017F517B11646F80517C1186
:101CA000656F0E01A5510101666F0E01A65101017C
:101CB000676F0E01A7510101686F0E01A851010164
:101CC000696F0E01A95101016A6F0E01AA5101014C
:101CD0006B6F0E01AB5101016C6F0E01AC51010134
:101CE0006D6F0E01AD5101016E6F0E01A09F42EFAD
:101CF00010F00E01B15101016F6F706BD8906F350C
:101D0000716F7035726FD89071377237D8907137A4
:101D100072370E01B2510101736F746BD890743138
:101D2000766F7331756F040E00015A6FD890010100
:101D30007633753300015A2F96EF0EF0010175517D
:101D40007111776F76517211786F6251775D000172
:101D50005A6F01016351785D00015A1101018295AA
:101D6000D8B4828582970E01B0AFBAEF0EF00101B0
:101D700082B58287010182A712EF0FF00E01B151E7
:101D80000101796F7A6BD89079357B6F7A357C6FEA
:101D9000D8907B377C37D8907B377C370E01B25197
:101DA00001017D6F7E6BD8907E31806F7D317F6FBA
:101DB000040E00015A6FD890010180337F33000177
:101DC0005A2FDBEF0EF001017F517B11646F8051C0
:101DD0007C11656F0E01B5510101666F0E01B651A0
:101DE0000101676F0E01B7510101686F0E01B85113
:101DF0000101696F0E01B95101016A6F0E01BA51FB
:101E000001016B6F0E01BB5101016C6F0E01BC51E2
:101E100001016D6F0E01BD5101016E6F0E01B09F8A
:101E200042EF10F00E01C15101016F6F706BD8903D
:101E30006F35716F7035726FD89071377237D89077
:101E4000713772370E01C2510101736F746BD890F4
:101E50007431766F7331756F040E00015A6FD8902C
:101E600001017633753300015A2F2FEF0FF0010176
:101E700075517111776F76517211786F6251775D7C
:101E800000015A6F01016351785D00015A1101018F
:101E90008299D8B48289829B0E01C0AF53EF0FF0B4
:101EA000010182B9828B010182ABABEF0FF00E0111
:101EB000C1510101796F7A6BD89079357B6F7A3592
:101EC0007C6FD8907B377C37D8907B377C370E017E
:101ED000C25101017D6F7E6BD8907E31806F7D3164
:101EE0007F6F040E00015A6FD890010180337F3359
:101EF00000015A2F74EF0FF001017F517B11646FC5
:101F000080517C11656F0E01C5510101666F0E0194
:101F1000C6510101676F0E01C7510101686F0E01C3
:101F2000C8510101696F0E01C95101016A6F0E01AB
:101F3000CA5101016B6F0E01CB5101016C6F0E0193
:101F4000CC5101016D6F0E01CD5101016E6F0E017B
:101F5000C09F42EF10F00E01D15101016F6F706B05
:101F6000D8906F35716F7035726FD8907137723746
:101F7000D890713772370E01D2510101736F746BB3
:101F8000D8907431766F7331756F040E00015A6FFB
:101F9000D89001017633753300015A2FC8EF0FF046
:101FA000010175517111776F76517211786F62511D
:101FB000775D00015A6F01016351785D00015A118C
:101FC0000101829DD8B4828D829F0E01D0AFECEFCB
:101FD0000FF0010182BD828F010182AF42EF10F04C
:101FE0000E01D1510101796F7A6BD89079357B6FF1
:101FF0007A357C6FD8907B377C37D8907B377C37AD
:102000000E01D25101017D6F7E6BD8907E31806FC1
:102010007D317F6F040E00015A6FD890010180332B
:102020007F3300015A2F0DEF10F001017F517B111A
:10203000646F80517C11656F0E01D5510101666F8F
:102040000E01D6510101676F0E01D7510101686F72
:102050000E01D8510101696F0E01D95101016A6F5A
:102060000E01DA5101016B6F0E01DB5101016C6F42
:102070000E01DC5101016D6F0E01DD5101016E6F2A
:102080000E01D09F0101645100015A6F0101655199
:1020900000015B6F0101665100015C6F0101675136
:1020A00000015D6F0101685100015E6F010169511E
:1020B00000015F6F01016A510001606F01016B5106
:1020C0000001616F01016C510001626F01016D51EE
:1020D0000001636F01016E510001646F1200010E77
:1020E000626F636B91EC0BF000015A510101456F77
:1020F00000015B510101466F00015C510101476F16
:1021000000015D510101486F00015E510101496FFD
:1021100000015F5101014A6F0001605101014B6FE5
:102120000001615101014C6F0001625101014D6FCD
:102130000001635101014E6F0001645101014F6FB5
:1021400047515E81D8B45E914851315D5E93D8B4F9
:102150005E835E855EB15EA35E954951325D5E979A
:10216000D8B45E875E895EB55EA75E994A51335DDD
:102170005E9BD8B45E8B5E8D5EB95EAB5E9D4B514F
:10218000345D5E9FD8B45E8F5F815EBD5EAF5F9150
:102190004C51355D5F93D8B45F835F855FB15FA3BA
:1021A0005F954D51365D5F97D8B45F875F895FB5A6
:1021B0005FA75F994E51375D5F9BD8B45F8B5F8D92
:1021C0005FB95FAB5F9D4F51385D5F9FD8B45F8F44
:1021D00060815FBD5FAF609160B100EF00F0120001
:1021E000316F626B3C5163EC04F000015C0E5A6F7E
:1021F0006B0E5B6F5B2FFAEF10F05A2FF8EF10F0B9
:102200000000000000000000000001013151506F8B
:102210003C51516F505100015A6F08EC06F0010E0D
:1022200000015A150101526F3D51536F3E51546FD9
:102230003F51556F4051566F4151576F4251586F42
:102240004351596F44515A6F010E626F3C5163EC18
:1022500004F00101505100015A6F01015151000178
:102260005B6F0101525100015C6F0101535100018C
:102270005D6F0101545100015E6F01015551000174
:102280005F6F010156510001606F0101575100015C
:10229000616F010158510001626F01015951000144
:1022A000636F01015A510001646F1200626B325179
:1022B00063EC04F000015C0E5A6F6B0E5B6F5B2FDA
:1022C0005FEF11F05A2F5DEF11F0000000000000E9
:1022D00000000000010133515C6F315100015A6F61
:1022E00008EC06F0010E00015A1501015D6F5C510A
:1022F0005D5DD8B499EF11F0D8B099EF11F0C80E28
:1023000000015A6F5B6B010E5C6F010134510001DB
:102310005D6F0101355100015E6F01013651000111
:102320005F6F010137510001606FB2EC0AF0B9EF45
:1023300011F05C515D5DD8B4B9EF11F0D8A0B9EFE0
:1023400011F0C80E00015A6F5B6B010E5C6F01014A
:10235000385100015D6F0101395100015E6F0101CB
:102360003A5100015F6F01013B510001606FB2EC17
:102370000AF001015D51336F010E626F325163EF5C
:1023800004F0316F506F3C51516F505100015A6F42
:1023900008EC06F0010E00015A150101526F51516F
:1023A00000015A6F08EC06F0010E00015A150101F8
:1023B000536F3D51546F3E51556F3F51566F4051D1
:1023C000576F4151586F4251596F43515A6F4451A1
:1023D0005B6F505100015A6F0101515100015B6F59
:1023E0000101525100015C6F0101535100015D6F09
:1023F0000101545100015E6F0101555100015F6FF1
:10240000010156510001606F010157510001616FD8
:10241000010158510001626F010159510001636FC0
:1024200001015A510001646F01015B510001656FA8
:102430001200BD515A6F08EC06F0010E00015A154A
:10244000C96FBF5DD8B461EF12F0BE515A6F08EC8E
:1024500006F0010E00015A15CA6FC05DD8B45FEFD7
:1024600012F0C951C019CB6FCB51D8A449EF12F06B
:10247000C80E5A6F5B6B020E5C6FC1515D6FC2512B
:102480005E6FC3515F6FC451606FB2EC0AF05CEFD6
:1024900012F0CB05D8A45CEF12F0C80E5A6F5B6B3C
:1024A000020E5C6FC5515D6FC6515E6FC7515F6FA5
:1024B000C851606FB2EC0AF00001CA51C06FC95137
:1024C000BF6F120000018E0E5A6FA70E5B6FA70E32
:1024D0005C6F5C2F69EF12F05B2F67EF12F05A2FE1
:1024E00065EF12F0000000000000EFEC06F0010EB6
:1024F0000101316F326B22EC07F0CFEC09F0010ED5
:102500000101626F150E63EC04F00101626B160E9F
:1025100063EC04F0130E01013C6F010E3D6F3E6B46
:102520003F6BE20E406F416B426B436BE20E446FB8
:10253000070EF0EC10F000015A51786F5B51796F83
:102540005C517A6F5D517B6F5E517C6F5F517D6F27
:1025500060517E6F61517F6F6251806F6351816FF7
:102560006451826F090E01013C6F020E3D6F3E6B9C
:102570003F6BE20E406F030E416F426B436BE20E06
:10258000446F080EC1EC11F000015A51836F5B518A
:10259000846F5C51856F5D51866F5E51876F5F51AF
:1025A000886F6051896F61518A6F62518B6F63517F
:1025B0008C6F64518D6F65518E6F130E01013C6FEE
:1025C000010E3D6F3E6B3F6BE40E406F416B426B03
:1025D000436BE40E446F0A0EF0EC10F000015A5108
:1025E0008F6F5B51906F5C51916F5D51926F5E5137
:1025F000936F5F51946F6051956F6151966F625107
:10260000976F6351986F6451996F0C0E01013C6F85
:10261000020E3D6F3E6B3F6BE40E406F030E416F49
:10262000426B436BE40E446F0B0EC1EC11F00001E2
:102630005A519A6F5B519B6F5C519C6F5D519D6FBE
:102640005E519E6F5F519F6F6051A06F6151A16F8E
:102650006251A26F6351A36F6451A46F6551A56F5E
:10266000130E01013C6F010E3D6F3E6B3F6BE60E9A
:10267000406F416B426B436BE60E446F0D0EF0EC06
:1026800010F000015A51A66F5B51A76F5C51A86F03
:102690005D51A96F5E51AA6F5F51AB6F6051AC6F16
:1026A0006151AD6F6251AE6F6351AF6F6451B06FE6
:1026B0000F0E01013C6F020E3D6F3E6B3F6BE60E4D
:1026C000406F030E416F426B436BE60E446F0E0E7C
:1026D000C1EC11F000015A51B16F5B51B26F5C5106
:1026E000B36F5D51B46F5E51B56F5F51B66F60519E
:1026F000B76F6151B86F6251B96F6351BA6F64516E
:10270000BB6F6551BC6F30EC04F041EF14F0F2A4E4
:1027100025EF14F08351BD6F8451BE6F8551BF6F9B
:102720008651C06F8751C16F8851C26F8951C36F85
:102730008A51C46F8B51C56F8C51C66F8D51C76F55
:102740008E51C86F19EC12F00001BD51836FBE515C
:10275000846FBF51856FC051866FC151876FC25161
:10276000886FC351896FC4518A6FC5518B6FC65131
:102770008C6FC7518D6FC8518E6F9A51BD6F9B5131
:10278000BE6F9C51BF6F9D51C06F9E51C16F9F51D5
:10279000C26FA051C36FA151C46FA251C56FA351A5
:1027A000C66FA451C76FA551C86F19EC12F0000194
:1027B000BD519A6FBE519B6FBF519C6FC0519D6FB1
:1027C000C1519E6FC2519F6FC351A06FC451A16F81
:1027D000C551A26FC651A36FC751A46FC851A56F51
:1027E000B151BD6FB251BE6FB351BF6FB451C06F25
:1027F000B551C16FB651C26FB751C36FB851C46FF5
:10280000B951C56FBA51C66FBB51C76FBC51C86FC4
:1028100019EC12F00001BD51B16FBE51B26FBF5142
:10282000B36FC051B46FC151B56FC251B66FC351D0
:10283000B76FC451B86FC551B96FC651BA6FC751A0
:10284000BB6FC851BC6F3DEC04F0000166515A6F7C
:1028500067515B6F68515C6F69515D6F6A515E6F64
:102860006B515F6F6C51606F6D51616F6E51626F34
:102870006F51636F7051646F7451E96E7551EA6EF8
:102880001100700E0101316F6E0E326F6C0E336FDE
:102890005F0E346F300E356F366F376F320E386F14
:1028A0006FEC10F0000178510101316F0001795196
:1028B0000101326F00017A510101336F00017B5138
:1028C0000101346F00017C510101356F00017D5120
:1028D0000101366F00017E510101376F00017F5108
:1028E0000101386F000180510101396F00018151F0
:1028F00001013A6F0001825101013B6F56EC11F06A
:10290000010131510001786F010132510001796FED
:102910000101335100017A6F0101345100017B6FD5
:102920000101355100017C6F0101365100017D6FBD
:102930000101375100017E6F0101385100017F6FA5
:10294000010139510001806F01013A510001816F8D
:1029500001013B510001826F8F510101316F000174
:1029600090510101326F000191510101336F00015B
:1029700092510101346F000193510101356F000143
:1029800094510101366F000195510101376F00012B
:1029900096510101386F000197510101396F000113
:1029A000985101013A6F0001995101013B6F56ECBA
:1029B00011F00101315100018F6F0101325100010D
:1029C000906F010133510001916F010134510001F9
:1029D000926F010135510001936F010136510001E1
:1029E000946F010137510001956F010138510001C9
:1029F000966F010139510001976F01013A510001B1
:102A0000986F01013B510001996FA6510101316F8F
:102A10000001A7510101326F0001A8510101336F7C
:102A20000001A9510101346F0001AA510101356F64
:102A30000001AB510101366F0001AC510101376F4C
:102A40000001AD510101386F0001AE510101396F34
:102A50000001AF5101013A6F0001B05101013B6F1C
:102A600056EC11F0010131510001A66F0101325104
:102A70000001A76F010133510001A86F010134511A
:102A80000001A96F010135510001AA6F0101365102
:102A90000001AB6F010137510001AC6F01013851EA
:102AA0000001AD6F010139510001AE6F01013A51D2
:102AB0000001AF6F01013B510001B06F41EF14F015
:020000040030CA
:0E0000005D087F7F008991000FC00FE00F4068
:00000001FF
