:020000040000FA
:1008000002EF04F047EF06F00000000000000000D7
:100810000404040404040404050505050505050590
:100820000505050505050505010101010101010198
:1008300000000000000000000C110C120C131C132F
:100840003C131C130C130C120C113C0D2C0A3C080D
:100850000C071C053C032C013C180C173C141C1302
:100860002C113C0F0C0E3C0A2C072C062C051C05E9
:100870003C041C052C052C062C073C0A0C0E3C0FD6
:100880002C111C133C140C170C002C013C031C05F0
:100890000C073C082C0A3C0D0C113C0D2C0A3C08A2
:1008A0000C071C053C032C013C180C173C141C13B2
:1008B0002C113C0F0C0E3C0A2C072C062C051C0599
:1008C0003C041C052C052C062C073C0A0C0E3C0F86
:1008D0002C111C133C140C170C002C013C031C05A0
:1008E0000C073C082C0A3C0D0C110C120C131C13A9
:1008F0003C131C130C130C1216501902F3501F6EEC
:10090000F450206E216A226A236A246A16501A0261
:10091000F3502026F4502122000E006E22220050B7
:1009200023220050242216501B02F3502126F4509B
:100930002222000E006E23220050242216501C0298
:10094000F3502226F4502322000E006E242216506B
:100950001D02F3502326F450242216501E02F35099
:10096000242617501902F3502026F4502122000E9D
:10097000006E2222005023220050242217501A0217
:10098000F3502126F4502222000E006E2322005044
:10099000242217501B02F3502226F4502322000E6B
:1009A000006E242217501C02F3502326F4502422F8
:1009B00017501D02F350242618501902F350212617
:1009C000F4502222000E006E2322005024221850E0
:1009D0001A02F3502226F4502322000E006E242225
:1009E00018501B02F3502326F450242218501C02E6
:1009F000F35024261200200E266E1A6A1B6A1C6A07
:100A00001D6AD8902236233624362536D8901636DD
:100A10001736183619361A361B361C361D361D5039
:100A2000215CD8A420EF05F01C50205CD8A420EF56
:100A300005F01B501F5CD8A420EF05F01A501E5C77
:100A4000D8B426EF05F0D8B034EF05F0D8801A50AE
:100A50001E541A6E1B501F541B6E1C5020541C6ECB
:100A60001D5021541D6E2280262E01EF05F012002C
:100A7000800E301A2A342B34FF0BD8A449EF05F02E
:100A80002D50286E2E50296E2F502A6E30502B6E0E
:100A900012002C6E2F343034FF0BD8B41200316E9C
:100AA0002C5CD8B485EF05F0D8A068EF05F0E90F0D
:100AB000D8B012002A8E2F8E170FD8902F322E32D8
:100AC0002D32312AFF0FD8A45DEF05F087EF05F036
:100AD0002C50315CE90FD8A077EF05F02D50286E2F
:100AE0002E50296E2F502A6E30502B6E12002A8EF7
:100AF0002F8E170FD8902A32293228322C2AFF0F36
:100B0000D8A47AEF05F087EF05F02A8E2F8E2B50B0
:100B10003018800BD8B495EF05F02D1E2E1E2F1E19
:100B20002D2AD8B42E2AD8B42F2A2D5028262E505C
:100B300029222F502A222B503018800BD8B4B3EF23
:100B400005F0D8B0BAEF05F0281E291E2A1E282A63
:100B5000D8B4292AD8B42A2A2B502B8E800BD8A49B
:100B60002B9EBAEF05F0D8A0BAEF05F02A32293251
:100B700028322C2A285029102A10D8A4C2EF05F0B8
:100B80002B6A1200C9EF05F0D890283629362A368C
:100B90002C062AAEC4EF05F02A9E800E2B16D890A4
:100BA0002C302B12D8B02A8E12002A342B34FF0B93
:100BB000D8B412002C6E2F343034FF0BD8A4E6EFDB
:100BC00005F0286A296A2A6A2B6A1200810F2C26EE
:100BD00030502B18800B2B6E2A8E2F8E2850166EBD
:100BE0002950176E2A50186E2D50196E2E501A6EFD
:100BF0002F501B6E1C6A1D6A1E6A7CEC04F024AE2A
:100C000005EF06F02C2A11EF06F02C06D8902C2ABE
:100C10001F362036213622362336243624AE06EF00
:100C200006F02250286E2350296E24507F0B2A6E26
:100C3000D8902C30D8B02A8E2B121200326A336A28
:100C4000346A356A2A342B34FF0BD8B41200820F71
:100C5000D8A01200D8B412002A8E2C6ED890283654
:100C600029362A3632363336343635362C2E2EEFA8
:100C700006F02BAE1200321E331E341E351E322AF1
:100C8000D8B4332AD8B4342AD8B4352A12000F0184
:100C90005D6B5C6BC26AC16AC06A5F6B5E6B916AB6
:100CA000F26AF16AF06A896A926A8A6A080E936E39
:100CB000F30E5B6F8B6A946A8C6A956A8D6A080E74
:100CC000966EC00E566F400E9B6E180ECB6E070EC2
:100CD000CA6E366A376A386A396A3A6A3B6A3C6A67
:100CE0003D6A3E6AD6EF0EF037503B5C166E3850C8
:100CF0003C5C161239503D5C16123A503E5C1610A0
:100D0000D8B457EF07F0300E1E6E1F6A206A216AB2
:100D10003750166E3850176E3950186E3A50196E9B
:100D2000FBEC04F01A50366E080EF66E080EF76EE5
:100D3000000EF86E3650F626000E006EF7220050B8
:100D4000F8220900F550896ED890363400017F6F83
:100D5000380EF66E080EF76E000EF86E7F51F6260E
:100D6000000E006EF7220050F8220900F550186EB0
:100D70000900F550196E166E176A16500F014B6F69
:100D8000D890363400017F6F980EF66E080EF76E1D
:100D9000000EF86E7F51F626000E006EF72200500E
:100DA000F8220900F550186E0900F550196E166EFC
:100DB000176A16500F01486FD890363400017F6FC4
:100DC000380EF66E080EF76E000EF86E7F51F6269E
:100DD000000E006EF7220050F8220900F550166E42
:100DE0000900F550176E16500F014A6FD89036342F
:100DF00000017F6F980EF66E080EF76E000EF86E0B
:100E00007F51F626000E006EF7220050F8220900EE
:100E1000F550166E0900F550176E16500F01476F0A
:100E20003A503E5CD8A421EF07F039503D5CD8A47D
:100E300021EF07F038503C5CD8A421EF07F0375081
:100E40003B5CD8B430EF07F0D8A030EF07F0372A7A
:100E5000D8B4382AD8B4392AD8B43A2A4FEF07F090
:100E60003A503E5CD8A441EF07F039503D5CD8A41D
:100E700041EF07F038503C5CD8A441EF07F0375001
:100E80003B5CD8B44FEF07F0D8B04FEF07F0010E3E
:100E9000375ED8A0385ED8A0395ED8A03A5E00018F
:100EA0004F0E166E162E52EF07F074EF06F012007A
:100EB000800E6F6E6E38166E1632070E1616040E02
:100EC000165CD8A45AEF07F0500E726E0E017D6BBF
:100ED000020E436FAC0E446F030E456FFA6BFB6B53
:100EE000FF0EF86FE00EF96F796B7A6B7B6B7C6BA2
:100EF000466B476BFF0E716FFF0E726FFF0E736FC5
:100F0000FF0E746FFF0E756FFF0E766FFF0E776F1B
:100F1000FF0E786F12000E014651D8A4AFEF07F014
:100F200000017F513F6E8051406E0E01E26BE36B1A
:100F3000D8904030176E3F30166ED8901732163268
:100F4000D890173216321650E06F3F38F00BE16F31
:100F5000D890E137F00E716F010E466F1200460512
:100F6000D8A4D2EF07F000017F51416E8051426E4C
:100F70000E01E66BE76BD8904230176E4130166E6B
:100F8000D89017321632D890173216321650E46FB6
:100F90004138F00BE56FD890E537100E716F030EF6
:100FA000466F1200030E465DD8A4F6EF07F000016D
:100FB0007F51436E8051446E0E01EA6BEB6BD8900B
:100FC0004430176E4330166ED89017321632D890D0
:100FD000173216321650E86F4338F00BE96FD8908D
:100FE000E937F20E726F070E466F1200070E465D6C
:100FF000D8A41AEF08F000017F51456E8051466E6B
:101000000E01EE6BEF6BD8904630176E4530166EC2
:10101000D89017321632D890173216321650EC6F1D
:101020004538F00BED6FD890ED37320E726F0F0E22
:10103000466F12000F0E465DD8A43EEF08F0000187
:101040007F51476E8051486E0E01F26BF36BD89062
:101050004830176E4730166ED89017321632D89037
:10106000173216321650F06F4738F00BF16FD890E8
:10107000F137F40E736F1F0E466F12001F0E465DA0
:10108000D8A462EF08F000017F51496E80514A6E8A
:101090000E01F66BF76BD8904A30176E4930166E1A
:1010A000D89017321632D890173216321650F46F85
:1010B0004938F00BF56FD890F537540E736F3F0E2B
:1010C000466F12003F0E465DD8A486EF08F000017F
:1010D0007F514B6E80514C6E0E014A6B4B6BD8901A
:1010E0004C30176E4B30166ED89017321632D8909F
:1010F000173216321650486F4B38F00B496FD890A4
:101100004937F60E746F7F0E466F12007F0E465DF4
:10111000D8A4AAEF08F000017F514D6E80514E6EA9
:101120000E014E6B4F6BD8904E30176E4D30166ED1
:10113000D89017321632D8901732163216504C6F9C
:101140004D38F00B4D6FD8904D37760E746FFF0E03
:10115000466F12004751D8A4CDEF08F000017F512F
:101160004F6E8051506E0E01526B536BD8905030C1
:10117000176E4F30166ED89017321632D89017323D
:1011800016321650506F4F38F00B516FD8905137C0
:10119000F00E756F010E476F12004705D8A4F0EFEF
:1011A00008F000017F51516E8051526E0E01566B56
:1011B000576BD8905230176E5130166ED890173248
:1011C0001632D890173216321650546F5138F00B31
:1011D000556FD8905537100E756F030E476F12007C
:1011E000030E475DD8A414EF09F000017F51536E40
:1011F0008051546E0E015A6B5B6BD8905430176E51
:101200005330166ED89017321632D89017321632E5
:101210001650586F5338F00B596FD8905937F20E5B
:10122000766F070E476F1200070E475DD8A438EFA0
:1012300009F000017F51556E8051566E0E015E6BB4
:101240005F6BD8905630176E5530166ED8901732A7
:101250001632D8901732163216505C6F5538F00B94
:101260005D6FD8905D37320E766F0F0E476F1200AC
:101270000F0E475DD8A45CEF09F000017F51576E57
:101280008051586E0E01626B636BD8905830176EA8
:101290005730166ED89017321632D8901732163251
:1012A0001650606F5738F00B616FD8906137F40EAD
:1012B000776F1F0E476F12001F0E475DD8A480EF97
:1012C00009F000017F51596E80515A6E0E01666B14
:1012D000676BD8905A30176E5930166ED890173207
:1012E0001632D890173216321650646F5938F00BF8
:1012F000656FD8906537540E776F3F0E476F1200B9
:101300003F0E475DD8A4A4EF09F000017F515B6E4A
:1013100080515C6E0E016A6B6B6BD8905C30176EFF
:101320005B30166ED89017321632D89017321632BC
:101330001650686F5B38F00B696FD8906937F60EFE
:10134000786F7F0E476F12007F0E475DD8A4C7EFFE
:1013500009F000017F515D6E80515E6E0E016E6B73
:101360006F6BD8905E30176E5D30166ED890173266
:101370001632D8901732163216506C6F5D38F00B5B
:101380006D6FD8906D37760E786FFF0E476F120035
:10139000606A0F01306B0E01806B906BA06BB06BBD
:1013A000C06BD06B200E706E6F6A6E38166E163280
:1013B000070E16161650D8A4D5EF09F012009E6B32
:1013C0009F6BA06BA16BA26BA36BA46BA56BA66BB1
:1013D000A76BA86B6150A96FAA6BD890A935AB6FAA
:1013E000AA35AC6FD890AB37AC37D890AB37AC37A9
:1013F0006250AD6FAE6BD890AE31B06FAD31AF6FA4
:10140000040E166ED890B033AF33162E02EF0AF0EA
:10141000AF51AB11B16FB051AC11B26F9C51B15D16
:10142000166E9D51B25D1610BB91D8B4BB81BB83C3
:1014300060BEBBA1BB93BBA357EF0AF06150B36F73
:10144000B46BD890B335B56FB435B66FD890B537A7
:10145000B637D890B537B6376250B76FB86BD890FB
:10146000B831BA6FB731B96F040E166ED890BA336F
:10147000B933162E36EF0AF0B951B5119E6FBA5135
:10148000B6119F6F6550A06F6650A16F6750A26F35
:101490006850A36F6950A46F6A50A56F6B50A66F18
:1014A0006C50A76F6D50A86F609E30EF0EF00F016B
:1014B00031510001A96FAA6BD890A935AB6FAA353D
:1014C000AC6FD890AB37AC37D890AB37AC370F0197
:1014D00032510001AD6FAE6BD890AE31B06FAD310F
:1014E000AF6F040E166ED890B033AF33162E73EF75
:1014F0000AF0AF51AB11B16FB051AC11B26F9C514A
:10150000B15D166E9D51B25D1610BB95D8B4BB850A
:10151000BB970F0130AF90EF0AF00001BBB5BB875E
:101520000001BBA7E4EF0AF00F0131510001B36FD6
:10153000B46BD890B335B56FB435B66FD890B537B6
:10154000B637D890B537B6370F0132510001B76FB3
:10155000B86BD890B831BA6FB731B96F040E166E48
:10156000D890BA33B933162EB0EF0AF0B951B5118D
:101570009E6FBA51B6119F6F0F0135510001A06FD8
:101580000F0136510001A16F0F0137510001A26F09
:101590000F0138510001A36F0F0139510001A46FF1
:1015A0000F013A510001A56F0F013B510001A66FD9
:1015B0000F013C510001A76F0F013D510001A86FC1
:1015C0000F01309F30EF0EF00E0181510001A96F25
:1015D000AA6BD890A935AB6FAA35AC6FD890AB3752
:1015E000AC37D890AB37AC370E0182510001AD6FEC
:1015F000AE6BD890AE31B06FAD31AF6F040E166EDA
:10160000D890B033AF33162E00EF0BF0AF51AB11C3
:10161000B16FB051AC11B26F9C51B15D166E9D515E
:10162000B25D1610BB99D8B4BB89BB9B0E0180AFCD
:101630001DEF0BF00001BBB9BB8B0001BBAB71EF21
:101640000BF00E0181510001B36FB46BD890B3352C
:10165000B56FB435B66FD890B537B637D890B537C3
:10166000B6370E0182510001B76FB86BD890B83110
:10167000BA6FB731B96F040E166ED890BA33B9335A
:10168000162E3DEF0BF0B951B5119E6FBA51B61140
:101690009F6F0E0185510001A06F0E018651000160
:1016A000A16F0E0187510001A26F0E018851000148
:1016B000A36F0E0189510001A46F0E018A51000130
:1016C000A56F0E018B510001A66F0E018C51000118
:1016D000A76F0E018D510001A86F0E01809F30EFA2
:1016E0000EF00E0191510001A96FAA6BD890A93597
:1016F000AB6FAA35AC6FD890AB37AC37D890AB375F
:10170000AC370E0192510001AD6FAE6BD890AE3187
:10171000B06FAD31AF6F040E166ED890B033AF33EB
:10172000162E8DEF0BF0AF51AB11B16FB051AC1164
:10173000B26F9C51B15D166E9D51B25D1610BB9D8E
:10174000D8B4BB8DBB9F0E0190AFAAEF0BF0000188
:10175000BBBDBB8F0001BBAFFEEF0BF00E01915183
:101760000001B36FB46BD890B335B56FB435B66FB5
:10177000D890B537B637D890B537B6370E019251F5
:101780000001B76FB86BD890B831BA6FB731B96F85
:10179000040E166ED890BA33B933162ECAEF0BF07A
:1017A000B951B5119E6FBA51B6119F6F0E01955187
:1017B0000001A06F0E0196510001A16F0E0197511B
:1017C0000001A26F0E0198510001A36F0E01995103
:1017D0000001A46F0E019A510001A56F0E019B51EB
:1017E0000001A66F0E019C510001A76F0E019D51D3
:1017F0000001A86F0E01909F30EF0EF00E01A15175
:101800000001A96FAA6BD890A935AB6FAA35AC6F50
:10181000D890AB37AC37D890AB37AC370E01A2516C
:101820000001AD6FAE6BD890AE31B06FAD31AF6F20
:10183000040E166ED890B033AF33162E1AEF0CF09C
:10184000AF51AB11B16FB051AC11B26F9C51B15DE2
:10185000166E9D51B25D1610BC91D8B4BC81BC937C
:101860000E01A0AF37EF0CF00001BCB1BC8300014A
:10187000BCA38BEF0CF00E01A1510001B36FB46B50
:10188000D890B335B56FB435B66FD890B537B63795
:10189000D890B537B6370E01A2510001B76FB86BBB
:1018A000D890B831BA6FB731B96F040E166ED890B0
:1018B000BA33B933162E57EF0CF0B951B5119E6FEC
:1018C000BA51B6119F6F0E01A5510001A06F0E0114
:1018D000A6510001A16F0E01A7510001A26F0E01D8
:1018E000A8510001A36F0E01A9510001A46F0E01C0
:1018F000AA510001A56F0E01AB510001A66F0E01A8
:10190000AC510001A76F0E01AD510001A86F0E018F
:10191000A09F30EF0EF00E01B1510001A96FAA6B2C
:10192000D890A935AB6FAA35AC6FD890AB37AC3730
:10193000D890AB37AC370E01B2510001AD6FAE6B32
:10194000D890AE31B06FAD31AF6F040E166ED89037
:10195000B033AF33162EA7EF0CF0AF51AB11B16F10
:10196000B051AC11B26F9C51B15D166E9D51B25D1C
:101970001610BC95D8B4BC85BC970E01B0AFC4EFAF
:101980000CF00001BCB5BC870001BCA718EF0DF03E
:101990000E01B1510001B36FB46BD890B335B56F80
:1019A000B435B66FD890B537B637D890B537B637A7
:1019B0000E01B2510001B76FB86BD890B831BA6F51
:1019C000B731B96F040E166ED890BA33B933162EEC
:1019D000E4EF0CF0B951B5119E6FBA51B6119F6F7B
:1019E0000E01B5510001A06F0E01B6510001A16FAB
:1019F0000E01B7510001A26F0E01B8510001A36F93
:101A00000E01B9510001A46F0E01BA510001A56F7A
:101A10000E01BB510001A66F0E01BC510001A76F62
:101A20000E01BD510001A86F0E01B09F30EF0EF006
:101A30000E01C1510001A96FAA6BD890A935AB6FF7
:101A4000AA35AC6FD890AB37AC37D890AB37AC3742
:101A50000E01C2510001AD6FAE6BD890AE31B06FC8
:101A6000AD31AF6F040E166ED890B033AF33162E73
:101A700034EF0DF0AF51AB11B16FB051AC11B26F8B
:101A80009C51B15D166E9D51B25D1610BC99D8B4D3
:101A9000BC89BC9B0E01C0AF51EF0DF00001BCB979
:101AA000BC8B0001BCABA5EF0DF00E01C1510001D4
:101AB000B36FB46BD890B335B56FB435B66FD890FB
:101AC000B537B637D890B537B6370E01C2510001D9
:101AD000B76FB86BD890B831BA6FB731B96F040E21
:101AE000166ED890BA33B933162E71EF0DF0B95186
:101AF000B5119E6FBA51B6119F6F0E01C55100010D
:101B0000A06F0E01C6510001A16F0E01C751000167
:101B1000A26F0E01C8510001A36F0E01C95100014F
:101B2000A46F0E01CA510001A56F0E01CB51000137
:101B3000A66F0E01CC510001A76F0E01CD5100011F
:101B4000A86F0E01C09F30EF0EF00E01D1510001C1
:101B5000A96FAA6BD890A935AB6FAA35AC6FD89096
:101B6000AB37AC37D890AB37AC370E01D251000150
:101B7000AD6FAE6BD890AE31B06FAD31AF6F040EBC
:101B8000166ED890B033AF33162EC1EF0DF0AF51B3
:101B9000AB11B16FB051AC11B26F9C51B15D166E0B
:101BA0009D51B25D1610BC9DD8B4BC8DBC9F0E017A
:101BB000D0AFDEEF0DF00001BCBDBC8F0001BCAFAB
:101BC00030EF0EF00E01D1510001B36FB46BD8901D
:101BD000B335B56FB435B66FD890B537B637D89042
:101BE000B537B6370E01D2510001B76FB86BD89038
:101BF000B831BA6FB731B96F040E166ED890BA33D8
:101C0000B933162EFEEF0DF0B951B5119E6FBA51D2
:101C1000B6119F6F0E01D5510001A06F0E01D65174
:101C20000001A16F0E01D7510001A26F0E01D85122
:101C30000001A36F0E01D9510001A46F0E01DA510A
:101C40000001A56F0E01DB510001A66F0E01DC51F2
:101C50000001A76F0E01DD510001A86F0E01D09F9A
:101C600000019E51166E9F51176EA051186EA15122
:101C7000196EA2511A6EA3511B6EA4511C6EA55170
:101C80001D6EA6511E6EA7511F6EA851206E120028
:101C90008651986F8751976F8851966F8951956FCC
:101CA0009551166E9651176E9751186E9851196E80
:101CB00012008651986F8751976F8851966F89519E
:101CC000956F9551166E9651176E9751186E9851E3
:101CD000196E1200010E9C6F9D6BDFEC09F016501F
:101CE00000018A6F17508B6F18508C6F19508D6FD1
:101CF0001A508E6F1B508F6F1C50906F1D50916F3C
:101D00001E50926F1F50936F2050946F8C51998189
:101D1000D8B499918D517F5D9993D8B49983998561
:101D200099B199A399958E51805D9997D8B4998767
:101D3000998999B599A799998F51815D999BD8B443
:101D4000998B998D99B999AB999D9051825D999F85
:101D5000D8B4998F9A8199BD99AF9A919151835D29
:101D60009A93D8B49A839A859AB19AA39A959251E4
:101D7000845D9A97D8B49A879A899AB59AA79A99BE
:101D80009351855D9A9BD8B49A8B9A8D9AB99AABE8
:101D90009A9D9451865D9A9FD8B49A8F9B819ABDE3
:101DA0009AAF9B919BB100EF00F0120000016E6BA7
:101DB0006F6B706B716B00018E0E166EA70E176E37
:101DC000A70E186E182EE2EF0EF0172EE0EF0EF0B1
:101DD000162EDEEF0EF00000000000008D808D82D8
:101DE000376A386A396A3A6A880E3B6E1D0E3C6E55
:101DF0003D6A3E6A74EC06F0880E376E1D0E386E32
:101E0000396A3A6A3B6A3C6A3D6A3E6A74EC06F09B
:101E1000376A386A396A3A6A3B6A3C6A3D6A3E6A9E
:101E200058EC07F0010E00017F6F806B8BEC07F020
:101E3000D20E00017F6F806B8BEC07F0F90E000172
:101E40007F6F010E806F8BEC07F0C8EC09F08D906E
:101E50008D92720E00017F6F700E806F6D0E816F1C
:101E60005F0E826F300E836F846F856F310E866FC9
:101E70006AEC0EF0D20E00019C6F9D6BDFEC09F056
:101E8000165000015F6F1750606F1850616F195046
:101E9000626F1A50636F1B50646F1C50656F1D504A
:101EA000666F1E50676F1F50686F2050696F6151D9
:101EB000D8B492EF0FF05F517F6F6051806F615126
:101EC000816F6251826F6351836F6451846F65517A
:101ED000856F6651866F6751876F6851886F69514A
:101EE000896F59EC0EF0165000016A6F17506B6F36
:101EF00018506C6F19506D6F010E6A15166E1650E2
:101F0000D8B486EF0FF08D8087EF0FF08D90010E23
:101F10006A15166E1650D8B491EF0FF08D8292EFBD
:101F20000FF08D92F90E9C6F010E9D6FDFEC09F0A2
:101F3000165000015F6F1750606F1850616F195095
:101F4000626F1A50636F1B50646F1C50656F1D5099
:101F5000666F1E50676F1F50686F2050696F615128
:101F6000D8B429EF0FF05F517F6F6051806F6151DE
:101F7000816F6251826F6351836F6451846F6551C9
:101F8000856F6651866F6751876F6851886F695199
:101F9000896F48EC0EF0165000016E6F17506F6F8E
:101FA0001850706F1950716F726B736B746B756B27
:101FB00072512D6E73512E6E74512F6E7551306E9D
:101FC0006E51286E6F51296E70512A6E71512B6EB1
:101FD00038EC05F02A342B34FF0BD8902BBED88078
:101FE000D8B4F6EF0FF0D8A0FCEF0FF03B6A3C6AD4
:101FF0003D6A3E6A9EEF10F00001726B736B746B6A
:10200000756B6E512D6E6F512E6E70512F6E71511A
:10201000306E7251286E7351296E74512A6E75514B
:102020002B6E38EC05F02C6A2A342B34FF0BD8B415
:102030001CEF10F02BBE2C2A2C5000017E97D8A448
:102040007E87766B776BC80E786F420E796F76510C
:102050002D6E77512E6E78512F6E7951306E6E51F4
:10206000286E6F51296E70512A6E71512B6E38ECAB
:1020700005F02C6A2A342B34FF0B2BBED884D8B43D
:102080002C2A2C5000017E99D8A47E897E8B7EB7A5
:102090007EA97E9B7EAB74EF10F09A0E2D6E990E8A
:1020A0002E6E810E2F6E420E306E6E51286E6F5165
:1020B000296E70512A6E71512B6ED5EC05F01EEC15
:1020C00006F0325000017A6F33507B6F34507C6FD2
:1020D00035507D6F7A513B6E7B513C6E7C513D6E2D
:1020E0007D513E6E9EEF10F0726B736BC80E746F75
:1020F000420E756F6E512D6E6F512E6E70512F6E98
:102100007151306E7251286E7351296E74512A6E5E
:1021100075512B6E38EC05F02A342B34FF0BD89018
:102120002BBED880D8B49EEF10F0D8A09EEF10F050
:10213000500E3B6E190E3C6E3D6A3E6A74EC06F022
:0421400029EF0FF084
:020000040030CA
:0E0000005D087F7F008991000FC00FE00F4068
:00000001FF
