:020000040000FA
:1008000002EF04F047EF06F00000000000000000D7
:100810000202020202020202060606060606060698
:100820000606060606060606040404040404040478
:1008300000000000000000000C110C120C131C132F
:100840003C131C130C130C120C113C0D2C0A3C080D
:100850000C071C053C032C013C180C173C141C1302
:100860002C113C0F0C0E3C0A2C072C062C051C05E9
:100870003C041C052C052C062C073C0A0C0E3C0FD6
:100880002C111C133C140C170C002C013C031C05F0
:100890000C073C082C0A3C0D0C113C0D2C0A3C08A2
:1008A0000C071C053C032C013C180C173C141C13B2
:1008B0002C113C0F0C0E3C0A2C072C062C051C0599
:1008C0003C041C052C052C062C073C0A0C0E3C0F86
:1008D0002C111C133C140C170C002C013C031C05A0
:1008E0000C073C082C0A3C0D0C110C120C131C13A9
:1008F0003C131C130C130C1216501902F3501F6EEC
:10090000F450206E216A226A236A246A16501A0261
:10091000F3502026F4502122000E006E22220050B7
:1009200023220050242216501B02F3502126F4509B
:100930002222000E006E23220050242216501C0298
:10094000F3502226F4502322000E006E242216506B
:100950001D02F3502326F450242216501E02F35099
:10096000242617501902F3502026F4502122000E9D
:10097000006E2222005023220050242217501A0217
:10098000F3502126F4502222000E006E2322005044
:10099000242217501B02F3502226F4502322000E6B
:1009A000006E242217501C02F3502326F4502422F8
:1009B00017501D02F350242618501902F350212617
:1009C000F4502222000E006E2322005024221850E0
:1009D0001A02F3502226F4502322000E006E242225
:1009E00018501B02F3502326F450242218501C02E6
:1009F000F35024261200200E266E1A6A1B6A1C6A07
:100A00001D6AD8902236233624362536D8901636DD
:100A10001736183619361A361B361C361D361D5039
:100A2000215CD8A420EF05F01C50205CD8A420EF56
:100A300005F01B501F5CD8A420EF05F01A501E5C77
:100A4000D8B426EF05F0D8B034EF05F0D8801A50AE
:100A50001E541A6E1B501F541B6E1C5020541C6ECB
:100A60001D5021541D6E2280262E01EF05F012002C
:100A7000800E301A2A342B34FF0BD8A449EF05F02E
:100A80002D50286E2E50296E2F502A6E30502B6E0E
:100A900012002C6E2F343034FF0BD8B41200316E9C
:100AA0002C5CD8B485EF05F0D8A068EF05F0E90F0D
:100AB000D8B012002A8E2F8E170FD8902F322E32D8
:100AC0002D32312AFF0FD8A45DEF05F087EF05F036
:100AD0002C50315CE90FD8A077EF05F02D50286E2F
:100AE0002E50296E2F502A6E30502B6E12002A8EF7
:100AF0002F8E170FD8902A32293228322C2AFF0F36
:100B0000D8A47AEF05F087EF05F02A8E2F8E2B50B0
:100B10003018800BD8B495EF05F02D1E2E1E2F1E19
:100B20002D2AD8B42E2AD8B42F2A2D5028262E505C
:100B300029222F502A222B503018800BD8B4B3EF23
:100B400005F0D8B0BAEF05F0281E291E2A1E282A63
:100B5000D8B4292AD8B42A2A2B502B8E800BD8A49B
:100B60002B9EBAEF05F0D8A0BAEF05F02A32293251
:100B700028322C2A285029102A10D8A4C2EF05F0B8
:100B80002B6A1200C9EF05F0D890283629362A368C
:100B90002C062AAEC4EF05F02A9E800E2B16D890A4
:100BA0002C302B12D8B02A8E12002A342B34FF0B93
:100BB000D8B412002C6E2F343034FF0BD8A4E6EFDB
:100BC00005F0286A296A2A6A2B6A1200810F2C26EE
:100BD00030502B18800B2B6E2A8E2F8E2850166EBD
:100BE0002950176E2A50186E2D50196E2E501A6EFD
:100BF0002F501B6E1C6A1D6A1E6A7CEC04F024AE2A
:100C000005EF06F02C2A11EF06F02C06D8902C2ABE
:100C10001F362036213622362336243624AE06EF00
:100C200006F02250286E2350296E24507F0B2A6E26
:100C3000D8902C30D8B02A8E2B121200326A336A28
:100C4000346A356A2A342B34FF0BD8B41200820F71
:100C5000D8A01200D8B412002A8E2C6ED890283654
:100C600029362A3632363336343635362C2E2EEFA8
:100C700006F02BAE1200321E331E341E351E322AF1
:100C8000D8B4332AD8B4342AD8B4352A1200180E6E
:100C9000CB6E070ECA6E0F015D6B5C6BC26AC16AD8
:100CA000926A5B0E936E130E5B6F946A896A080EEC
:100CB0008A6E8B6A400E9B6E366A376A386A396A6A
:100CC0003A6A3B6A3C6A3D6A3E6AC9EF0EF03750A9
:100CD0003B5C166E38503C5C161239503D5C161267
:100CE0003A503E5C1610D8B44AEF07F0300E1E6E34
:100CF0001F6A206A216A3750166E3850176E3950B5
:100D0000186E3A50196EFBEC04F01A50366E080E4D
:100D1000F66E080EF76E000EF86E3650F626000ED0
:100D2000006EF7220050F8220900F550896ED89025
:100D300036340001896F380EF66E080EF76E000E1D
:100D4000F86E8951F626000E006EF7220050F82248
:100D50000900F550186E0900F550196E166E176AE5
:100D600016500F01516FD89036340001896F980EDC
:100D7000F66E080EF76E000EF86E8951F626000E1C
:100D8000006EF7220050F8220900F550186E090095
:100D9000F550196E166E176A16500F01486FD890ED
:100DA00036340001896F380EF66E080EF76E000EAD
:100DB000F86E8951F626000E006EF7220050F822D8
:100DC0000900F550166E0900F550176E16500F0108
:100DD000506FD89036340001896F980EF66E080E69
:100DE000F76E000EF86E8951F626000E006EF7229F
:100DF0000050F8220900F550166E0900F550176EE4
:100E000016500F01476F3A503E5CD8A414EF07F01C
:100E100039503D5CD8A414EF07F038503C5CD8A49E
:100E200014EF07F037503B5CD8B423EF07F0D8A09D
:100E300023EF07F0372AD8B4382AD8B4392AD8B4DF
:100E40003A2A42EF07F03A503E5CD8A434EF07F05C
:100E500039503D5CD8A434EF07F038503C5CD8A43E
:100E600034EF07F037503B5CD8B442EF07F0D8B00E
:100E700042EF07F0010E375ED8A0385ED8A0395E89
:100E8000D8A03A5E00014F0E166E162E45EF07F001
:100E900067EF06F01200800E6F6E6E38166E163217
:100EA000070E1616040E165CD8A44DEF07F0500E70
:100EB000726E0E017D6B020E436FAC0E446F030E1B
:100EC000456FFA6BFB6BFF0EF86FE00EF96F796BF5
:100ED0007A6B7B6B7C6B466B476BFF0E716FFF0E03
:100EE000726FFF0E736FFF0E746FFF0E756FFF0E44
:100EF000766FFF0E776FFF0E786F12000E0146516E
:100F0000D8A4A2EF07F0000189513F6E8A51406ECC
:100F10000E01E26BE36BD8904030176E3F30166ED7
:100F2000D89017321632D890173216321650E06F1A
:100F30003F38F00BE16FD890E137F00E716F010E82
:100F4000466F12004605D8A4C5EF07F0000189518D
:100F5000416E8A51426E0E01E66BE76BD8904230CB
:100F6000176E4130166ED89017321632D89017325D
:100F700016321650E46F4138F00BE56FD890E53724
:100F8000100E716F030E466F1200030E465DD8A45B
:100F9000E9EF07F000018951436E8A51446E0E015A
:100FA000EA6BEB6BD8904430176E4330166ED890D6
:100FB00017321632D890173216321650E86F43386F
:100FC000F00BE96FD890E937F20E726F070E466F9B
:100FD0001200070E465DD8A40DEF08F000018951FC
:100FE000456E8A51466E0E01EE6BEF6BD89046301F
:100FF000176E4530166ED89017321632D8901732C9
:1010000016321650EC6F4538F00BED6FD890ED3777
:10101000320E726F0F0E466F12000F0E465DD8A48F
:1010200031EF08F000018951476E8A51486E0E0178
:10103000F26BF36BD8904830176E4730166ED8902D
:1010400017321632D890173216321650F06F4738D2
:10105000F00BF16FD890F137F40E736F1F0E466FDF
:1010600012001F0E465DD8A455EF08F0000189510B
:10107000496E8A514A6E0E01F66BF76BD8904A3072
:10108000176E4930166ED89017321632D890173234
:1010900016321650F46F4938F00BF56FD890F537CB
:1010A000540E736F3F0E466F12003F0E465DD8A47C
:1010B00079EF08F0000189514B6E8A514C6E0E0198
:1010C0004A6B4B6BD8904C30176E4B30166ED890E5
:1010D00017321632D890173216321650486F4B38E6
:1010E000F00B496FD8904937F60E746F7F0E466F3C
:1010F00012007F0E465DD8A49DEF08F000018951D3
:101100004D6E8A514E6E0E014E6B4F6BD8904E3025
:10111000176E4D30166ED89017321632D89017329F
:10112000163216504C6F4D38F00B4D6FD8904D372E
:10113000760E746FFF0E466F12004751D8A4C0EFB1
:1011400008F0000189514F6E8A51506E0E01526BAA
:10115000536BD8905030176E4F30166ED8901732B0
:101160001632D890173216321650506F4F38F00B97
:10117000516FD8905137F00E756F010E476F120006
:101180004705D8A4E3EF08F000018951516E8A5158
:10119000526E0E01566B576BD8905230176E51300D
:1011A000166ED89017321632D89017321632165063
:1011B000546F5138F00B556FD8905537100E756F2E
:1011C000030E476F1200030E475DD8A407EF09F026
:1011D00000018951536E8A51546E0E015A6B5B6B3C
:1011E000D8905430176E5330166ED890173216328E
:1011F000D890173216321650586F5338F00B596F7B
:10120000D8905937F20E766F070E476F1200070E0F
:10121000475DD8A42BEF09F000018951556E8A5122
:10122000566E0E015E6B5F6BD8905630176E553060
:10123000166ED89017321632D890173216321650D2
:101240005C6F5538F00B5D6FD8905D37320E766F5E
:101250000F0E476F12000F0E475DD8A44FEF09F035
:1012600000018951576E8A51586E0E01626B636B93
:10127000D8905830176E5730166ED89017321632F5
:10128000D890173216321650606F5738F00B616FD6
:10129000D8906137F40E776F1F0E476F12001F0E44
:1012A000475DD8A473EF09F000018951596E8A5146
:1012B0005A6E0E01666B676BD8905A30176E5930B4
:1012C000166ED89017321632D89017321632165042
:1012D000646F5938F00B656FD8906537540E776F8F
:1012E0003F0E476F12003F0E475DD8A497EF09F0FD
:1012F000000189515B6E8A515C6E0E016A6B6B6BEB
:10130000D8905C30176E5B30166ED890173216325C
:10131000D890173216321650686F5B38F00B696F31
:10132000D8906937F60E786F7F0E476F12007F0EE8
:10133000475DD8A4BAEF09F0000189515D6E8A516A
:101340005E6E0E016E6B6F6BD8905E30176E5D3007
:10135000166ED89017321632D890173216321650B1
:101360006C6F5D38F00B6D6FD8906D37760E786FBF
:10137000FF0E476F1200606A0F01306B0E01806B29
:10138000906BA06BB06BC06BD06B200E706E6F6AF1
:101390006E38166E1632070E16161650D8A4C8EF01
:1013A00009F01200A86BA96BAA6BAB6BAC6BAD6BB1
:1013B000AE6BAF6BB06BB16BB26B6150B36FB46BB4
:1013C000D890B335B56FB435B66FD890B537B6375A
:1013D000D890B537B6376250B76FB86BD890B83180
:1013E000BA6FB731B96F040E166ED890BA33B933ED
:1013F000162EF5EF09F0B951B511BB6FBA51B61100
:10140000BC6FA651BB5D166EA751BC5D1610C59191
:10141000D8B4C581C58360BEC5A1C593C5A34AEF35
:101420000AF06150BD6FBE6BD890BD35BF6FBE3541
:10143000C06FD890BF37C037D890BF37C037625021
:10144000C16FC26BD890C231C46FC131C36F040E7B
:10145000166ED890C433C333162E29EF0AF0C35149
:10146000BF11A86FC451C011A96F6550AA6F665013
:10147000AB6F6750AC6F6850AD6F6950AE6F6A501C
:10148000AF6F6B50B06F6C50B16F6D50B26F609EAC
:1014900023EF0EF00F0131510001B36FB46BD89000
:1014A000B335B56FB435B66FD890B537B637D89079
:1014B000B537B6370F0132510001B76FB86BD8900E
:1014C000B831BA6FB731B96F040E166ED890BA330F
:1014D000B933162E66EF0AF0B951B511BB6FBA5188
:1014E000B611BC6FA651BB5D166EA751BC5D161040
:1014F000C595D8B4C585C5970F0130AF83EF0AF005
:101500000001C5B5C5870001C5A7D7EF0AF00F01D7
:1015100031510001BD6FBE6BD890BD35BF6FBE3578
:10152000C06FD890BF37C037D890BF37C0370F01D2
:1015300032510001C16FC26BD890C231C46FC1314A
:10154000C36F040E166ED890C433C333162EA3EFA8
:101550000AF0C351BF11A86FC451C011A96F0F0188
:1015600035510001AA6F0F0136510001AB6F0F0119
:1015700037510001AC6F0F0138510001AD6F0F0101
:1015800039510001AE6F0F013A510001AF6F0F01E9
:101590003B510001B06F0F013C510001B16F0F01D1
:1015A0003D510001B26F0F01309F23EF0EF00E018D
:1015B00081510001B36FB46BD890B335B56FB435BA
:1015C000B66FD890B537B637D890B537B6370E0165
:1015D00082510001B76FB86BD890B831BA6FB7318C
:1015E000B96F040E166ED890BA33B933162EF3EFD6
:1015F0000AF0B951B511BB6FBA51B611BC6FA65103
:10160000BB5D166EA751BC5D1610C599D8B4C589CF
:10161000C59B0E0180AF10EF0BF00001C5B9C58B63
:101620000001C5AB64EF0BF00E0181510001BD6FED
:10163000BE6BD890BD35BF6FBE35C06FD890BF3779
:10164000C037D890BF37C0370E0182510001C16F3B
:10165000C26BD890C231C46FC131C36F040E166E15
:10166000D890C433C333162E30EF0BF0C351BF11E3
:10167000A86FC451C011A96F0E0185510001AA6F56
:101680000E0186510001AB6F0E0187510001AC6F56
:101690000E0188510001AD6F0E0189510001AE6F3E
:1016A0000E018A510001AF6F0E018B510001B06F26
:1016B0000E018C510001B16F0E018D510001B26F0E
:1016C0000E01809F23EF0EF00E0191510001B36FC8
:1016D000B46BD890B335B56FB435B66FD890B53715
:1016E000B637D890B537B6370E0192510001B76FB3
:1016F000B86BD890B831BA6FB731B96F040E166EA7
:10170000D890BA33B933162E80EF0BF0B951B5111A
:10171000BB6FBA51B611BC6FA651BB5D166EA75117
:10172000BC5D1610C59DD8B4C58DC59F0E0190AF88
:101730009DEF0BF00001C5BDC58F0001C5AFF1EFF6
:101740000BF00E0191510001BD6FBE6BD890BD35FD
:10175000BF6FBE35C06FD890BF37C037D890BF3786
:10176000C0370E0192510001C16FC26BD890C231D7
:10177000C46FC131C36F040E166ED890C433C33327
:10178000162EBDEF0BF0C351BF11A86FC451C0118D
:10179000A96F0E0195510001AA6F0E01965100012B
:1017A000AB6F0E0197510001AC6F0E019851000113
:1017B000AD6F0E0199510001AE6F0E019A510001FB
:1017C000AF6F0E019B510001B06F0E019C510001E3
:1017D000B16F0E019D510001B26F0E01909F23EF7A
:1017E0000EF00E01A1510001B36FB46BD890B33568
:1017F000B56FB435B66FD890B537B637D890B53722
:10180000B6370E01A2510001B76FB86BD890B8314E
:10181000BA6FB731B96F040E166ED890BA33B933B8
:10182000162E0DEF0CF0B951B511BB6FBA51B611B0
:10183000BC6FA651BB5D166EA751BC5D1610C6915C
:10184000D8B4C681C6930E01A0AF2AEF0CF00001F8
:10185000C6B1C6830001C6A37EEF0CF00E01A151F4
:101860000001BD6FBE6BD890BD35BF6FBE35C06F78
:10187000D890BF37C037D890BF37C0370E01A251BC
:101880000001C16FC26BD890C231C46FC131C36F48
:10189000040E166ED890C433C333162E4AEF0CF0E4
:1018A000C351BF11A86FC451C011A96F0E01A5513A
:1018B0000001AA6F0E01A6510001AB6F0E01A751E6
:1018C0000001AC6F0E01A8510001AD6F0E01A951CE
:1018D0000001AE6F0E01AA510001AF6F0E01AB51B6
:1018E0000001B06F0E01AC510001B16F0E01AD519E
:1018F0000001B26F0E01A09F23EF0EF00E01B15157
:101900000001B36FB46BD890B335B56FB435B66F13
:10191000D890B537B637D890B537B6370E01B25133
:101920000001B76FB86BD890B831BA6FB731B96FE3
:10193000040E166ED890BA33B933162E9AEF0CF007
:10194000B951B511BB6FBA51B611BC6FA651BB5D91
:10195000166EA751BC5D1610C695D8B4C685C6973D
:101960000E01B0AFB7EF0CF00001C6B5C68700019D
:10197000C6A70BEF0DF00E01B1510001BD6FBE6B9C
:10198000D890BD35BF6FBE35C06FD890BF37C03758
:10199000D890BF37C0370E01B2510001C16FC26B82
:1019A000D890C231C46FC131C36F040E166ED89087
:1019B000C433C333162ED7EF0CF0C351BF11A86F39
:1019C000C451C011A96F0E01B5510001AA6F0E01DB
:1019D000B6510001AB6F0E01B7510001AC6F0E01A3
:1019E000B8510001AD6F0E01B9510001AE6F0E018B
:1019F000BA510001AF6F0E01BB510001B06F0E0173
:101A0000BC510001B16F0E01BD510001B26F0E015A
:101A1000B09F23EF0EF00E01C1510001B36FB46B04
:101A2000D890B335B56FB435B66FD890B537B637F3
:101A3000D890B537B6370E01C2510001B76FB86BF9
:101A4000D890B831BA6FB731B96F040E166ED8900E
:101A5000BA33B933162E27EF0DF0B951B511BB6F5C
:101A6000BA51B611BC6FA651BB5D166EA751BC5DD5
:101A70001610C699D8B4C689C69B0E01C0AF44EFF4
:101A80000DF00001C6B9C68B0001C6AB98EF0DF092
:101A90000E01C1510001BD6FBE6BD890BD35BF6F47
:101AA000BE35C06FD890BF37C037D890BF37C0376A
:101AB0000E01C2510001C16FC26BD890C231C46F18
:101AC000C131C36F040E166ED890C433C333162EC3
:101AD00064EF0DF0C351BF11A86FC451C011A96FBD
:101AE0000E01C5510001AA6F0E01C6510001AB6F76
:101AF0000E01C7510001AC6F0E01C8510001AD6F5E
:101B00000E01C9510001AE6F0E01CA510001AF6F45
:101B10000E01CB510001B06F0E01CC510001B16F2D
:101B20000E01CD510001B26F0E01C09F23EF0EF0E8
:101B30000E01D1510001B36FB46BD890B335B56FBE
:101B4000B435B66FD890B537B637D890B537B63705
:101B50000E01D2510001B76FB86BD890B831BA6F8F
:101B6000B731B96F040E166ED890BA33B933162E4A
:101B7000B4EF0DF0B951B511BB6FBA51B611BC6FCE
:101B8000A651BB5D166EA751BC5D1610C69DD8B49C
:101B9000C68DC69F0E01D0AFD1EF0DF00001C6BDBE
:101BA000C68F0001C6AF23EF0EF00E01D151000128
:101BB000BD6FBE6BD890BD35BF6FBE35C06FD890BE
:101BC000BF37C037D890BF37C0370E01D2510001A0
:101BD000C16FC26BD890C231C46FC131C36F040EE4
:101BE000166ED890C433C333162EF1EF0DF0C351E7
:101BF000BF11A86FC451C011A96F0E01D5510001CA
:101C0000AA6F0E01D6510001AB6F0E01D751000132
:101C1000AC6F0E01D8510001AD6F0E01D95100011A
:101C2000AE6F0E01DA510001AF6F0E01DB51000102
:101C3000B06F0E01DC510001B16F0E01DD510001EA
:101C4000B26F0E01D09F0001A851166EA951176EF8
:101C5000AA51186EAB51196EAC511A6EAD511B6E74
:101C6000AE511C6EAF511D6EB0511E6EB1511F6E44
:101C7000B251206E12009051A26F9151A16F9251FA
:101C8000A06F93519F6F9F51166EA051176EA15177
:101C9000186EA251196E12009051A26F9151A16F4E
:101CA0009251A06F93519F6F9F51166EA051176E66
:101CB000A151186EA251196E1200010EA66FA76BEA
:101CC000D2EC09F016500001946F1750956F185020
:101CD000966F1950976F1A50986F1B50996F1C5040
:101CE0009A6F1D509B6F1E509C6F1F509D6F205010
:101CF0009E6F9651A381D8B4A3919751895DA39308
:101D0000D8B4A383A385A3B1A3A3A39598518A5D57
:101D1000A397D8B4A387A389A3B5A3A7A3999951DF
:101D20008B5DA39BD8B4A38BA38DA3B9A3ABA39DB9
:101D30009A518C5DA39FD8B4A38FA481A3BDA3AFF8
:101D4000A4919B518D5DA493D8B4A483A485A4B120
:101D5000A4A3A4959C518E5DA497D8B4A487A4890C
:101D6000A4B5A4A7A4999D518F5DA49BD8B4A48BBE
:101D7000A48DA4B9A4ABA49D9E51905DA49FD8B49A
:101D8000A48FA581A4BDA4AFA591A5B100EF00F0DB
:101D9000120000016E6B6F6B706B716B00018E0E29
:101DA000166EA70E176EA70E186E182ED5EF0EF032
:101DB000172ED3EF0EF0162ED1EF0EF0000000001C
:101DC00000008B808B82376A386A396A3A6A880EDB
:101DD0003B6E1D0E3C6E3D6A3E6A67EC06F0880E57
:101DE000376E1D0E386E396A3A6A3B6A3C6A3D6A44
:101DF0003E6A67EC06F0376A386A396A3A6A3B6AC3
:101E00003C6A3D6A3E6A4BEC07F0010E0001896FA7
:101E10008A6B7EEC07F0D20E0001896F8A6B7EEC34
:101E200007F03A0E0001896F010E8A6F7EEC07F011
:101E3000BBEC09F08B908B92760E0001896F8A6F54
:101E4000690E8B6F5F0E8C6F300E8D6F8E6F8F6F84
:101E5000906F5DEC0EF0D20E0001A66FA76BD2EC76
:101E600009F0165000015F6F1750606F1850616FD6
:101E70001950626F1A50636F1B50646F1C50656F6E
:101E80001D50666F1E50676F1F50686F2050696F3E
:101E90006151D8B483EF0FF05F51896F60518A6F41
:101EA00061518B6F62518C6F63518D6F64518E6F76
:101EB00065518F6F6651906F6751916F6851926F46
:101EC0006951936F4CEC0EF0165000016A6F175079
:101ED0006B6F18506C6F19506D6F010E6A15166E8E
:101EE0001650D8B477EF0FF08B8078EF0FF08B900F
:101EF000010E6A15166E1650D8B482EF0FF08B8261
:101F000083EF0FF08B923A0EA66F010EA76FD2EC03
:101F100009F0165000015F6F1750606F1850616F25
:101F20001950626F1A50636F1B50646F1C50656FBD
:101F30001D50666F1E50676F1F50686F2050696F8D
:101F40006151D8B41CEF0FF05F51896F60518A6FF7
:101F500061518B6F62518C6F63518D6F64518E6FC5
:101F600065518F6F6651906F6751916F6851926F95
:101F70006951936F3BEC0EF016500001726F1750D1
:101F8000736F1850746F1950756FAE0E2D6ED90E99
:101F90002E6E440E2F6E430E306E7251286E7351AA
:101FA000296E74512A6E75512B6ED5EC05F02850B0
:101FB0000001766F2950776F2A50786F2B50796F18
:101FC0007A6B800E7B6FBB0E7C6F450E7D6F7A51F6
:101FD0002D6E7B512E6E7C512F6E7D51306E765161
:101FE000286E7751296E78512A6E79512B6E3AEC12
:101FF00005F0285000016E6F29506F6F2A50706FE6
:102000002B50716F726B736B746B756B72512D6E9D
:1020100073512E6E74512F6E7551306E6E51286E45
:102020006F51296E70512A6E71512B6E38EC05F08C
:102030002A342B34FF0BD8902BBED880D8B424EF91
:1020400010F0D8A02AEF10F03B6A3C6A3D6A3E6A65
:1020500083EF13F00001726B736B746B756B6E51D1
:102060002D6E6F512E6E70512F6E7151306E7251F8
:10207000286E7351296E74512A6E75512B6E38EC8F
:1020800005F02C6A2A342B34FF0BD8B44AEF10F039
:102090002BBE2C2A2C5000018697D8A48687766BFD
:1020A000776BFA0E786F440E796F76512D6E7751FB
:1020B0002E6E78512F6E7951306E6E51286E6F51A1
:1020C000296E70512A6E71512B6E38EC05F02C6A16
:1020D0002A342B34FF0B2BBED884D8B42C2A2C5096
:1020E00000018699D8A48689868B86B786A9869BA7
:1020F00086ABA2EF10F0EC0E2D6E510E2E6EB80EC8
:102100002F6E3E0E306E6E51286E6F51296E7051DB
:102110002A6E71512B6ED5EC05F01EEC06F0325094
:1021200000017A6F33507B6F34507C6F35507D6F78
:102130007A513B6E7B513C6E7C513D6E7D513E6EC3
:1021400083EF13F0726B736BFA0E746F440E756F3E
:102150006E512D6E6F512E6E70512F6E7151306E0B
:102160007251286E7351296E74512A6E75512B6EFF
:1021700038EC05F02C6A2A342B34FF0BD8B4C3EFAB
:1021800010F02BBE2C2A2C500001869DD8A4868DE1
:10219000766B400E776F9C0E786F450E796F765197
:1021A0002D6E77512E6E78512F6E7951306E6E51A3
:1021B000286E6F51296E70512A6E71512B6E38EC5A
:1021C00005F02C6A2A342B34FF0B2BBED884D8B4EC
:1021D0002C2A2C500001869FD8A4868F878186BD2B
:1021E00086AF879187A14EEF11F02D6A2E6AFA0E05
:1021F0002F6E440E306E6E51286E6F51296E7051E5
:102200002A6E71512B6E38EC05F0285000017A6F60
:1022100029507B6F2A507C6F2B507D6FEB0E2D6EFB
:10222000510E2E6E380E2F6E3F0E306E7A51286E84
:102230007B51296E7C512A6E7D512B6ED5EC05F0B9
:10224000285000017E6F29507F6F2A50806F2B50DD
:10225000816F2D6A2E6A340E2F6E440E306E7E51C1
:10226000286E7F51296E80512A6E81512B6E3AEC77
:1022700005F01EEC06F032500001826F3350836F80
:102280003450846F3550856F82513B6E83513C6E64
:1022900084513D6E85513E6E83EF13F0726B400E9C
:1022A000736F9C0E746F450E756F6E512D6E6F516E
:1022B0002E6E70512F6E7151306E7251286E7351A7
:1022C000296E74512A6E75512B6E38EC05F02C6A0C
:1022D0002A342B34FF0BD8B470EF11F02BBE2C2A0C
:1022E0002C5000018793D8A48783766BC00E776F3C
:1022F000DA0E786F450E796F76512D6E77512E6E0E
:1023000078512F6E7951306E6E51286E6F51296E53
:1023100070512A6E71512B6E38EC05F02C6A2A34FC
:102320002B34FF0B2BBED884D8B42C2A2C500001A0
:102330008795D8A48785878787B387A5879787A739
:10234000FAEF11F02D6A400E2E6E9C0E2F6E450E88
:10235000306E6E51286E6F51296E70512A6E715118
:102360002B6E38EC05F0285000017A6F29507B6FF6
:102370002A507C6F2B507D6F660E2D6E2E6E2F6E49
:102380003F0E306E7A51286E7B51296E7C512A6E39
:102390007D512B6ED5EC05F0285000017E6F295041
:1023A0007F6F2A50806F2B50816F2D6A2E6A340EFA
:1023B0002F6E450E306E7E51286E7F51296E8051F2
:1023C0002A6E81512B6E3AEC05F01EEC06F032506D
:1023D0000001826F3350836F3450846F3550856FA6
:1023E00082513B6E83513C6E84513D6E85513E6EF1
:1023F00083EF13F0726BC00E736FDA0E746F450EBD
:10240000756F6E512D6E6F512E6E70512F6E715112
:10241000306E7251286E7351296E74512A6E755147
:102420002B6E38EC05F02C6A2A342B34FF0BD8B411
:102430001CEF12F02BBE2C2A2C5000018799D8A437
:102440008789766B400E776F1C0E786F460E796F1A
:1024500076512D6E77512E6E78512F6E7951306EE8
:102460006E51286E6F51296E70512A6E71512B6E0C
:1024700038EC05F02C6A2A342B34FF0B2BBED884A1
:10248000D8B42C2A2C500001879BD8A4878B878D29
:1024900087B987AB879D87ADA9EF12F02D6AC00E73
:1024A0002E6EDA0E2F6E450E306E6E51286E6F5105
:1024B000296E70512A6E71512B6E38EC05F0285040
:1024C00000017A6F29507B6F2A507C6F2B507D6FF3
:1024D000EB0E2D6E510E2E6E380E2F6E3F0E306E9F
:1024E0007A51286E7B51296E7C512A6E7D512B6E5C
:1024F000D5EC05F0285000017E6F29507F6F2A50DF
:10250000806F2B50816F2D6A400E2E6E920E2F6EB3
:10251000450E306E7E51286E7F51296E80512A6E95
:1025200081512B6E3AEC05F01EEC06F032500001A2
:10253000826F3350836F3450846F3550856F825172
:102540003B6E83513C6E84513D6E85513E6E83EFF0
:1025500013F0726B400E736F1C0E746F460E756F26
:102560006E512D6E6F512E6E70512F6E7151306EF7
:102570007251286E7351296E74512A6E75512B6EEB
:1025800038EC05F02C6A2A342B34FF0BD8B4CBEF8F
:1025900012F02BBE2C2A2C500001879FD8A4878FC5
:1025A000766B800E776F3B0E786F460E796F7651A3
:1025B0002D6E77512E6E78512F6E7951306E6E518F
:1025C000286E6F51296E70512A6E71512B6E38EC46
:1025D00005F02C6A2A342B34FF0B2BBED884D8B4D8
:1025E0002C2A2C5000018891D8A48881888387BF29
:1025F00088A1889388A358EF13F02D6A400E2E6EA1
:102600001C0E2F6E460E306E6E51286E6F51296E65
:1026100070512A6E71512B6E38EC05F02850000174
:102620007A6F29507B6F2A507C6F2B507D6FEC0E98
:102630002D6E510E2E6EB80E2F6E3E0E306E7A51EC
:10264000286E7B51296E7C512A6E7D512B6ED5EC04
:1026500005F0285000017E6F29507F6F2A50806F4F
:102660002B50816F2D6AC00E2E6ED50E2F6E450E2B
:10267000306E7E51286E7F51296E80512A6E8151B5
:102680002B6E3AEC05F01EEC06F032500001826F22
:102690003350836F3450846F3550856F82513B6E59
:1026A00083513C6E84513D6E85513E6E83EF13F035
:1026B000726B800E736F3B0E746F460E756F6E51AA
:1026C0002D6E6F512E6E70512F6E7151306E725192
:1026D000286E7351296E74512A6E75512B6E38EC29
:1026E00005F02A342B34FF0BD8902BBED880D8B4F9
:1026F00083EF13F0D8A083EF13F0880E3B6E1D0E0E
:0E2700003C6E3D6A3E6A67EC06F01CEF0FF07F
:020000040030CA
:0E0000005D087F7F008991000FC00FE00F4068
:00000001FF
